:020000040000FA
:0600000045EF2CF0120098
:020006001200E6
:08000800F2A402D0B3EF20F0D6
:100010009EA002D036EF21F09EAA02D092EF23F0EC
:10002000A1A202D0AAEF28F01200D08EF28EF28C9C
:020030001200BC
:0E00320006009F5B0000860100000100000038
:100040005E5B0000000F0000410000005C5B0000F0
:100050008301000002000000405B0000410F00002F
:100060001C000000DC5A0000CA0000006400000010
:0C007000BC58000000020000200200004C
:04007C00D9CFE6FFF3
:10008000E1CFD9FFE652FE0EDBCFE6FF010EF36EA5
:10009000FD0EDB5004E0D890F336E806FCE1F350A7
:1000A000E552E71402E0010E01D0000EDF6EDF50D2
:1000B00000D0E552E552E7CFD9FF1200D9CFE6FFD5
:1000C000E1CFD9FF010EF36EFC0EDB5004E0D890B7
:1000D000F336E806FCE1F350146EFD0EDBCFE9FFCA
:1000E000FE0EDBCFEAFF1450EF12E552E7CFD9FF47
:1000F0001200D9CFE6FFE1CFD9FF010EF36EFC0E5F
:10010000DB5004E0D890F336E806FCE1F350E81C3D
:10011000146EFD0EDBCFE9FFFE0EDBCFEAFF1450BD
:10012000EF16E552E7CFD9FF1200D9CFE6FFE1CFB6
:10013000D9FF030EE126DF6A030EDF5C01E31ED167
:10014000DF28E66EDF50B50DF3CFE9FFF4CFEAFF0D
:10015000000EE926020EEA22E552E750EF6EDF506C
:10016000B50DF3CFE9FFF4CFEAFF000EE926020E4A
:10017000EA22EE52EF6ADF50B50DF3CFE9FFF4CF7C
:10018000EAFF000EE926020EEA22030EE926000E1F
:10019000EA22EE6AED6ADF50B50DF3CFE9FFF4CF46
:1001A000EAFF000EE926020EEA22050EE926000EFD
:1001B000EA22EF6ADF50B50DF3CFE9FFF4CFEAFF93
:1001C000000EE926020EEA22060EE926000EEA22B9
:1001D000EF6ADF50B50DF3CFE9FFF4CFEAFF000E71
:1001E000E926020EEA22090EE926000EEA22EF6A4B
:1001F000DF50B50DF3CFE9FFF4CFEAFF000EE9269B
:10020000020EEA220A0EE926000EEA22EF6ADF5009
:10021000B50DF3CFE9FFF4CFEAFF000EE926020E99
:10022000EA22070EE926000EEA22EF6ADF50B50D3A
:10023000F3CFE9FFF4CFEAFF000EE926020EEA222F
:100240000B0EE926000EEA22EF6ADF50B50DF3CF60
:10025000E9FFF4CFEAFF000EE926020EEA220C0EB7
:10026000E926000EEA22EF6ADF50B50DF3CFE9FF71
:10027000F4CFEAFF000EE926020EEA22080EE92674
:10028000000EEA22EF6ADF50B50DF3CFE9FFF4CF9D
:10029000EAFF000EE926020EEA22020EE926000E0F
:1002A000EA22EF6ADE52380EDD6E010EDBCFE6FF8A
:1002B000E66AE66ADF50B50DF3CFE9FFF4CFEAFF57
:1002C000000EE926020EEA227D0EE926000EEA2241
:1002D000E9CF14F0EACF15F014C0E6FF15C0E6FF31
:1002E0002CEC29F0166E050EE15E1650010EDBCFE8
:1002F000E6FFE66AE66ADF50B50DF3CFE9FFF4CF1B
:10030000EAFF000EE926020EEA220D0EE926000E93
:10031000EA22E9CF14F0EACF15F014C0E6FF15C0C9
:10032000E6FF2CEC29F0166E050EE15E1650010E6C
:10033000DBCFE6FFE66AE66ADF50B50DF3CFE9FFF3
:10034000F4CFEAFF000EE926020EEA220D0EE9269E
:10035000000EEA22E9CF14F0EACF15F0380E142689
:10036000000E152214C0E6FF15C0E6FF2CEC29F0A4
:10037000166E050EE15E1650DF2ADED6030EE15C36
:1003800002E2E16AE552E16EE552E7CFD9FF1200E1
:10039000D9CFE6FFE1CFD9FF070EE126030EF36EBA
:1003A000FE0EDBCFF4FFF350F45C1EE2FC0EDBCF5D
:1003B000E9FFFD0EDBCFEAFFEF50146E156AD8900F
:1003C000155004E6800E145C000E15580DE2FC0E6C
:1003D000DBCFE9FFFD0EDBCFEAFF020EE926000EC0
:1003E000EA22EE50ED1003E1000EF0EF05F0FE0EF4
:1003F000DB50B50DF3CFE9FFF4CFEAFF000EE9269D
:10040000020EEA22EE52E9CF14F0EACF15F0050E03
:1004100014C0DBFF060E15C0DBFFFC0EDBCFE9FFCF
:10042000FD0EDBCFEAFFEECF14F0EECF15F0EECFEE
:1004300016F0EECF17F0EECF18F0EFCF19F0050E53
:10044000DBCFE9FF060EDBCFEAFF14C0EEFF15C0DD
:10045000EEFF16C0EEFF17C0EEFF18C0EEFF19C08A
:10046000EEFFFE0EDB50B50DF3CFE9FFF4CFEAFF50
:10047000000EE926020EEA22060EE926000EEA2206
:10048000EF50E66EFE0EDB50B50DF3CFE9FFF4CF73
:10049000EAFF000EE926020EEA22070EE926000E08
:1004A000EA22E552E750EF6E380EDF6EDFCFE6FF4F
:1004B000E66AE66AFE0EDB50B50DF3CFE9FFF4CF36
:1004C000EAFF000EE926020EEA227D0EE926000E62
:1004D000EA22E9CF14F0EACF15F014C0E6FF15C008
:1004E000E6FF2CEC29F0166E050EE15E1650DFCF0C
:1004F000E6FFE66AE66AFE0EDB50B50DF3CFE9FFD4
:10050000F4CFEAFF000EE926020EEA220D0EE926DC
:10051000000EEA22E9CF14F0EACF15F014C0E6FF8E
:1005200015C0E6FF2CEC29F0166E050EE15E1650A4
:10053000DFCFE6FFE66AE66AFE0EDB50B50DF3CFCD
:10054000E9FFF4CFEAFF000EE926020EEA220D0EC3
:10055000E926000EEA22E9CF14F0EACF15F0380EB2
:100560001426000E152214C0E6FF15C0E6FF2CEC81
:1005700029F0166E050EE15E1650FE0EDB50B50D2D
:10058000F3CFE9FFF4CFEAFF000EE926020EEA22DC
:10059000060EE926000EEA22EF5001E088D1FE0E99
:1005A000DB50B50DF3CFE9FFF4CFEAFF000EE926EB
:1005B000020EEA22080EE926000EEA22EF6ADF6A3E
:1005C000FE0EDB50B50DF3CFE9FFF4CFEAFF000ECE
:1005D000E926020EEA22020EE926000EEA22EF5078
:1005E000DF5C01E363D1FE0EDB50B50DF3CFE9FF15
:1005F000F4CFEAFF000EE926020EEA22080EE926F1
:10060000000EEA22EF50EF2A146E156AFE0EDB5040
:10061000B50DF3CFE9FFF4CFEAFF000EE926020E95
:10062000EA22030EE926000EEA221450EE24E76EB9
:100630001550EE20EA6EE7CFE9FFEF50E00FE76ECE
:10064000040EE7CFDBFF040EDBCF14F014340EE210
:10065000040EDBCF15F0630EE76E1518E8AE02D07E
:10066000153403D0E750D880155402E2040EDB6A3B
:10067000FE0EDB50B50DF3CFE9FFF4CFEAFF000E1D
:10068000E926020EEA22080EE926000EEA22EFCF42
:1006900014F0FE0EDB50B50DF3CFE9FFF4CFEAFF07
:1006A000000EE926020EEA22050EE926000EEA22D5
:1006B000EF50145C10E3FE0EDB50B50DF3CFE9FFF5
:1006C000F4CFEAFF000EE926020EEA22080EE92620
:1006D000000EEA22EF6A010EDB6A070EF36E010ECE
:1006E000DBCFF4FFF350F45C01E3DED0040EDBCF8C
:1006F00018F0196A18BE1968030ED8901836193602
:10070000E806FBE1060E18263A0E1922010EDB5010
:100710000F011824F66E000E1920F76E0800F55030
:10072000E66EFE0EDB50B50DF3CFE9FFF4CFEAFF26
:10073000000EE926020EEA227D0EE926000EEA22CC
:10074000E9CF16F0EACF17F0010EDB50080D165076
:10075000F324146E1750F420156EDF500F0114248B
:10076000E96E000E1520EA6EE552E750EF6EFE0EC0
:10077000DB50B50DF3CFE9FFF4CFEAFF000EE92619
:10078000020EEA227D0EE926000EEA22E9CF1AF0D7
:10079000EACF1BF0010EDB50080D1A50F324186E3F
:1007A0001B50F420196EDF500F011824E96E000E63
:1007B0001920EA6EEF50E66EFE0EDB50B50DF3CF5A
:1007C000E9FFF4CFEAFF000EE926020EEA220D0E41
:1007D000E926000EEA22E9CF16F0EACF17F0010E63
:1007E000DB50080D1650F324146E1750F420156ECC
:1007F000DF500F011424E96E000E1520EA6EE55259
:10080000E750EF6EFE0EDB50B50DF3CFE9FFF4CFEE
:10081000EAFF000EE926020EEA227D0EE926000E0E
:10082000EA22E9CF1AF0EACF1BF0010EDB50080DE7
:100830001A50F324186E1B50F420196EDF500F016C
:100840001824E96E000E1920EA6EEF50E66EFE0ED7
:10085000DB50B50DF3CFE9FFF4CFEAFF000EE92638
:10086000020EEA220D0EE926000EEA22E9CF16F06A
:10087000EACF17F0380E1626000E1722010EDB50B5
:10088000080D1650F324146E1750F420156EDF5027
:100890000F011424E96E000E1520EA6EE552E750B0
:1008A000EF6E010EDB2A19D7DF2A8AD687D1FE0E1A
:1008B000DB50B50DF3CFE9FFF4CFEAFF000EE926D8
:1008C000020EEA22080EE926000EEA22EF6ADF6A2B
:1008D000FE0EDB50B50DF3CFE9FFF4CFEAFF000EBB
:1008E000E926020EEA22020EE926000EEA22EF5065
:1008F000DF5C01E363D1FE0EDB50B50DF3CFE9FF02
:10090000F4CFEAFF000EE926020EEA22080EE926DD
:10091000000EEA22EF50EF2A146E156AFE0EDB502D
:10092000B50DF3CFE9FFF4CFEAFF000EE926020E82
:10093000EA22030EE926000EEA221450EE24E76EA6
:100940001550EE20EA6EE7CFE9FFEF50E00FE76EBB
:10095000040EE7CFDBFF040EDBCF14F014340EE2FD
:10096000040EDBCF15F0630EE76E1518E8AE02D06B
:10097000153403D0E750D880155402E2040EDB6A28
:10098000FE0EDB50B50DF3CFE9FFF4CFEAFF000E0A
:10099000E926020EEA22080EE926000EEA22EFCF2F
:1009A00014F0FE0EDB50B50DF3CFE9FFF4CFEAFFF4
:1009B000000EE926020EEA22050EE926000EEA22C2
:1009C000EF50145C10E3FE0EDB50B50DF3CFE9FFE2
:1009D000F4CFEAFF000EE926020EEA22080EE9260D
:1009E000000EEA22EF6A010EDB6A070EF36E010EBB
:1009F000DBCFF4FFF350F45C01E3DED0040EDBCF79
:100A000018F0196A18BE1968030ED89018361936EE
:100A1000E806FBE1060E18263A0E1922010EDB50FD
:100A20000F011824F66E000E1920F76E0800F5501D
:100A3000E66EFE0EDB50B50DF3CFE9FFF4CFEAFF13
:100A4000000EE926020EEA227D0EE926000EEA22B9
:100A5000E9CF16F0EACF17F0010EDB50080D165063
:100A6000F324146E1750F420156EDF500F01142478
:100A7000E96E000E1520EA6EE552E750EF6EFE0EAD
:100A8000DB50B50DF3CFE9FFF4CFEAFF000EE92606
:100A9000020EEA227D0EE926000EEA22E9CF1AF0C4
:100AA000EACF1BF0010EDB50080D1A50F324186E2C
:100AB0001B50F420196EDF500F011824E96E000E50
:100AC0001920EA6EEF50E66EFE0EDB50B50DF3CF47
:100AD000E9FFF4CFEAFF000EE926020EEA220D0E2E
:100AE000E926000EEA22E9CF16F0EACF17F0010E50
:100AF000DB50080D1650F324146E1750F420156EB9
:100B0000DF500F011424E96E000E1520EA6EE55245
:100B1000E750EF6EFE0EDB50B50DF3CFE9FFF4CFDB
:100B2000EAFF000EE926020EEA227D0EE926000EFB
:100B3000EA22E9CF1AF0EACF1BF0010EDB50080DD4
:100B40001A50F324186E1B50F420196EDF500F0159
:100B50001824E96E000E1920EA6EEF50E66EFE0EC4
:100B6000DB50B50DF3CFE9FFF4CFEAFF000EE92625
:100B7000020EEA220D0EE926000EEA22E9CF16F057
:100B8000EACF17F0380E1626000E1722010EDB50A2
:100B9000080D1650F324146E1750F420156EDF5014
:100BA0000F011424E96E000E1520EA6EE552E7509D
:100BB000EF6E010EDB2A19D7DF2A8AD6FE0EDB5034
:100BC000B50DF3CFE9FFF4CFEAFF000EE926020EE0
:100BD000EA22080EE926000EEA22EF6A010E00D092
:100BE000146E070EE15C02E2E16AE552E16E145018
:100BF000E552E7CFD9FF1200D9CFE6FFE1CFD9FF09
:100C0000FE0EDB50B50DF3CFE9FFF4CFEAFF000E87
:100C1000E926020EEA22060EE926000EEA22FD0E61
:100C2000DBCFEFFFFE0EDB50B50DF3CFE9FFF4CFC6
:100C3000EAFF000EE926020EEA22070EE926000E60
:100C4000EA22FD0EDBCFEFFFE552E7CFD9FF12001E
:100C5000D9CFE6FFE1CFD9FF020EE126FD0EDB5032
:100C6000146E156AFE0EDB50B50DF3CFE9FFF4CF1D
:100C7000EAFF000EE926020EEA22030EE926000E24
:100C8000EA221450EE24E76E1550EE20EA6EE7CF0C
:100C9000E9FFEF50E00FE76E010EE7CFDBFFDF6A01
:100CA000070EDF5C01E3B5D0010EDB50080DF3CF7A
:100CB00018F0F4CF19F0060E18263A0E1922DF505C
:100CC0000F011824F66E000E1920F76E0800F5507B
:100CD000E66EFE0EDB50B50DF3CFE9FFF4CFEAFF71
:100CE000000EE926020EEA227D0EE926000EEA2217
:100CF000E9CF16F0EACF17F0DF50080D1650F324B5
:100D0000146E1750F420156EFD0EDB500F011424E5
:100D1000E96E000E1520EA6EE552E750EF6EDF50E7
:100D2000080DF3CF18F0F4CF19F07D0E1826020E3F
:100D30001922FD0EDB500F011824E96E000E192058
:100D4000EA6EEF50E66EFE0EDB50B50DF3CFE9FF15
:100D5000F4CFEAFF000EE926020EEA220D0EE92684
:100D6000000EEA22E9CF16F0EACF17F0DF50080DA7
:100D70001650F324146E1750F420156EFD0EDB5040
:100D80000F011424E96E000E1520EA6EE552E750BB
:100D9000EF6EDF50080DF3CF18F0F4CF19F07D0E91
:100DA0001826020E1922FD0EDB500F011824E96EE1
:100DB000000E1920EA6EEF50E66EFE0EDB50B50D08
:100DC000F3CFE9FFF4CFEAFF000EE926020EEA2294
:100DD0000D0EE926000EEA22E9CF16F0EACF17F051
:100DE000380E1626000E1722DF50080D1650F32479
:100DF000146E1750F420156EFD0EDB500F011424F5
:100E0000E96E000E1520EA6EE552E750EF6EDF2A1C
:100E100047D7020EE15C02E2E16AE552E16EE5527B
:100E2000E7CFD9FF1200D9CFE6FFE1CFD9FFE652D5
:100E3000FE0EDB50B50DF3CFE9FFF4CFEAFF000E55
:100E4000E926020EEA22EE52EF6AFE0EDB50B50DE5
:100E5000F3CFE9FFF4CFEAFF000EE926020EEA2203
:100E6000030EE926000EEA22EE6AED6AFE0EDB5062
:100E7000B50DF3CFE9FFF4CFEAFF000EE926020E2D
:100E8000EA22050EE926000EEA22EF6AFE0EDB508A
:100E9000B50DF3CFE9FFF4CFEAFF000EE926020E0D
:100EA000EA22060EE926000EEA22EF6AFE0EDB5069
:100EB000B50DF3CFE9FFF4CFEAFF000EE926020EED
:100EC000EA22090EE926000EEA22EF6AFE0EDB5046
:100ED000B50DF3CFE9FFF4CFEAFF000EE926020ECD
:100EE000EA220A0EE926000EEA22EF6AFE0EDB5025
:100EF000B50DF3CFE9FFF4CFEAFF000EE926020EAD
:100F0000EA22070EE926000EEA22EF6AFE0EDB5007
:100F1000B50DF3CFE9FFF4CFEAFF000EE926020E8C
:100F2000EA220B0EE926000EEA22EF6AFE0EDB50E3
:100F3000B50DF3CFE9FFF4CFEAFF000EE926020E6C
:100F4000EA220C0EE926000EEA22EF6AFE0EDB50C2
:100F5000B50DF3CFE9FFF4CFEAFF000EE926020E4C
:100F6000EA22080EE926000EEA22EF6AFE0EDB50A6
:100F7000B50DF3CFE9FFF4CFEAFF000EE926020E2C
:100F8000EA22020EE926000EEA22EF6A380EDF6E30
:100F9000DFCFE6FFE66AE66AFE0EDB50B50DF3CF63
:100FA000E9FFF4CFEAFF000EE926020EEA227D0EE9
:100FB000E926000EEA22E9CF14F0EACF15F014C0BA
:100FC000E6FF15C0E6FF2CEC29F0166E050EE15E7B
:100FD0001650DFCFE6FFE66AE66AFE0EDB50B50D7F
:100FE000F3CFE9FFF4CFEAFF000EE926020EEA2272
:100FF0000D0EE926000EEA22E9CF14F0EACF15F033
:1010000014C0E6FF15C0E6FF2CEC29F0166E050EA5
:10101000E15E1650DFCFE6FFE66AE66AFE0EDB50C1
:10102000B50DF3CFE9FFF4CFEAFF000EE926020E7B
:10103000EA220D0EE926000EEA22E9CF14F0EACFEB
:1010400015F0380E1426000E152214C0E6FF15C048
:10105000E6FF2CEC29F0166E050EE15E1650E55207
:10106000E552E7CFD9FF1200D9CFE6FFE1CFD9FF94
:10107000050EE126DF6A030EDF5C01E3BED3DF501D
:10108000B50DF3CFE9FFF4CFEAFF000EE926020E1B
:10109000EA22060EE926000EEA22EF5021E0DF5098
:1010A000B50DF3CFE9FFF4CFEAFF000EE926020EFB
:1010B000EA22070EE926000EEA22EF06DF50B50D00
:1010C000F3CFE9FFF4CFEAFF000EE926020EEA2291
:1010D000070EE926000EEA22EF50000801E28BD34A
:1010E000DF50B50DF3CFE9FFF4CFEAFF000EE9269C
:1010F000020EEA22060EE926000EEA22EF50E66E04
:10110000DF50B50DF3CFE9FFF4CFEAFF000EE9267B
:10111000020EEA22070EE926000EEA22E552E75007
:10112000EF6E9D90DF50B50DF3CFE9FFF4CFEAFFEE
:10113000000EE926020EEA22090EE926000EEA2236
:10114000EF5025E1DF50B50DF3CFE9FFF4CFEAFF13
:10115000000EE926020EEA220C0EE926000EEA2213
:10116000EF5002E1010E01D0000EE66EDF50B50D2A
:10117000F3CFE9FFF4CFEAFF000EE926020EEA22E0
:101180000B0EE926000EEA22E552E750EF6EDF5023
:10119000B50DF3CFE9FFF4CFEAFF000EE926020E0A
:1011A000EA22090EE926000EEA22EF0402E19D8000
:1011B00022D39D80DF50B50DF3CFE9FFF4CFEAFFD6
:1011C000000EE926020EEA22060EE926000EEA22A9
:1011D000EF5001E1FED2010EDB6A070EF36E010E45
:1011E000DBCFF4FFF350F45C01E383D2010EF36E26
:1011F000020EF3CFDBFFDF50B50DF3CFE9FFF4CFE5
:10120000EAFF000EE926020EEA22020EE926000E8F
:10121000EA22EF50F36E020EDBCFF4FFF350F45CE2
:1012200001E313D1DF50B50DF3CFE9FFF4CFEAFFAF
:10123000000EE926020EEA227D0EE926000EEA22C1
:10124000E9CF16F0EACF17F0010EDB50080D16506B
:10125000F324146E1750F420156E020EDB040F01F8
:101260001424E96E000E1520EA6EEF9EEF46070E7D
:10127000E66EDF50B50DF3CFE9FFF4CFEAFF000EC5
:10128000E926020EEA227D0EE926000EEA22E9CFC7
:1012900016F0EACF17F0010EDB50080D1650F324BC
:1012A000146E1750F420156E020EDB500F0114243B
:1012B000E96E000E1520EA6EEF50E66E3EEC00F08F
:1012C000E552E55201082FE1020EE66EDF50B50D42
:1012D000F3CFE9FFF4CFEAFF000EE926020EEA227F
:1012E0007D0EE926000EEA22E9CF18F0EACF19F0C8
:1012F000010EDB50080D1850F324166E1950F4201F
:10130000176E020EDB0400011624146E000E172067
:10131000156E14C0E6FF15C0E6FF5EEC00F0E55266
:10132000E552E5522ED0020EE66EDF50B50DF3CF3A
:10133000E9FFF4CFEAFF000EE926020EEA227D0E55
:10134000E926000EEA22E9CF18F0EACF19F0010EE3
:10135000DB50080D1850F324166E1950F420176E48
:10136000020EDB0400011624146E000E1720156E09
:1013700014C0E6FF15C0E6FF79EC00F0E552E55237
:10138000E552DF50B50DF3CFE9FFF4CFEAFF000ED1
:10139000E926020EEA227D0EE926000EEA22E9CFB6
:1013A0001CF0EACF1DF0010EDB50080D1C50F32499
:1013B0001A6E1D50F4201B6E020EDB040F011A245E
:1013C000E96E000E1B20EA6EEF50E66EDF50B50DA1
:1013D000F3CFE9FFF4CFEAFF000EE926020EEA227E
:1013E0000D0EE926000EEA22E9CF18F0EACF19F037
:1013F000DF50B50DF3CFE9FFF4CFEAFF000EE92689
:10140000020EEA220B0EE926000EEA22EF50380DFA
:101410001850F324166E1950F420176E010EDB508D
:10142000080D1650F324146E1750F420156E020E9A
:10143000DB040F011424E96E000E1520EA6EE5525C
:10144000E750EF6E020EDB2AD6D6DF50B50DF3CF94
:10145000E9FFF4CFEAFF000EE926020EEA227D0E34
:10146000E926000EEA22E9CF16F0EACF17F0010EC6
:10147000DB50080D1650F324146E1750F420156E2F
:10148000020EDB040F011424E96E000E1520EA6E33
:10149000EF9EEF46DF50B50DF3CFE9FFF4CFEAFF43
:1014A000000EE926020EEA22080EE926000EEA22C4
:1014B000EF50146E156ADF50B50DF3CFE9FFF4CF8E
:1014C000EAFF000EE926020EEA22030EE926000ECC
:1014D000EA221450EE24E76E1550EE20EA6EE7CFB4
:1014E000E9FFEF50E00FE76E030EE7CFDBFF000EE2
:1014F000F36E030EDBCFF4FFF350F45C04E3030E52
:10150000DB50630802E2030EDB6A030EDB50080DBA
:10151000F3CF14F0F4CF15F0060E14263A0E152270
:10152000010EDB500F011424F66E000E1520F76E2D
:101530000800040EF5CFDBFF070E146EDF50B50D6B
:10154000F3CFE9FFF4CFEAFF000EE926020EEA220C
:101550000A0EE926000EEA22EF50145CE66E040E35
:10156000DBCFE6FF3EEC00F0E552E55201082FE14B
:10157000020EE66EDF50B50DF3CFE9FFF4CFEAFFC0
:10158000000EE926020EEA227D0EE926000EEA226E
:10159000E9CF18F0EACF19F0010EDB50080D185012
:1015A000F324166E1950F420176E020EDB040001AE
:1015B0001624146E000E1720156E14C0E6FF15C019
:1015C000E6FF5EEC00F0E552E552E5522ED0020E49
:1015D000E66EDF50B50DF3CFE9FFF4CFEAFF000E62
:1015E000E926020EEA227D0EE926000EEA22E9CF64
:1015F00018F0EACF19F0010EDB50080D1850F32453
:10160000166E1950F420176E020EDB04000116242A
:10161000146E000E1720156E14C0E6FF15C0E6FF0D
:1016200079EC00F0E552E552E552DF50B50DF3CF0D
:10163000E9FFF4CFEAFF000EE926020EEA227D0E52
:10164000E926000EEA22E9CF1CF0EACF1DF0010ED8
:10165000DB50080D1C50F3241A6E1D50F4201B6E35
:10166000020EDB040F011A24E96E000E1B20EA6E45
:10167000EF50E66EDF50B50DF3CFE9FFF4CFEAFF90
:10168000000EE926020EEA220D0EE926000EEA22DD
:10169000E9CF18F0EACF19F0DF50B50DF3CFE9FF2D
:1016A000F4CFEAFF000EE926020EEA220B0EE9262D
:1016B000000EEA22EF50380D1850F324166E195020
:1016C000F420176E010EDB50080D1650F324146E33
:1016D0001750F420156E020EDB040F011424E96E7E
:1016E000000E1520EA6EE552E750EF6E010EDB2A80
:1016F00074D5DF50B50DF3CFE9FFF4CFEAFF000E4C
:10170000E926020EEA220A0EE926000EEA22EF2A54
:10171000DF50B50DF3CFE9FFF4CFEAFF000EE92665
:10172000020EEA220A0EE926000EEA22EFCF14F09A
:10173000060E145C4EE3DF50B50DF3CFE9FFF4CF96
:10174000EAFF000EE926020EEA22080EE926000E44
:10175000EA22EF2ADF50B50DF3CFE9FFF4CFEAFF1D
:10176000000EE926020EEA22080EE926000EEA2201
:10177000EFCF14F0DF50B50DF3CFE9FFF4CFEAFF60
:10178000000EE926020EEA22050EE926000EEA22E4
:10179000EF50145C0FE3DF50B50DF3CFE9FFF4CF4A
:1017A000EAFF000EE926020EEA22080EE926000EE4
:1017B000EA22EF6ADF50B50DF3CFE9FFF4CFEAFF7D
:1017C000000EE926020EEA220A0EE926000EEA229F
:1017D000EF6A9D90DF50B50DF3CFE9FFF4CFEAFF3C
:1017E000000EE926020EEA22090EE926000EEA2280
:1017F000010EEF6E9D80DF2A3ED4050EE15C02E211
:10180000E16AE552E16EE552E7CFD9FF1200D9CF88
:10181000E6FFE1CFD9FF040EE12683908392839403
:1018200083968398839A839C839E020EDB6A030EC1
:10183000F36E020EDBCFF4FFF350F45C01E390D0C3
:10184000030EDB6A020EDB50B50DF3CFE9FFF4CFD8
:10185000EAFF000EE926020EEA22020EE926000E39
:10186000EA22EF50F36E030EDBCFF4FFF350F45C8B
:1018700074E2020EDB50B50DF3CFE9FFF4CFEAFFBF
:10188000000EE926020EEA220D0EE926000EEA22DB
:10189000E9CF18F0EACF19F0020EDB50B50DF3CF07
:1018A000E9FFF4CFEAFF000EE926020EEA220C0E51
:1018B000E926000EEA22EF50380D1850F324166E78
:1018C0001950F420176E04011F51080D1650F3240F
:1018D000146E1750F420156E030EDB500F01142404
:1018E000E96E000E1520EA6EEFCFDFFF030EDBCFAF
:1018F000E6FF020EDB50B50DF3CFE9FFF4CFEAFFB0
:10190000000EE926020EEA22EE52EF50E552E724DD
:10191000E76E010EE7CFDBFF400EF36E010EDBCF6B
:10192000F4FFF350F45C0AE3800E146E010EDBCF7B
:10193000E7FF1450E726010EE7CFDBFF010EDB5077
:10194000846EDF1C806E8590080EE66E53EC2CF0E2
:10195000E5528580030EDB2A75D7020EDB2A67D796
:1019600004011F51070A4EE0010A43E0030A38E070
:10197000010A2DE0070A22E0010A17E0030A0CE041
:10198000010A01E048D083808392839483968398F0
:10199000839A839C839E40D0839083828394839692
:1019A0008398839A839C839E37D083908392838489
:1019B00083968398839A839C839E2ED08390839270
:1019C000839483868398839A839C839E25D0839077
:1019D0008392839483968388839A839C839E1CD06E
:1019E00083908392839483968398838A839C839E37
:1019F00013D083908392839483968398839A838C65
:101A0000839E0AD083908392839483968398839A4B
:101A1000839C838E01D000D004011F2B04011F5131
:101A2000070857E204011F6B020EDB6A030EF36E18
:101A3000020EDBCFF4FFF350F45C4BE2020EDB50FE
:101A4000B50DF3CFE9FFF4CFEAFF000EE926020E51
:101A5000EA22090EE926000EEA22EF0437E1020E1F
:101A6000DB50B50DF3CFE9FFF4CFEAFF000EE92616
:101A7000020EEA220C0EE926000EEA22EF5002E1E5
:101A8000010E01D0000EE66E020EDB50B50DF3CF55
:101A9000E9FFF4CFEAFF000EE926020EEA220C0E5F
:101AA000E926000EEA22E552E750EF6E020EDB5007
:101AB000B50DF3CFE9FFF4CFEAFF000EE926020EE1
:101AC000EA22090EE926000EEA22EF6A020EDB2A5C
:101AD000ADD7040EE15C02E2E16AE552E16EE55247
:101AE000E7CFD9FF1200D9CFE6FFE1CFD9FF400EF3
:101AF000F36EFE0EDBCFF4FFF350F45C0AE3800ECE
:101B0000146EFE0EDBCFE7FF1450E726FE0EE7CF84
:101B1000DBFF8580FE0EDB50846EFD0EDB50806E99
:101B20008590500EE66E53EC2CF0E5528580E55220
:061B3000E7CFD9FF12000F
:0A1B3600D9CFE6FFE1CFD9FF040E7E
:101B4000E126020EDB6AFB0EDBCFE9FFFC0EDBCFEA
:101B5000EAFF050EEE1801E1ED5054E1010EE76ECB
:101B6000FD0EDBCFE9FFFE0EDBCFEAFFE750E926F3
:101B7000000EEA22EF50000EF350DE6EDD6A020E18
:101B8000E76EFD0EDBCFE9FFFE0EDBCFEAFFE7508D
:101B9000E926000EEA22EF50DF12DF2A010E01E3F0
:101BA000DB2A010EE66E010EE66EE66ADECFE6FF88
:101BB000DDCFE6FF030EE76EFD0EDBCF14F0FE0E69
:101BC000DBCF15F0E7501426000E152214C0E6FFF7
:101BD00015C0E6FF4CEC1CF0166E070EE15E1650C9
:101BE000E76E030EE7CFDBFF030EDB500AE0030EC8
:101BF000DBCFE6FF93EC20F0E552E76E020EE7CF75
:101C0000DBFF05D0030EF36E020EF3CFDBFF020EF7
:101C1000DB5000D0146E040EE15C02E2E16AE55292
:101C2000E16E1450E552E7CFD9FF1200D9CFE6FF9D
:101C3000E1CFD9FF070EE126050EDB6AFB0EDBCFF5
:101C4000E9FFFC0EDBCFEAFFEECF14F0EFCF15F08B
:101C5000060E145C000E155801E2D9D0010EE76E95
:101C6000FD0EDBCFE9FFFE0EDBCFEAFFE750E926F2
:101C7000000EEA22EF50DE6EDD6AD9CFE9FFDACF3F
:101C8000EAFFEE50ED6EEF6A020EE76EFD0EDBCF5F
:101C9000E9FFFE0EDBCFEAFFE750E926000EEA225D
:101CA000EF50DF12DF2A010E01E3DB2A030EE76E9D
:101CB000FD0EDBCFE9FFFE0EDBCFEAFFE750E926A2
:101CC000000EEA22EF50E66ED950020FE96EDACF2D
:101CD000EAFFE552E750EE6EED6AD950020FE96E69
:101CE000DACFEAFFEE50ED6EEF6A040EE76EFD0EFE
:101CF000DBCFE9FFFE0EDBCFEAFFE750E926000E5F
:101D0000EA22EF50146E156AD950020FE96EDACF4D
:101D1000EAFF1450EE121550ED12050EE76EFD0E9F
:101D2000DBCFE9FFFE0EDBCFEAFFE750E926000E2E
:101D3000EA22040EEFCFDBFF020EDBCF14F0030E1E
:101D4000DBCF15F0010E145C000E15585AE3D95084
:101D5000020FE96EDACFEAFF780ED880EE54000E5B
:101D6000ED544FE3020E086E096A020EDBCF0DF050
:101D7000030EDBCF0EF072EC2BF00650F36E040E68
:101D8000DB50F35C3EE1010EE66E020EDBCFE6FFB8
:101D9000030EDBCFE6FFDECFE6FFDDCFE6FF060E6C
:101DA000E76EFD0EDBCF14F0FE0EDBCF15F0E75033
:101DB0001426000E152214C0E6FF15C0E6FF4CECF9
:101DC0001CF0166E070EE15E1650E76E060EE7CFAA
:101DD000DBFF060EDB500BE0060EDBCFE6FF93ECDD
:101DE00020F0E552E76E050EE7CFDBFF09D0FB0ED2
:101DF000DBCFE9FFFC0EDBCFEAFF050EEE6EED6AEE
:101E000005D0030EF36E050EF3CFDBFF05D0030EF6
:101E1000F36E050EF3CFDBFF050EDB5000D0146E22
:101E2000070EE15C02E2E16AE552E16E1450E55210
:101E3000E7CFD9FF1200D9CFE6FFE1CFD9FF080ED7
:101E4000E126060EDB6AFB0EDBCFE9FFFC0EDBCFE3
:101E5000EAFF050EEE1801E1ED5001E006D1010E9A
:101E6000E76EFD0EDBCFE9FFFE0EDBCFEAFFE750AA
:101E7000E926000EEA22EF50DE6EDD6AD9CFE9FFD7
:101E8000DACFEAFFEE50ED6EEF6A020EE76EFD0E5E
:101E9000DBCFE9FFFE0EDBCFEAFFE750E926000EBD
:101EA000EA22EF50DF12DF2A010E01E3DB2A030EE4
:101EB000E76EFD0EDBCFE9FFFE0EDBCFEAFFE7505A
:101EC000E926000EEA22EF50E66ED950020FE96EC5
:101ED000DACFEAFFE552E750EE6EED6AD950020F15
:101EE000E96EDACFEAFFEE50ED6EEF6A040EE76EB0
:101EF000FD0EDBCFE9FFFE0EDBCFEAFFE750E92660
:101F0000000EEA22EF50E66ED950020FE96EDACFEA
:101F1000EAFFE552E750EE6EED6A020EDBCF14F0F9
:101F2000030EDBCF15F0010E145C000E155801E214
:101F300096D0D950020FE96EDACFEAFF7D0ED88035
:101F4000EE54000EED5401E28AD0FD0EDBCF08F016
:101F5000FE0EDBCF09F0040E08C0DBFF050E09C042
:101F6000DBFFFB0EDBCFE9FFFC0EDBCFEAFFEE6A07
:101F7000ED6A040EDBCFE9FFDB2A050EDBCFEAFFBB
:101F800001E3DB2A030EEF6EFB0EDBCFE9FFFC0E55
:101F9000DBCFEAFFEE2A000EED22020E086E096A80
:101FA000020EDBCF0DF0030EDBCF0EF072EC2BF048
:101FB0000650E66E040EDBCFE9FFDB2A050EDBCF11
:101FC000EAFF01E3DB2AE552E750EF6EFB0EDBCFC1
:101FD000E9FFFC0EDBCFEAFFEE2A000EED22E66AF7
:101FE000020EDBCFE6FF030EDBCFE6FFDECFE6FF20
:101FF000DDCFE6FF040EDBCFE6FF050EDBCFE6FF0D
:102000004CEC1CF0146E070EE15E1450E76E070EE8
:10201000E7CFDBFF070EDB500BE0070EDBCFE6FF61
:1020200093EC20F0E552E76E060EE7CFDBFF16D00B
:10203000020EDBCF14F0030EDBCF15F0010ED890AB
:1020400014361536E806FBE1FB0EDBCFE9FFFC0E8C
:10205000DBCFEAFF1450EE261550ED2205D0030E1B
:10206000F36E060EF3CFDBFF05D0030EF36E060E04
:10207000F3CFDBFF060EDB5000D0146E080EE15CE0
:1020800002E2E16AE552E16E1450E552E7CFD9FF72
:102090001200D9CFE6FFE1CFD9FF0D0EE1260B0EDE
:1020A000DB6AFB0EDBCFE9FFFC0EDBCFEAFFEECFF6
:1020B00014F0EFCF15F00A0E145C000E155801E273
:1020C000D4D1010EE76EFD0EDBCFE9FFFE0EDBCFB4
:1020D000EAFFE750E926000EEA22EF50000EF35027
:1020E000DE6EDD6A020EE76EFD0EDBCFE9FFFE0E4F
:1020F000DBCFEAFFE750E926000EEA22EF50DF12BD
:10210000DF2A010E01E3DB2A030EE76EFD0EDBCFB3
:10211000E9FFFE0EDBCFEAFFE750E926000EEA22D8
:10212000EF50000EF350E66ED950020FE96EDACF91
:10213000EAFFE552E750EE6EED6A040EE76EFD0E23
:10214000DBCFE9FFFE0EDBCFEAFFE750E926000E0A
:10215000EA22EF50146E156AD950020FE96EDACFF9
:10216000EAFF1450EE121550ED12050EE76EFD0E4B
:10217000DBCFE9FFFE0EDBCFEAFFE750E926000EDA
:10218000EA22EF50000EF350E66ED950040FE96ECC
:10219000DACFEAFFE552E750EE6EED6A060EE76E23
:1021A000FD0EDBCFE9FFFE0EDBCFEAFFE750E926AD
:1021B000000EEA22EF50146E156AD950040FE96E32
:1021C000DACFEAFF1450EE121550ED12040EDB2A9E
:1021D000050E01E3DB2A070EE76EFD0EDBCFE9FFFC
:1021E000FE0EDBCFEAFFE750E926000EEA22EF50B1
:1021F000000EF350E66ED950060FE96EDACFEAFF13
:10220000E552E750EE6EED6A080EE76EFD0EDBCF8D
:10221000E9FFFE0EDBCFEAFFE750E926000EEA22D7
:10222000EF50146E156AD950060FE96EDACFEAFF47
:102230001450EE121550ED12090EE76EFD0EDBCFB5
:10224000E9FFFE0EDBCFEAFFE750E926000EEA22A7
:10225000080EEFCFDBFF020EDBCF14F0030EDBCF57
:1022600015F0010E145C000E155801E2F9D0D9509A
:10227000020FE96EDACFEAFF7D0ED880EE54000E31
:10228000ED5401E2EDD0060EDBCF16F0070EDBCFEA
:1022900017F0010E165C000E175801E2E1D0D9507C
:1022A000060FE96EDACFEAFF790ED880EE54000E01
:1022B000ED5401E2D5D0020E086E096A060EDBCF9E
:1022C0000DF0070EDBCF0EF072EC2BF006C018F00D
:1022D00007C019F0080EDB501A6E1B6A1A50181846
:1022E00002E11B50191801E0BBD0010EE66E060E8C
:1022F000DBCFE6FF070EDBCFE6FF040EDBCFE6FF0A
:10230000050EDBCFE6FF0A0EE76EFD0EDBCF14F005
:10231000FE0EDBCF15F0E7501426000E152214C078
:10232000E6FF15C0E6FF4CEC1CF0166E070EE15EF2
:102330001650E76E0C0EE7CFDBFF0C0EDB5001E012
:1023400081D0FD0EDBCF08F0FE0EDBCF09F0090EC9
:1023500008C0DBFF0A0E09C0DBFFFB0EDBCFE9FF85
:10236000FC0EDBCFEAFFEE6AED6A090EDBCFE9FF78
:10237000DB2A0A0EDBCFEAFF01E3DB2A170EEF6E42
:10238000FB0EDBCFE9FFFC0EDBCFEAFFEE2A000EEF
:10239000ED22020E086E096A020EDBCF0DF0030E6D
:1023A000DBCF0EF072EC2BF00650E66E090EDBCFA1
:1023B000E9FFDB2A0A0EDBCFEAFF01E3DB2AE55265
:1023C000E750EF6EFB0EDBCFE9FFFC0EDBCFEAFF41
:1023D000EE2A000EED22E66A020EDBCFE6FF030EC8
:1023E000DBCFE6FFDECFE6FFDDCFE6FF090EDBCF7A
:1023F000E6FF0A0EDBCFE6FF4CEC1CF0146E070E76
:10240000E15E1450E76E0C0EE7CFDBFF0C0EDB50E5
:1024100019E1020E086E096A020EDBCF0DF0030E01
:10242000DBCF0EF072EC2BF006C014F007C015F0F5
:10243000FB0EDBCFE9FFFC0EDBCFEAFF1450EE26EC
:102440001550ED220C0EDB500AE00C0EDBCFE6FF40
:1024500093EC20F0E552E76E0B0EE7CFDBFF05D0E3
:10246000030EF36E0B0EF3CFDBFF0B0EDB5000D031
:10247000146E0D0EE15C02E2E16AE552E16E145069
:08248000E552E7CFD9FF12007D
:08248800D9CFE6FFE1CFD9FF37
:10249000E652DF6AFD0EDB5013E0010EF36EFD0E17
:1024A000DBCFF4FFF350F45C0BE3FD0EDB50146E56
:1024B000156A153404E21450F708000E155403E2AF
:1024C000020EDF6E6BD0FD0EDBCF2EF1FE0EDB5069
:1024D00001E053D00101340E336F320E346F01012D
:1024E000356B0101500E366F320E376F0101386BBC
:1024F0000101480E306F330E316F0101326B010163
:10250000660E396F320E3A6F01013B6B01013C6B75
:102510003D6B3E6B0101620E3F6F340E406F010157
:10252000416B0101340E426F350E436F0101446B64
:102530000101C80E456F350E466F0101476BF70E5E
:10254000DBCFE6FFD950F80FE96EFF0EDA20EA6E16
:10255000EECFE6FFEECFE6FFEECFE6FFEFCFE6FFF2
:10256000FC0EDBCFE6FF2EC1E6FF78EC18F0146E10
:10257000070EE15E1450DF6E02D0020EDF6EDF50F8
:102580000DE1BCEC2AF0000903E1030EDF6E06D07A
:10259000FE0EDBCF2FF10F01010E006FDF5000D0D8
:1025A000E552E552E7CFD9FF1200D9CFE6FFE1CFE0
:1025B000D9FF030EE126146AFE0EDB50145C01E322
:1025C000ECD0FE0EDB507F0801E2E7D0F29EFB0E5E
:1025D000DBCF14F0FC0EDBCF15F0FD0EDBCF16F0D9
:1025E00014501510161001E18BD0DE6ADD6ADECFC3
:1025F00014F0DDCF15F0D890155004E6100E145CE1
:10260000000E15586CE2DECFE9FFDDCFEAFFD8906F
:10261000E936EA36D890E936EA36010EE9260F0E99
:10262000EA22EECF14F0EECF15F0EECF16F0EFCF9A
:1026300017F0000115501610171022E0FB0EDBCF2B
:1026400018F0FC0EDBCF19F0FD0EDBCF1AF0DECF59
:10265000E9FFDDCFEAFFD890E936EA36D890E936CF
:10266000EA36010EE9260F0EEA22EE52EE50181855
:1026700006E1EE50191803E1EE501A1800E12AE1C4
:10268000DECFE9FFDDCFEAFFD890E936EA36D89011
:10269000E936EA36010EE9260F0EEA22FE0EDBCFFE
:1026A000EFFFDECFE9FFDDCFEAFFD890E936EA366B
:1026B000D890E936EA36010EE9260F0EEA22EE52EC
:1026C000FB0EDBCFEEFFFC0EDBCFEEFFFD0EDBCF14
:1026D000EEFF05D0DF2A010E01E3DB2A88D7D9CF30
:1026E000E9FFDACFEAFF100EEE1801E1ED5002E04B
:1026F000000E01D0040EE76E020EE7CFDBFF4BD0D9
:10270000DE6ADD6ADECF14F0DDCF15F0D89015500B
:1027100004E6100E145C000E15583BE2DECFE9FF14
:10272000DDCFEAFFD890E936EA36D890E936EA36C6
:10273000010EE9260F0EEA22EFCF14F0FE0EDB5059
:10274000145C22E1DECFE9FFDDCFEAFFD890E93665
:10275000EA36D890E936EA36010EE9260F0EEA226B
:10276000EF6ADECFE9FFDDCFEAFFD890E936EA363F
:10277000D890E936EA36010EE9260F0EEA22EE522B
:10278000EE6AEE6AEE6A05D0DF2A010E01E3DB2A6B
:10279000B9D7020EDB6AF28E05D0020EF36E020E7E
:1027A000F3CFDBFF020EDB5000D0146E030EE15CB2
:1027B00002E2E16AE552E16E1450E552E7CFD9FF3B
:1027C0001200D9CFE6FFE1CFD9FFE652DF6A0F0151
:1027D00000050FE101013C513D113E1109E007D018
:1027E0003EC1FBFF3DC1FAFF01013C51F96EF8DF2C
:1027F00002D0060EDF6EDF5000D0E552E552E7CF83
:10280000D9FF1200D9CFE6FFE1CFD9FFE652DF6A48
:102810000F0100050CE107D035C1FBFF34C1FAFF01
:1028200001013351F96EF8DF0F01006B02D0060E83
:10283000DF6EDF5000D0E552E552E7CFD9FF12003E
:10284000D9CFE6FFE1CFD9FFE6520F0100510EE1EB
:1028500007D038C1FBFF37C1FAFF01013651F96ECD
:10286000F8DF0F01010E006FDF6A07D00F010005CE
:1028700002E1DF6A02D0060EDF6EDF5000D0E552C3
:10288000E552E7CFD9FF1200D9CFE6FFE1CFD9FF5C
:10289000040EE126020EDB6A0F01005102E0060E73
:1028A0000BD1D950030FE66E000EDA20E66ED1ECA4
:1028B0002AF0E552E552010801E0FCD0030EDB509E
:1028C000030A01E1F6D0010A34E0030A04E0010A38
:1028D00001E0F0D0EFD0520EE66E010EE66E4E0E25
:1028E000E66E010EE66E500EE66E010EE66E07D045
:1028F0003BC1FBFF3AC1FAFF01013951F96EF8DF24
:10290000146E060EE15E1450E76E020EE7CFDBFF99
:10291000020EDB500DE101012E510101505D03E07B
:102920000101505105E1020EE66EC1EC2AF0E552BC
:10293000C1D04EC1E9FF4FC1EAFFEFCF51F1010114
:10294000010E546FDE6ADD6ADECF14F0DDCF15F0C4
:10295000D890155004E6100E145C000E155857E27E
:10296000DECFE9FFDDCFEAFFD890E936EA36D8902E
:10297000E936EA36010EE9260F0EEA22EF5002E1AF
:1029800046D040D0DECFE9FFDDCFEAFFD890E93670
:10299000EA36D890E936EA36010EE9260F0EEA2229
:1029A000EF500101515D2EE1DECFE9FFDDCFEAFFFF
:1029B000D890E936EA36D890E936EA36010EE926AB
:1029C0000F0EEA22EECF14F0EECF15F0EECF16F098
:1029D000EFCF17F0520EE66E010EE66E4EC1E6FF27
:1029E0004FC1E6FF07D017C0FBFF16C0FAFF00017A
:1029F0001550F96EF8DFE552E552E552E552010156
:102A0000546F05D0DF2A010E01E3DB2A9DD70101B7
:102A100050514EE00101545130E00101526B536BB3
:102A2000800E01015111E66E010152C114F053C133
:102A300015F0522B000E5323010101014E511424B5
:102A4000E96E010101014F511520EA6EE552E75090
:102A5000EF6E010152C114F053C115F0522B000E5C
:102A60005323010101014E511424E96E01010101BA
:102A70004F511520EA6E54C1EFFF52C1E6FF53C11A
:102A8000E6FF4EC1E6FF4FC1E6FF2EC1E6FF07D0CD
:102A900032C1FBFF31C1FAFF01013051F96EF8DF9D
:102AA000146E050EE15E1450E76E020EE7CFDBFFF9
:102AB00001D000D0000E00D0146E040EE15C02E2E2
:102AC000E16AE552E16E1450E552E7CFD9FF1200FA
:102AD000D9CFE6FFE1CFD9FF090EE126070EDB6A69
:102AE000FB0EDBCFE9FFFC0EDBCFEAFF050EEE1895
:102AF00001E1ED5001E013D1010EE76EFD0EDBCFD9
:102B0000E9FFFE0EDBCFEAFFE750E926000EEA22DE
:102B1000EF50000EF350DE6EDD6A020EE76EFD0E22
:102B2000DBCFE9FFFE0EDBCFEAFFE750E926000E20
:102B3000EA22EF50DF12DF2A010E01E3DB2A030E47
:102B4000E76EFD0EDBCFE9FFFE0EDBCFEAFFE750BD
:102B5000E926000EEA22EF50000EF350E66ED9503F
:102B6000020FE96EDACFEAFFE552E750EE6EED6A4A
:102B7000040EE76EFD0EDBCFE9FFFE0EDBCFEAFFB2
:102B8000E750E926000EEA22EF50146E156AD9507C
:102B9000020FE96EDACFEAFF1450EE121550ED1273
:102BA000020EDBCF14F0030EDBCF15F0010E145C28
:102BB000000E155801E2ADD0020EDBCF16F0030E69
:102BC000DBCF17F0D00E165C070E175801E3A1D02B
:102BD000FD0EDBCF08F0FE0EDBCF09F0050E08C0BE
:102BE000DBFF060E09C0DBFFFB0EDBCFE9FFFC0EAF
:102BF000DBCFEAFFEE6AED6A050EDBCFE9FFDB2AE9
:102C0000060EDBCFEAFF01E3DB2A010EEF6EFB0EBF
:102C1000DBCFE9FFFC0EDBCFEAFFEE2A000EED2250
:102C2000020EDB50070B16E0020EDBCF14F0030E92
:102C3000DBCF15F0030E0F0B05E0D89015321432E0
:102C4000E806FBE1010E1426000E1522040E14C046
:102C5000DBFF12D0080E146E156A020EDBCF08F0EF
:102C6000030EDBCF09F014C00DF015C00EF000EC20
:102C70002CF0040E08C0DBFF050EDBCFE9FFDB2ADA
:102C8000060EDBCFEAFF01E3DB2A040EDBCFEFFF0A
:102C9000FB0EDBCFE9FFFC0EDBCFEAFFEE2A000ED6
:102CA000ED22E66A020EDBCFE6FF030EDBCFE6FF86
:102CB000DECFE6FFDDCFE6FF050EDBCFE6FF060E3B
:102CC000DBCFE6FFEFEC1CF0146E070EE15E145054
:102CD000E76E080EE7CFDBFF080EDB500BE0080EB7
:102CE000DBCFE6FF93EC20F0E552E76E070EE7CF6F
:102CF000DBFF0ED0040EDB50146E156AFB0EDBCF2B
:102D0000E9FFFC0EDBCFEAFF1450EE261550ED2252
:102D100005D0030EF36E070EF3CFDBFF05D0030ED5
:102D2000F36E070EF3CFDBFF070EDB5000D0146EFF
:102D3000090EE15C02E2E16AE552E16E1450E552EF
:102D4000E7CFD9FF1200D9CFE6FFE1CFD9FF060EBA
:102D5000E126040EDB6AFB0EDBCFE9FFFC0EDBCFC6
:102D6000EAFF050EEE1801E1ED5001E094D0010EEE
:102D7000E76EFD0EDBCFE9FFFE0EDBCFEAFFE7508B
:102D8000E926000EEA22EF50000EF350DE6EDD6AF7
:102D9000020EE76EFD0EDBCFE9FFFE0EDBCFEAFF92
:102DA000E750E926000EEA22EF50DF12DF2A010E7B
:102DB00001E3DB2A040EE76EFD0EDBCFE9FFFE0E1A
:102DC000DBCFEAFFE750E926000EEA22EF505DE193
:102DD000030EE76EFD0EDBCFE9FFFE0EDBCFEAFF51
:102DE000E750E926000EEA22EF50FF080EE0030E3E
:102DF000E76EFD0EDBCFE9FFFE0EDBCFEAFFE7500B
:102E0000E926000EEA22EF5040E1030EDB6A030ED2
:102E1000E76EFD0EDBCFE9FFFE0EDBCFEAFFE750EA
:102E2000E926000EEA22EF50FF0806E1010EF36EDC
:102E3000020EF3CFDBFF02D0020EDB6A010EE66E5C
:102E4000010EE66EE66ADECFE6FFDDCFE6FFD95083
:102E5000020FE66E000EDA20E66EEFEC1CF0146E48
:102E6000070EE15E1450E76E050EE7CFDBFF050E9F
:102E7000DB500AE0050EDBCFE6FF93EC20F0E552D5
:102E8000E76E040EE7CFDBFF05D0030EF36E040EF2
:102E9000F3CFDBFF05D0030EF36E040EF3CFDBFFA1
:102EA000040EDB5000D0146E060EE15C02E2E16A13
:102EB000E552E16E1450E552E7CFD9FF1200D9CFA9
:102EC000E6FFE1CFD9FF080EE126060EDB6AFB0E16
:102ED000DBCFE9FFFC0EDBCFEAFF050ED880EE5416
:102EE000000EED5401E3F0D0010EE76EFD0EDBCFD6
:102EF000E9FFFE0EDBCFEAFFE750E926000EEA22EB
:102F0000EF50000EF350DE6EDD6A020EE76EFD0E2E
:102F1000DBCFE9FFFE0EDBCFEAFFE750E926000E2C
:102F2000EA22EF50DF12DF2A010E01E3DB2A030E53
:102F3000E76EFD0EDBCFE9FFFE0EDBCFEAFFE750C9
:102F4000E926000EEA22EF50000EF350E66ED9504B
:102F5000020FE96EDACFEAFFE552E750EE6EED6A56
:102F6000040EE76EFD0EDBCFE9FFFE0EDBCFEAFFBE
:102F7000E750E926000EEA22EF50146E156AD95088
:102F8000020FE96EDACFEAFF1450EE121550ED127F
:102F9000050EE76EFD0EDBCFE9FFFE0EDBCFEAFF8D
:102FA000E750E926000EEA22040EEFCFDBFF020E07
:102FB000DB50070B16E0020EDBCF14F0030EDBCF65
:102FC00015F0030E0F0B05E0D89015321432E80609
:102FD000FBE1010E1426000E1522050E14C0DBFFC6
:102FE00012D0080E146E156A020EDBCF08F0030E25
:102FF000DBCF09F014C00DF015C00EF000EC2CF082
:10300000050E08C0DBFF020EDBCF14F0030EDBCF92
:1030100015F0010E145C000E155850E3D950020F44
:10302000E96EDACFEAFFB00ED880EE54070EED5409
:1030300045E3040EDB50F36E050EDB50F35C3EE11E
:10304000010EE66E020EDBCFE6FF030EDBCFE6FFDE
:10305000DECFE6FFDDCFE6FF060EE76EFD0EDBCF2F
:1030600014F0FE0EDBCF15F0E7501426000E1522EB
:1030700014C0E6FF15C0E6FFEFEC1CF0166E070E5D
:10308000E15E1650E76E070EE7CFDBFF070EDB5061
:103090000BE0070EDBCFE6FF93EC20F0E552E76E86
:1030A000060EE7CFDBFF09D0FB0EDBCFE9FFFC0EFE
:1030B000DBCFEAFF050EEE6EED6A05D0030EF36E70
:1030C000060EF3CFDBFF05D0030EF36E060EF3CF33
:1030D000DBFF060EDB5000D0146E080EE15C02E24E
:1030E000E16AE552E16E1450E552E7CFD9FF1200D4
:1030F000D9CFE6FFE1CFD9FF050EE126DF6A9D9A21
:10310000F80EDBCFE6FF080EE66ED950F90FE96E38
:10311000FF0EDA20EA6EEECFE6FFEECFE6FFEECF4F
:10312000E6FFEFCFE6FFFD0EDBCFE6FF9DEC22F0E2
:10313000146E070EE15E1450010803E0030EDF6E0B
:103140006AD0D950F90FE96EFF0EDA20EA6ED88006
:10315000800EEE54250EEE54000EEE54000EEE548A
:103160000FE2A30EF36E010EF3CFDBFFBB0EF36E87
:10317000020EF3CFDBFF030EDB6A040EDB6A3DD0E9
:10318000D950F90FE96EFF0EDA20EA6E600EEE18E4
:1031900006E1090EEE1803E1EE5001E1EE500FE1F9
:1031A000CF0EF36E010EF3CFDBFF710EF36E020E46
:1031B000F3CFDBFF030EDB6A040EDB6A1ED0D950AF
:1031C000F90FE96EFF0EDA20EA6E800EEE1806E1C6
:1031D000250EEE1803E1EE5001E1EE500EE1E70E90
:1031E000F36E010EF3CFDBFFB80EF36E020EF3CFDA
:1031F000DBFF030EDB6A040EDB6A010EDBCFE6FFAA
:10320000020EDBCFE6FF86EC28F0E552E55201081E
:1032100002E0030EDF6E9D8ADF5000D0146E050EB3
:10322000E15C02E2E16AE552E16E1450E552E7CF5B
:10323000D9FF12009D9A0101846BE66A010EE66EC9
:1032400082EC22F0E552E5529DEC28F09D8A1200B6
:103250009D9AE66AE66A82EC22F0E552E552A8EC15
:1032600028F09D8A1200D9CFE6FFE1CFD9FF040EE6
:10327000E126DF6A010EDB6A9D9A0001640EC85DDB
:10328000000EC95902E3050E53D00001040EC85DBB
:10329000000EC95946E3C8C0E6FFC9C0E6FF600E8C
:1032A000E66E000EE66E08EC28F0E552E552E552B7
:1032B000E552020EF3CFDBFF030EF4CFDBFFD95054
:1032C000020FE96EDACFEAFFEE50ED1029E1FD0EB4
:1032D000DBCFE9FFFE0EDBCFEAFF60C0EFFFC8C027
:1032E00014F0C9C015F01406000E155A020E145E33
:1032F000000E155AF90EDBCFE9FFFA0EDBCFEAFF1D
:1033000014C0EEFF15C0EDFFFB0EDBCFE9FFFC0E96
:10331000DBCFEAFF610EEE6E000EED6E010EDF6E8A
:1033200003D0DE52050EDD6E9D8A010EDB5000D00B
:10333000146E040EE15C02E2E16AE552E16E1450A3
:10334000E552E7CFD9FF1200D9CFE6FFE1CFD9FF91
:10335000030EE126DF6A9D9A0101840571E1FC0EEE
:10336000DBCFC4F0FD0EDBCFC5F00001010EC45F62
:10337000000EC55B010E0001C66FC76BFE0EDB5071
:10338000C4C0E9FFC5C0EAFFEF6EFA0EDBCF08F05C
:10339000FB0EDBCF09F008500001C62709500001E1
:1033A000C723C6C0E6FFC7C0E6FFC4C0E6FFC5C06E
:1033B000E6FF08EC28F0E552E552E552E552DE5210
:1033C000F3CFDEFFF4CFDDFFDD52FF0EE76E010E1F
:1033D000DBCF14F0020EDBCF15F0E7501416156AA0
:1033E0000001C6C0E9FFC7C0EAFFC62B000EC72315
:1033F000600EE926000EEA2214C0EFFF010EDBCFBB
:1034000014F0020EDBCF15F015C014F0156A0001A0
:10341000C6C0E9FFC7C0EAFFC62B000EC723600E77
:10342000E926000EEA2214C0EFFF0101010E836FAE
:10343000010EE66EE66A82EC22F0E552E55202D019
:10344000050EDF6E9D8ADF5000D0146E030EE15C26
:1034500002E2E16AE552E16E1450E552E7CFD9FF8E
:103460001200D9CFE6FFE1CFD9FF020EE126DF6AD5
:103470000101835102E0000E51D0D950010FE66ED8
:10348000000EDA20E66E24EC23F0E552E55201014D
:103490008451020A25E0030A0BE0020A06E0030A4F
:1034A00001E03AD09DEC28F037D09DEC28F034D0E4
:1034B0000001C86BC96B0001C8C0E9FFC9C0EAFFC1
:1034C000C82B000EC923600EE926000EEA22010E69
:1034D000DBCFEFFF0101020E846F9DEC28F01CD0C2
:1034E0000001640EC85D000EC95910E20001C8C099
:1034F000E9FFC9C0EAFFC82B000EC923600EE92608
:10350000000EEA22010EDBCFEFFF03D00101030E14
:10351000846F9DEC28F000D0DF5000D0146E020EB6
:10352000E15C02E2E16AE552E16E1450E552E7CF58
:10353000D9FF1200D9CFE6FFE1CFD9FFE652DF6A0B
:103540000101840502E0000E3AD001018351010A15
:103550000BE0010A01E031D0E66A010EE66E82EC72
:1035600022F0E552E55229D00001000ED880C65560
:10357000000EC75512E2C4C0E9FFC5C0EAFFEF5014
:10358000E66E09EC23F0E5520001C42B000EC523C2
:103590000001C607000EC75BE7D7030EE66EC1EC5D
:1035A0002AF0E552DF6EE66A010EE66E82EC22F04A
:1035B000E552E5520101836B00D0DF5000D0E552A7
:1035C000E552E7CFD9FF1200D9CFE6FFE1CFD9FF0F
:1035D000E652DF6A01018451030A12E0010A09E0A0
:1035E000020A01E00ED0E66AC1EC2AF0E552DF6E75
:1035F00009D0010EE66EC1EC2AF0E552DF6E02D072
:1036000001D000D0A8EC28F00101010E846FDF503A
:0C36100000D0E552E552E7CFD9FF1200D0
:04361C00D9CFE6FF1D
:10362000E1CFD9FF060EE126010EDB6A4B0EF36EE9
:10363000020EF3CFDBFF010EF36E030EF3CFDBFFC1
:10364000040EDB6AE66A010EDBCF14F0020EDBCF5C
:1036500015F0166A176A14C0E6FF15C0E6FF16C01B
:10366000E6FF17C0E6FFE66A030EDBCFE6FFE66A79
:1036700044EC12F0186E080EE15E1850E76E050E6D
:10368000E7CFDBFF02EC14F0E76E050EE7CFDBFFC0
:10369000DF6A210EDF5C13E2DF50EA6A0D0FE96E8C
:1036A000010EEA22EF50E66EDF50EA6ADF0FE96EA4
:1036B000000EEA22E552E750EF6EDF2AEAD7E66A0B
:1036C00013EC07F0E5520101076B0101080E086FCA
:1036D0000101080E0B6F0101DF0E096F000E0A6F6A
:1036E00001010C6B070EE66E010EE66EE66AC8EC91
:1036F00001F0E552E552E552010EE66E13EC07F0DB
:10370000E5520101080E076F0101080E086F010163
:10371000080E0B6F0101E70E096F000E0A6F010121
:103720000C6B070EE66E010EE66E010EE66EC8EC3F
:1037300001F0E552E552E552020EE66E13EC07F099
:10374000E5520101100E076F0101080E086F01011B
:10375000080E0B6F0101EF0E096F000E0A6F0101D9
:103760000C6B070EE66E010EE66E020EE66EC8ECFE
:1037700001F0E552E552E552060EE15C02E2E16A33
:10378000E552E16EE552E7CFD9FF12001200D9CF22
:10379000E6FFE1CFD9FF030EE126FD0EDBCFE9FF07
:1037A000FE0EDBCFEAFF010EEFCFDBFF020EDB6A7E
:1037B000010EDB50800A01E04AD00001010EDE6FED
:1037C000010EE76EFD0EDBCF14F0FE0EDBCF15F021
:1037D000E7501426000E152214C0E6FF15C0E6FFC0
:1037E000CA0EE66E000EE66E46EC29F0E552E55292
:1037F000E552E552E66A13EC07F0E5520101076B6A
:103800000101080E086FCA0EE66E000EE66E67EC48
:1038100029F0E552E552F3CF0BF10101CA0E096F11
:10382000000E0A6F01010C6B070EE66E010EE66ECC
:10383000E66AC8EC01F0E552E552E552FB0EDBCF3B
:10384000E9FFFC0EDBCFEAFF800EEF6E01D000D067
:10385000020EDB5000D0146E030EE15C02E2E16A5E
:10386000E552E16E1450E552E7CFD9FF1200D9CFEF
:10387000E6FFE1CFD9FF030EE126DF6ADF5000D07B
:10388000146E030EE15C02E2E16AE552E16E14504F
:10389000E552E7CFD9FF1200D9CFE6FFE1CFD9FF3C
:1038A000040EE126FB0EDB50DF6E020E086E096A85
:1038B000F90EDBCF0DF0FA0EDBCF0EF072EC2BF031
:1038C000010E06C0DBFF020EDB6A030EDB6AF80E98
:1038D000DB5024E0010A01E056D0010EDB50000865
:1038E0001CE2FD0EDBCFE9FFDB2AFE0EDBCFEAFF99
:1038F00001E3DB2AEF50E66E030EDBCFF3FFDB2A9A
:10390000F350EA6ADF0FE96E000EEA22E552E75053
:10391000EF6EDF2A010EDB06E0D735D0010EDB505B
:10392000000830E2FD0EDBCFE9FFDB2AFE0EDBCF25
:10393000EAFF01E3DB2A410EEF6EFD0EDBCFE9FF6C
:10394000DB2AFE0EDBCFEAFF01E3DB2A420EEF6E3D
:10395000FD0EDBCFE9FFDB2AFE0EDBCFEAFF01E342
:10396000DB2A430EEF6EFD0EDBCFE9FFDB2AFE0EF6
:10397000DBCFEAFF01E3DB2A440EEF6EDF2A010E04
:10398000DB06CCD700D0E66A13EC07F0E552010164
:10399000076B0101030E086F0101030E0B6F01019C
:1039A000DF0E096F000E0A6F01010C6B070EE66E49
:1039B000010EE66EE66AC8EC01F0E552E552E5520A
:1039C000020EDB5000D0146E040EE15C02E2E16AEC
:1039D000E552E16E1450E552E7CFD9FF1200D9CF7E
:1039E000E6FFE1CFD9FF010E00D0E552E7CFD9FFC6
:1039F0001200D9CFE6FFE1CFD9FF010E00D0E5528A
:063A0000E7CFD9FF120020
:0A3A06000000000000000000202076
:103A100020200000200050505000000000005050B6
:103A2000F850F85050002078A07028F02000C0C84E
:103A30001020409818006090A040A8906800602076
:103A400040000000000010204040402010004020B6
:103A50001010102040000020A870A82000000020B6
:103A600020F820200000000000003010200000009E
:103A7000007C000000000000000000606000000802
:103A8000102040800000708898A8C88870002060CE
:103A9000A0202020F800708808102040F800F810BE
:103AA00020100888700010305090F8101000F88036
:103AB000F0080808F000304080F088887000F808AE
:103AC000102040404000708888708888700070889E
:103AD000887808106000006060006060000000608E
:103AE0006000602040000810204020100800000006
:103AF000F800F800000040201008102040007088F6
:103B000008102000200070880868A8A870002050C5
:103B100088F888888800F08888F08888F0007088A5
:103B2000808080887000E09088888890E000F8802D
:103B300080F08080F800F88080F0808080007088BD
:103B400080B888887800888888F888888800F82075
:103B500020202020F800381010101090600088906D
:103B6000A0C0A0908800808080808080F80088D8E5
:103B7000A8A8888888008888C8A89888880070883D
:103B8000888888887000F08888F08080800070883D
:103B90008888A8906800F08888F0A09088007880D5
:103BA00080700808F000F82020202020200088885D
:103BB000888888887000888888888850200088884D
:103BC00088A8A8A850008888502050888800888835
:103BD000885020202000F80810204080F800704015
:103BE0004040404070008850F820F82020007010BD
:103BF000101010107000205088000000000000001D
:103C000000000000F800402010000000000000004C
:103C10007008788878008080B0C88888F00000003C
:103C20007080808870000808689888887800000094
:103C30007088F8807000304840E0404040000078D4
:103C40008888780870008080B0C888888800200044
:103C5000602020207000080008080848300040401C
:103C60004850605048006020202020207000000054
:103C7000D0A8A88888000000B0C888888800000004
:103C80007088888870000000F088F0808000000054
:103C90006898780808000000B0C8808080000000A4
:103CA00070807008F0004040E04040483000000064
:103CB0008888889868000000888888502000000064
:103CC0008888A8A850000000885020508800000074
:103CD0008888780870000000F8102040F800102054
:103CE0002040202010002020202020202000201014
:103CF000100810102000002010F8102000000020F4
:103D000040F84020000030484830000000003048B3
:103D100048300000000008183878381808000404FB
:103D2000040404040400FFFFFFFFFFFFFF00000482
:103D30000400040400000080800080800000808077
:103D4000808080808000C0C0C0C0C0C0C000E0E0F3
:103D5000E0E0E0E0E000F0F0F0F0F0F0F000F8F883
:103D6000F8F8F8F8F800FCFCFCFCFCFCFC00FDFD9D
:103D7000FDFDFDFDFD002070F87070707000304892
:103D80008484844830008448303030488400007097
:103D9000487040400000003040701060000000405B
:103DA00040404078000000008005C004E003F002BD
:0E3DB000F80100000804180338027801F8003A
:023DBE00D9CF5B
:103DC000E6FFE1CFD9FF0A0EE126F90EDB50E66EE1
:103DD000D950080FE96EDACFEAFFE552E750EE6EF0
:103DE000ED6AFA0EDB50080801E2F1D0080E146EFD
:103DF000156AFB0EDBCF08F0FC0EDBCF09F014C018
:103E00000DF015C00EF000EC2CF0040E08C0DBFF26
:103E1000050E09C0DBFFFB0EDBCF16F0FC0EDBCF7F
:103E200017F0080E086E096A040EDBCF0DF0050EC0
:103E3000DBCF0EF072EC2BF00650165C146E0750C0
:103E40001758156E060E14C0DBFF070E15C0DBFFFA
:103E5000060EDBCF14F0D950080FE96EDACFEAFF77
:103E60001450E85005E0D890EE36ED36E806FBE158
:103E7000FA0EDB50166E010E165204E0E846FE0BF9
:103E80001606FCE1FF0F146E156A14BE1568020ECB
:103E900014C0DBFF030E15C0DBFFFB0EDBCF16F0FB
:103EA000FC0EDBCF17F0080E086E096A040EDBCF9C
:103EB0000DF0050EDBCF0EF072EC2BF00650165C09
:103EC000146E07501758156ED950020FE96EDACFED
:103ED000EAFF1450E85005E0D890EE36ED36E806DB
:103EE000FBE1040EDBCF14F0050EDBCF15F0FD0E69
:103EF000DB501424E96EFE0EDB501520EA6EEF5005
:103F0000DE6EDD6A010EE76E040EDBCF14F0050EE7
:103F1000DBCF15F0E7501426000E1522FD0EDB5006
:103F20001424E96EFE0EDB501520EA6EEF50000EF1
:103F3000F350DF12020EDB1C186E030EDB1C196E31
:103F4000DE501814166EDD501914176E080EDB5073
:103F50001610146E090EDB501710156E14C0DEFF1C
:103F600015C0DDFFDECF16F0DDCF17F0FF0E161601
:103F7000000E1716040EDBCF14F0050EDBCF15F084
:103F8000FD0EDB501424E96EFE0EDB501520EA6EA8
:103F900016C0EFFFDECF16F0DDCF17F017C016F01A
:103FA000176A010EE76E040EDBCF14F0050EDBCFAF
:103FB00015F0E7501426000E1522FD0EDB501424D8
:103FC000E96EFE0EDB501520EA6E16C0EFFF0A0EFA
:103FD000E15C02E2E16AE552E16EE552E7CFD9FF2A
:103FE0001200D9CFE6FFE1CFD9FF080EE126080E77
:103FF000146E156AFB0EDBCF08F0FC0EDBCF09F068
:1040000014C00DF015C00EF000EC2CF0040E08C02A
:10401000DBFF050E09C0DBFFFB0EDBCF16F0FC0E4D
:10402000DBCF17F0080E086E096A040EDBCF0DF027
:10403000050EDBCF0EF072EC2BF00650165C146E02
:1040400007501758156E060E14C0DBFF070E15C07B
:10405000DBFFFA0EDB50166E010E165204E0E84646
:10406000FE0B1606FCE1FF0F146E156A14BE1568F0
:10407000020E14C0DBFF030E15C0DBFF040EDBCF06
:1040800014F0050EDBCF15F0FD0EDB501424E96EA5
:10409000FE0EDB501520EA6EEF50DE6EDD6A010E7B
:1040A000E76E040EDBCF14F0050EDBCF15F0E75002
:1040B0001426000E1522FD0EDB501424E96EFE0EB0
:1040C000DB501520EA6EEF50000EF350DF12060EA3
:1040D000DBCF14F0D9CFE9FFDACFEAFF14500F0B92
:1040E00006E0EC52D890ED32EF32E806FAE1020E2B
:1040F000DBCF14F0030EDBCF15F0D9CFE9FFDACF19
:10410000EAFF1450EE161550ED16DF5000D0146E75
:10411000080EE15C02E2E16AE552E16E1450E552FC
:10412000E7CFD9FF1200D9CFE6FFE1CFD9FFE652A2
:10413000FE0EDB50070A0AE0060A05E0010A01E06C
:1041400008D0DF6A09D0020EDF6E06D0060EDF6EE1
:1041500003D0040EDF6E00D0DF5000D0E552E552F0
:06416000E7CFD9FF1200B9
:0A416600DACFE4FFE2CFDAFFE9CF81
:10417000E4FFEACFE4FFF6CFE4FFF7CFE4FFF5CFAB
:10418000E4FFF3CFE4FFF4CFE4FFFACFE4FF00EE67
:1041900000F0140EE80403E3EECFE4FFFBD700EEDB
:1041A00014F00A0EE80403E3EECFE4FFFBD7E65277
:1041B000F2940F014F2B000E50230F01512B000ED4
:1041C00052230F01532B000E54230F01552B000EC9
:1041D00056230F015707000E585B0F01583504E2B4
:1041E00057510008000E58550AE30F01592B000ED5
:1041F0005A235B235C23C80E0F01576F586B0F01C6
:104200004351441107E005D044CFFAFF0F01435159
:10421000F96EFADF41CFE6FF42CFE6FFC8EC2BF0A4
:10422000E552E552E55200EE1DF00A0EE80403E304
:10423000E5CFEDFFFBD700EE13F0140EE80403E327
:10424000E5CFEDFFFBD7E5CFFAFFE5CFF4FFE5CFF4
:10425000F3FFE5CFF5FFE5CFF7FFE5CFF6FFE5CFBD
:10426000EAFFE5CFE9FFE5CFDAFF1100DACFE4FF9F
:10427000E2CFDAFFE9CFE4FFEACFE4FFF6CFE4FFD5
:10428000F7CFE4FFF5CFE4FFF3CFE4FFF4CFE4FF93
:10429000FACFE4FF00EE00F0140EE80403E3EECFE3
:1042A000E4FFFBD700EE14F00A0EE80403E3EECFC0
:1042B000E4FFFBD7E6529E9045CFE6FF46CFE6FFF0
:1042C000ACEC2BF0E552E5520F014751481107E0E5
:1042D00005D048CFFAFF0F014751F96EFADFE552DA
:1042E00000EE1DF00A0EE80403E3E5CFEDFFFBD777
:1042F00000EE13F0140EE80403E3E5CFEDFFFBD767
:10430000E5CFFAFFE5CFF4FFE5CFF3FFE5CFF5FF0B
:10431000E5CFF7FFE5CFF6FFE5CFEAFFE5CFE9FF11
:10432000E5CFDAFF1100DACFE4FFE2CFDAFFE9CF21
:10433000E4FFEACFE4FFF6CFE4FFF7CFE4FFF5CFE9
:10434000E4FFF3CFE4FFF4CFE4FFFACFE4FF00EEA5
:1043500000F0140EE80403E3EECFE4FFFBD700EE19
:1043600014F00A0EE80403E3EECFE4FFFBD7E652B5
:10437000A19249CFE6FF4ACFE6FFACEC2BF0E55225
:10438000E5520F014B514C1107E005D04CCFFAFF1D
:104390000F014B51F96EFADFE55200EE1DF00A0EE7
:1043A000E80403E3E5CFEDFFFBD700EE13F0140EB6
:1043B000E80403E3E5CFEDFFFBD7E5CFFAFFE5CF58
:1043C000F4FFE5CFF3FFE5CFF5FFE5CFF7FFE5CF4E
:1043D000F6FFE5CFEAFFE5CFE9FFE5CFDAFF110011
:1043E000D9CFE6FFE1CFD9FF9F0EE66EE4EC2BF0CC
:1043F000E552FD0EDBCF41FFFE0EDBCF42FFFB0E91
:10440000DBCF43FFFC0EDBCF44FFFD0EDBCFE6FF2F
:10441000FE0EDBCFE6FFC8EC2BF0E552E552E5528D
:10442000E7CFD9FF1200D9CFE6FFE1CFD9FFC50E04
:10443000E66E32EC2BF0E552FD0EDBCFE6FFFE0E12
:10444000DBCFE6FFACEC2BF0E552E5529F80FD0E92
:10445000DBCF45FFFE0EDBCF46FFFB0EDBCF47FF7A
:10446000FC0EDBCF48FFE552E7CFD9FF1200D9CFD2
:10447000E6FFE1CFD9FFCD0EE66E11EC2BF0E55251
:10448000FD0EDBCFE6FFFE0EDBCFE6FF90EC2BF060
:10449000E552E552FD0EDBCF49FFFE0EDBCF4AFFB2
:1044A000FB0EDBCF4BFFFC0EDBCF4CFFE552E7CF23
:1044B000D9FF1200D9CFE6FFE1CFD9FF040EE126E4
:1044C000F29A59CFDFFF010E5ACFDBFF020E5BCF0E
:1044D000DBFF030E5CCFDBFFF28ADECF06F0DECF20
:1044E00007F0DECF08F0DDCF09F0DD52DD5200D05D
:1044F000040EE15C02E2E16AE552E16EE552E7CFCB
:04450000D9FF1200CD
:0C450400D9CFE6FFE1CFD9FFFE0EDB505F
:1045100002E1AB9801D0AB88FD0EDB5001E109D080
:1045200007D044C1FBFF43C1FAFF01014251F96EBC
:10453000F8DFE552E7CFD9FF1200D9CFE6FFE1CF90
:10454000D9FF050EE1263C0EDF6ED950FA0FE96E59
:10455000FF0EDA20EA6EEE2A000EEE22000EEE22A8
:10456000000EEE22D950FA0FE96EFF0EDA20EA6E45
:10457000040EE76ED890EF36010EEB36020EEB36E6
:10458000030EEB36E706F6E1146A480E156EE80EE8
:10459000166E010E176E14C006F015C007F016C097
:1045A00008F017C009F0FA0EDBCF0BF0FB0EDBCFE3
:1045B0000CF0FC0EDBCF0DF0FD0EDBCF0EF0EDECC2
:1045C0002AF0010E06C0DBFF020E07C0DBFF030E60
:1045D00008C0DBFF040E09C0DBFF010EDBCFE6FFE6
:1045E000020EDBCFE6FFDFCFE6FF7AEC2AF0E552E2
:1045F000E552E5529F8A010E00D0146E050EE15C73
:1046000002E2E16AE552E16E1450E552E7CFD9FFCC
:104610001200D9CFE6FFE1CFD9FF8686500EE66EB5
:1046200053EC2CF0E552FE0EDB50AD6EACA2FED783
:104630008696500EE66E53EC2CF0E552010E00D03B
:10464000E552E7CFD9FF1200D9CFE6FFE1CFD9FF7E
:10465000E65253EC2BF0DF6EFD0EDBCFE9FFFE0ED2
:10466000DBCFEAFFDFCFEFFF9E9A010E00D0E552CD
:10467000E552E7CFD9FF1200DACFE4FFE2CFDAFF4D
:10468000E9CFE4FFEACFE4FFF6CFE4FFF7CFE4FFA2
:10469000F5CFE4FFF3CFE4FFF4CFE4FFFACFE4FF7C
:1046A000FBCFE4FF00EE00F0140EE80403E3EECFCE
:1046B000E4FFFBD700EE14F00A0EE80403E3EECFAC
:1046C000E4FFFBD7E65207D044C1FBFF43C1FAFF2A
:1046D00001014251F96EF8DFE55200EE1DF00A0EBD
:1046E000E80403E3E5CFEDFFFBD700EE13F0140E73
:1046F000E80403E3E5CFEDFFFBD7E5CFFBFFE5CF14
:10470000FAFFE5CFF4FFE5CFF3FFE5CFF5FFE5CF07
:10471000F7FFE5CFF6FFE5CFEAFFE5CFE9FFE5CF0D
:10472000DAFF1100DACFE4FFE2CFDAFFE9CFE4FFEE
:10473000EACFE4FFF6CFE4FFF7CFE4FFF5CFE4FFE5
:10474000F3CFE4FFF4CFE4FFFACFE4FFFBCFE4FFC5
:1047500000EE00F0140EE80403E3EECFE4FFFBD715
:1047600000EE14F00A0EE80403E3EECFE4FFFBD7FB
:10477000E65207D041C1FBFF40C1FAFF01013F51A2
:10478000F96EF8DFE55200EE1DF00A0EE80403E3CF
:10479000E5CFEDFFFBD700EE13F0140EE80403E3C2
:1047A000E5CFEDFFFBD7E5CFFBFFE5CFFAFFE5CF88
:1047B000F4FFE5CFF3FFE5CFF5FFE5CFF7FFE5CF5A
:1047C000F6FFE5CFEAFFE5CFE9FFE5CFDAFF11001D
:1047D000D9CFE6FFE1CFD9FF090EE126070EDB6A4C
:1047E000FB0EDBCFE9FFFC0EDBCFEAFF050EEE1878
:1047F00001E1ED5001E012D1010EE76EFD0EDBCFBD
:10480000E9FFFE0EDBCFEAFFE750E926000EEA22C1
:10481000EF50000EF350DE6EDD6A020EE76EFD0E05
:10482000DBCFE9FFFE0EDBCFEAFFE750E926000E03
:10483000EA22EF50DF12DF2A010E01E3DB2A030E2A
:10484000E76EFD0EDBCFE9FFFE0EDBCFEAFFE750A0
:10485000E926000EEA22EF50000EF350E66ED95022
:10486000020FE96EDACFEAFFE552E750EE6EED6A2D
:10487000040EE76EFD0EDBCFE9FFFE0EDBCFEAFF95
:10488000E750E926000EEA22EF50146E156AD9505F
:10489000020FE96EDACFEAFF1450EE121550ED1256
:1048A000020EDBCF14F0030EDBCF15F0010E145C0B
:1048B000000E155801E2ACD0020EDBCF16F0030E4D
:1048C000DBCF17F0D00E165C070E175801E3A0D00F
:1048D000FD0EDBCF08F0FE0EDBCF09F0050E08C0A1
:1048E000DBFF060E09C0DBFFFB0EDBCFE9FFFC0E92
:1048F000DBCFEAFFEE6AED6A050EDBCFE9FFDB2ACC
:10490000060EDBCFEAFF01E3DB2A020EEF6EFB0EA1
:10491000DBCFE9FFFC0EDBCFEAFFEE2A000EED2233
:10492000020EDB50070B16E0020EDBCF14F0030E75
:10493000DBCF15F0030E0F0B05E0D89015321432C3
:10494000E806FBE1010E1426000E1522040E14C029
:10495000DBFF12D0080E146E156A020EDBCF08F0D2
:10496000030EDBCF09F014C00DF015C00EF000EC03
:104970002CF0040E08C0DBFF050EDBCFE9FFDB2ABD
:10498000060EDBCFEAFF01E3DB2A040EDBCFEFFFED
:10499000FB0EDBCFE9FFFC0EDBCFEAFFEE2A000EB9
:1049A000ED22020EDBCFE6FF030EDBCFE6FFDECF0C
:1049B000E6FFDDCFE6FF050EDBCFE6FF060EDBCF21
:1049C000E6FFF9EC1CF0146E060EE15E1450E76E83
:1049D000080EE7CFDBFF080EDB500BE0080EDBCF45
:1049E000E6FF93EC20F0E552E76E070EE7CFDBFF22
:1049F0000ED0040EDB50146E156AFB0EDBCFE9FF00
:104A0000FC0EDBCFEAFF1450EE261550ED2205D048
:104A1000030EF36E070EF3CFDBFF05D0030EF36E2C
:104A2000070EF3CFDBFF070EDB5000D0146E090E2C
:104A3000E15C02E2E16AE552E16E1450E552E7CF33
:044A4000D9FF120088
:0C4A4400D9CFE6FFE1CFD9FF0A0EE12632
:104A5000060EDB6AFB0EDBCFE9FFFC0EDBCFEAFFC5
:104A6000050EEE1801E1ED5001E006D1010EE76EF2
:104A7000FD0EDBCFE9FFFE0EDBCFEAFFE750E926B4
:104A8000000EEA22EF50DE6EDD6AD9CFE9FFDACF01
:104A9000EAFFEE50ED6EEF6A020EE76EFD0EDBCF21
:104AA000E9FFFE0EDBCFEAFFE750E926000EEA221F
:104AB000EF50DF12DF2A010E01E3DB2A030EE76E5F
:104AC000FD0EDBCFE9FFFE0EDBCFEAFFE750E92664
:104AD000000EEA22EF50E66ED950020FE96EDACFEF
:104AE000EAFFE552E750EE6EED6AD950020FE96E2B
:104AF000DACFEAFFEE50ED6EEF6A040EE76EFD0EC0
:104B0000DBCFE9FFFE0EDBCFEAFFE750E926000E20
:104B1000EA22EF50146E156AD950020FE96EDACF0F
:104B2000EAFF1450EE121550ED12020EDBCF14F016
:104B3000030EDBCF15F0010E145C000E155801E2D8
:104B400095D0020EDBCF16F0030EDBCF17F07D0EF3
:104B5000165C000E175801E389D0FD0EDBCF08F07C
:104B6000FE0EDBCF09F0040E08C0DBFF050E09C006
:104B7000DBFFFB0EDBCFE9FFFC0EDBCFEAFFEE6ACB
:104B8000ED6A040EDBCFE9FFDB2A050EDBCFEAFF7F
:104B900001E3DB2A040EEF6EFB0EDBCFE9FFFC0E18
:104BA000DBCFEAFFEE2A000EED22020E086E096A44
:104BB000020EDBCF0DF0030EDBCF0EF072EC2BF00C
:104BC0000650E66E040EDBCFE9FFDB2A050EDBCFD5
:104BD000EAFF01E3DB2AE552E750EF6EFB0EDBCF85
:104BE000E9FFFC0EDBCFEAFFEE2A000EED22020EFB
:104BF000DBCFE6FF030EDBCFE6FFDECFE6FFDDCF48
:104C0000E6FF040EDBCFE6FF050EDBCFE6FF37EC59
:104C10001CF0146E060EE15E1450E76E070EE7CF2F
:104C2000DBFF070EDB500BE0070EDBCFE6FF93EC5C
:104C300020F0E552E76E060EE7CFDBFF16D0020E3E
:104C4000DBCF14F0030EDBCF15F0010ED890143635
:104C50001536E806FBE1FB0EDBCFE9FFFC0EDBCFF0
:104C6000EAFF1450EE261550ED2205D0030EF36E28
:104C7000060EF3CFDBFF05D0030EF36E060EF3CF67
:104C8000DBFF060EDB5000D0146E0A0EE15C02E280
:104C9000E16AE552E16E1450E552E7CFD9FF120008
:104CA00000C1814001C0804101C0804100C18140FC
:104CB00001C0804100C1814000C1814001C08041EC
:104CC00001C0804100C1814000C1814001C08041DC
:104CD00000C1814001C0804101C0804100C18140CC
:104CE00001C0804100C1814000C1814001C08041BC
:104CF00000C1814001C0804101C0804100C18140AC
:104D000000C1814001C0804101C0804100C181409B
:104D100001C0804100C1814000C1814001C080418B
:104D200001C0804100C1814000C1814001C080417B
:104D300000C1814001C0804101C0804100C181406B
:104D400000C1814001C0804101C0804100C181405B
:104D500001C0804100C1814000C1814001C080414B
:104D600000C1814001C0804101C0804100C181403B
:104D700001C0804100C1814000C1814001C080412B
:104D800001C0804100C1814000C1814001C080411B
:104D900000C1814001C0804101C0804100C181400B
:104DA00000C0C101C30302C2C60607C705C5C404CB
:104DB000CC0C0DCD0FCFCE0E0ACACB0BC90908C83B
:104DC000D81819D91BDBDA1A1EDEDF1FDD1D1CDC2B
:104DD00014D4D515D71716D6D21213D311D1D0109B
:104DE000F03031F133F3F23236F6F737F53534F48B
:104DF0003CFCFD3DFF3F3EFEFA3A3BFB39F9F838FB
:104E000028E8E929EB2B2AEAEE2E2FEF2DEDEC2CEA
:104E1000E42425E527E7E62622E2E323E12120E05A
:104E2000A06061A163A3A26266A6A767A56564A44A
:104E30006CACAD6DAF6F6EAEAA6A6BAB69A9A868BA
:104E400078B8B979BB7B7ABABE7E7FBF7DBDBC7CAA
:104E5000B47475B577B7B67672B2B373B17170B01A
:104E6000509091519353529296565797559594540A
:104E70009C5C5D9D5F9F9E5E5A9A9B5B995958987A
:104E8000884849894B8B8A4A4E8E8F4F8D4D4C8C6A
:104E900044848545874746868242438341818040DA
:104EA000D9CFE6FFE1CFD9FFE652DF6A020EE76E07
:104EB000F90EDBCF14F0FA0EDBCF15F0E750142615
:104EC000000E1522200E145C000E15585FE2010141
:104ED000756B766B010175C1E9FF76C1EAFF752B31
:104EE000000E7623550EE926010EEA22FE0EDBCFD8
:104EF000EFFFFD0EDB5002E0FF0E01D0000EE66E6C
:104F0000010175C1E9FF76C1EAFF752B000E76231A
:104F1000550EE926010EEA22E552E750EF6ED95010
:104F2000F90FE96EFF0EDA20EA6E000ED880EE541B
:104F3000000EED542AE2F90EDBCFE6FFFA0EDBCFCE
:104F4000E6FFFB0EDBCFE6FFFC0EDBCFE6FF550EE8
:104F500001017525146E010E01017621156E14C034
:104F6000E6FF15C0E6FF01EC29F0166E060EE15EC5
:104F70001650F90EDBCF08F0FA0EDBCF09F008501F
:104F80000101752709500101762302D0040EDF6E5E
:104F9000DF5000D0E552E552E7CFD9FF1200D9CF5C
:104FA000E6FFE1CFD9FF75C1E6FF76C1E6FF550EFA
:104FB000E66E010EE66E010EE76EFD0EDBCF14F01D
:104FC000FE0EDBCF15F0E7501426000E152214C09C
:104FD000E6FF15C0E6FF01EC29F0166E060EE15E55
:104FE0001650010E0101156A7525146E76511522B1
:104FF000FB0EDBCFE9FFFC0EDBCFEAFF14C0EEFFB8
:1050000015C0EDFF000E00D0E552E7CFD9FF12002A
:10501000D9CFE6FFE1CFD9FF060EE126DF68010E0A
:10502000DB68020EDB6A030EDB6AFB0EDBCF14F0DB
:10503000DB06FC0EDBCF15F001E2DB061450151089
:1050400038E0010EDBCFE6FFFD0EDBCFE9FFDB2A08
:10505000FE0EDBCFEAFF01E3DB2AEF50E552E71853
:10506000E66ED950040FE96EDACFEAFFE552E75059
:10507000EE6EED6A040EDBCFF6FF050EDBCFF7FF19
:10508000A00EF6264C0EF7220800F550DF18E76E4A
:10509000010EE7CFDBFF040EDBCFF6FF050EDBCF03
:1050A000F7FFA00EF6264D0EF7220800F550DF6E32
:1050B000BCD7DFCF14F014C015F0146A020E14C070
:1050C000DBFF030E15C0DBFF010EDB50146E156A0B
:1050D000D950020FE96EDACFEAFF1450EE121550E4
:1050E000ED12020EDBCF14F0030EDBCF15F014C06F
:1050F000F3FF15C0F4FF00D0060EE15C02E2E16AA6
:0C510000E552E16EE552E7CFD9FF120046
:04510C00D9CFE6FF12
:10511000E1CFD9FFC50EE66E11EC2BF0E552B19050
:10512000A282FD0EDBCF5DFFFE0EDBCF5EFF010E28
:1051300000D0E552E7CFD9FF1200B1905DCFE6FF76
:105140005ECFE6FF90EC2BF0E552E552B180120005
:10515000B1901200DACFE4FFE2CFDAFFE9CFE4FF4B
:10516000EACFE4FFF6CFE4FFF7CFE4FFF5CFE4FFAB
:10517000F3CFE4FFF4CFE4FFFACFE4FFFBCFE4FF8B
:1051800000EE00F0140EE80403E3EECFE4FFFBD7DB
:1051900000EE14F00A0EE80403E3EECFE4FFFBD7C1
:1051A000E652A19207D047C1FBFF46C1FAFF0101B9
:1051B0004551F96EF8DFE55200EE1DF00A0EE804E5
:1051C00003E3E5CFEDFFFBD700EE13F0140EE80488
:1051D00003E3E5CFEDFFFBD7E5CFFBFFE5CFFAFF1C
:1051E000E5CFF4FFE5CFF3FFE5CFF5FFE5CFF7FF20
:1051F000E5CFF6FFE5CFEAFFE5CFE9FFE5CFDAFF40
:0252000011009B
:0E520200D9CFE6FFDACFE6FFFA0EE3CFD9FFF1
:10521000FB0EE3CFDAFFFC0EE3CFE9FFFD0EE3CF99
:10522000EAFFE9CFF3FFEACFF4FFF80EE35003E122
:10523000F90EE35008E0F80EE30602E2F90EE30689
:10524000DECFEEFFF2D7FF0EE3CFDAFFE552FF0E1F
:10525000E3CFD9FFE5521200FE0EE3CFE9FFFF0EC8
:10526000E3CFEAFFE9CFF3FFEACFF4FFFB0EE35011
:1052700003E1FC0EE35009E0FB0EE30602E2FC0E44
:10528000E306FD0EE350EE6EF1D71200D9CFE6FF34
:10529000DACFE6FFFA0EE3CFD9FFFB0EE3CFDAFF5A
:1052A000FC0EE3CFE9FFFD0EE3CFEAFFE9CFF3FF0A
:1052B000EACFF4FFDECFEFFFEE66FCD7FF0EE3CFC1
:1052C000DAFFE552FF0EE3CFD9FFE5521200FE0EE2
:1052D000E3CFE9FFFF0EE3CFEAFFF36AF46AEE5291
:0A52E00003E0F34AF42AFBD71200A2
:0652EA00D9CFE6FFE1CF81
:1052F000D9FF040EE126700ED36E050EDE6EDD6A58
:10530000DFCF14F0DF06010EDBCF15F001E2DB0684
:105310001450151006E0080EE66E16EC2CF0E5525F
:10532000EFD7C26A0F0EC16EB50EC06E800E9C6EB6
:105330009890869098968696989886989892988451
:10534000949C948E9496949897908580926A966A8D
:10535000846A959083909592839295948394959680
:10536000839695988398959A839A959C839C9B8C19
:10537000640EF36E020EF3CFDBFF030EDB6A020E48
:10538000DBCF14F0DB06030EDBCF15F001E2DB060A
:105390001450151006E0080EE66E16EC2CF0E552DF
:1053A000EED7040EE15C02E2E16AE552E16EE552FD
:0653B000E7CFD9FF120057
:0A53B600D9CFE6FFE1CFD9FF040EC6
:1053C000E126030EDB6A75EC29F036EC2CF095EC47
:1053D00000F00EEC1BF0000EE66EE66A7F0EE66E45
:1053E000C10EE66EF0EC21F0E552E552E552E552D1
:1053F0000E0EE66E180EE66EEF0EE66ED80EE66E38
:1054000013EC22F0E552E552E552E55215EC00F0BE
:105410000F01FA0E4F5D000E505905E339EC2CF0E8
:105420000F014F6B506B0F01140E555D000E565956
:1054300005E334EC08F00F01556B566B44EC14F0A7
:10544000E7D7040EE15C02E2E16AE552E16EE55263
:06545000E7CFD9FF1200B6
:0A545600320EF66E000EF76E000E27
:10546000F86E01010900F5507C6F0900F5507D6F61
:1054700003E17C6701D03DD00900F550776F09004A
:10548000F550786F0900F550796F09000900F55063
:10549000E96E0900F550EA6E090009000900F550AF
:1054A0007A6F0900F5507B6F09000900F6CF7EF195
:1054B000F7CF7FF1F8CF80F177C1F6FF78C1F7FF22
:1054C00079C1F8FF01017A5302E17B5307E009003B
:1054D000F550EE6E7A07F8E27B07F9D77EC1F6FF4A
:1054E0007FC1F7FF80C1F8FF01017C07000E7D5BE3
:0454F000BFD7120010
:0C54F400D9CFE6FFDACFE6FFE1CFD9FF09
:10550000E2CFDAFFAC6AAB6AFD0EDBB0AC88DBA29F
:1055100002D0AC8CAB8CDBB4AC8EDBA602D0AB88FB
:1055200001D0AB8ADBB8AC84DBBAAB86DBAC02D093
:105530009D8A01D09D9ADBAE02D09D8801D09D98B6
:10554000FB0EDB50AF6EFC0EDBCF15F015C014F078
:10555000156A14507F6EAC8AAB8E949C948EAC50BE
:10556000100B04E0AC50800B01E1948CE552E5CFC8
:08557000DAFFE7CFD9FF1200BA
:085578000101826B010E00D05D
:105580001200D9CFE6FFE1CFD9FF0101010E826FF2
:10559000FE0EDBCF81F1010E00D0E552E7CFD9FF3F
:1055A0001200D9CFE6FFE1CFD9FFE652DF6A010151
:1055B00082510CE0FD0EDBCFE9FFFE0EDBCFEAFFF0
:1055C00081C1EFFF0101826B010EDF6EDF5000D061
:0A55D000E552E552E7CFD9FF1200C3
:0655DA00056A046A036A81
:1055E000026A200EE76ED89006360736083609366E
:1055F00002360336043605360B50025C0C50035855
:105600000D5004580E50055809E30B50025E0C5023
:10561000035A0D50045A0E50055A062AE72EE4D7B5
:02562000120076
:0E562200D9CFE6FFDACFE6FFE1CFD9FFE2CF26
:10563000DAFFFD0EDB50360BB16EB36AB26AA1928F
:10564000FD0EDBAE02D0A08201D0A092DBA002D082
:10565000B18E01D0B19EB180E552E5CFDAFFE7CF40
:04566000D9FF12005C
:0C566400D9CFE6FFDACFE6FFE1CFD9FF97
:10567000E2CFDAFFFD0EDB507E0BCD6EFD0EDBAC14
:1056800002D0CD8E01D0CD9ECF6ACE6A9E90DBAE89
:1056900002D09D8001D09D90CD80E552E5CFDAFF0C
:0656A000E7CFD9FF120064
:0A56A600D9CFE6FFDACFE6FFE1CF2F
:1056B000D9FFE2CFDAFFE652F20E0F015F17ABAC73
:1056C00003D05F91ABB05F81ABB45F85ABB25F8756
:1056D000AE50DF6EDF50E552E552E5CFDAFFE7CF9F
:0456E000D9FF1200DC
:0C56E40008C012F008500D02F4CF07F0CF
:1056F000F3CF06F009500E02F4CF09F0F3CF08F013
:105700000D02F3500726F4500822E86A09221250CD
:105710000E02F3500726F4500822E86A0922000C12
:10572000D9CFE6FFDACFE6FFE1CFD9FFE2CFDAFF4C
:10573000E652E652FC0EDBCFDEFFDBCFDDFF010ED3
:10574000DB50B36EDF50B26EE552E552E552E5CF65
:08575000DAFFE7CFD9FF1200D8
:08575800D9CFE6FFDACFE6FF2E
:10576000E1CFD9FFE2CFDAFFE652E652FC0EDBCF03
:10577000DEFFDBCFDDFF010EDB50CF6EDF50CE6EE4
:10578000E552E552E552E5CFDAFFE7CFD9FF120047
:10579000D9CFE6FFDACFE6FFE1CFD9FFE2CFDAFFDC
:1057A000E652E652FC0EDBCFDEFFDBCFDDFF010E63
:1057B000DB50D76EDF50D66EE552E552E552E5CFAD
:0857C000DAFFE7CFD9FF120068
:0857C800D9CFE6FFDACFE6FFBE
:1057D000E1CFD9FFE2CFDAFFFD0EDB507F0BD56EB4
:1057E000D76AD66AF294FD0EDBAE02D0F28A01D0FF
:1057F000F29AD58EE552E5CFDAFFE7CFD9FF120056
:10580000056A046A100EE76ED89008360936043629
:1058100005360D50045C0E50055805E30D50045E2E
:0C5820000E50055A082AE72EF0D712009F
:04582C00FF0EE35038
:105830001E6E480E01D04C0EE76EE72EFED7E76ACB
:0C584000E72EFED71E2EF7D70000120046
:04584C00600EF36E89
:1058500000EE00F00F0E01D81200EA6002D0EE6AEE
:0C586000FCD7F350E9601200EE6AFCD7A0
:04586C000101866B45
:1058700012000101860504E10101866B869004D0C7
:0A5880000101010E866F8680120000
:06588A001EEE00F02EEE00
:1058900000F0F86A019C2BEC2AF003EC00F0DBEC42
:0658A00029F0FBD7120005
:0A58A600FF0EE350E84E1200000070
:0C58B00000D000D000D0E82EFAD7120083
:0458BC0000000000E8
:1058C00000000000000000000000000000000000D8
:1058D00000000000000000000000000000000000C8
:1058E00000000000000000000000000000000000B8
:1058F00000000000000000000000000000000000A8
:045ADC0000000000C6
:105AE00000000000000000000000000000000000B6
:105AF00000000000000000000000000000000000A6
:105B00000000000000000000000000000000000095
:105B10000000000000000000000000000000004144
:105B200042434445464748494A4B4C4D4E4F5051DD
:105B300052535455565758595A313233343536002A
:105B40000000000000000000000000000000000055
:0C5B5000000000000000C8000000000081
:025B5C00000047
:025B5E00021132
:105B60009E4F0004444A0003361E00102C1C000601
:105B7000361B001792200001D02A0005462D000F89
:105B8000BE2E0002D0470000000000000000000010
:0F5B900000000000000000000000000000000006
:015B9F000005
:020000040030CA
:0100010008F6
:010002001BE2
:0100030012EA
:01000400F308
:010005008377
:010006008178
:01000800F106
:010009008076
:01000A00FFF6
:01000B00E014
:01000C00FFF4
:01000D0040B2
:00000001FF
