:020000040000FA
:06000000FBEF30F01200DE
:020006001200E6
:08000800F2A402D081EF23F005
:100010009EA002D004EF24F09EAA02D0F3EF27F0B6
:10002000A1A202D0B0EF2DF01200D08EF28EF28C91
:020030001200BC
:0E0032000600D76C0000650100000100000010
:10004000966C0000CA00000041000000946C0000A3
:100050006201000002000000786C0000430F000005
:100060001C000000356C0000000F00004300000081
:0C00700028620000000200000D0A0000E1
:04007C00D9CFE6FFF3
:10008000E1CFD9FFE652FE0EDBCFE6FF010EF36EA5
:10009000FD0EDB5004E0D890F336E806FCE1F350A7
:1000A000E552E71402E0010E01D0000EDF6EDF50D2
:1000B00000D0E552E552E7CFD9FF1200D9CFE6FFD5
:1000C000E1CFD9FF010EF36EFC0EDB5004E0D890B7
:1000D000F336E806FCE1F350146EFD0EDBCFE9FFCA
:1000E000FE0EDBCFEAFF1450EF12E552E7CFD9FF47
:1000F0001200D9CFE6FFE1CFD9FF010EF36EFC0E5F
:10010000DB5004E0D890F336E806FCE1F350E81C3D
:10011000146EFD0EDBCFE9FFFE0EDBCFEAFF1450BD
:10012000EF16E552E7CFD9FF1200D9CFE6FFE1CFB6
:10013000D9FF030EE126DF6A040EDF5C01E3C3D1C1
:10014000DF28E66EDF50E96EEA6A830EEA02F3CF3B
:10015000EAFF020EE902F350EA26830EE902F3CF2A
:10016000E9FFF450EA26000EE926020EEA22E552E3
:10017000E750EF6EDF50E96EEA6A830EEA02F3CFD2
:10018000EAFF020EE902F350EA26830EE902F3CFFA
:10019000E9FFF450EA26000EE926020EEA22EE52AA
:1001A000EF6ADF50E96EEA6A830EEA02F3CFEAFFF4
:1001B000020EE902F350EA26830EE902F3CFE9FFCB
:1001C000F450EA26000EE926020EEA22030EE92682
:1001D000000EEA22EE6AED6ADF50E96EEA6A830EEB
:1001E000EA02F3CFEAFF020EE902F350EA26830E99
:1001F000E902F3CFE9FFF450EA26000EE926020EE9
:10020000EA22050EE926000EEA22EF6ADF50E96EC7
:10021000EA6A830EEA02F3CFEAFF020EE902F35024
:10022000EA26830EE902F3CFE9FFF450EA26000E36
:10023000E926020EEA22060EE926000EEA22EF6AFD
:10024000DF50E96EEA6A830EEA02F3CFEAFF020E9C
:10025000E902F350EA26830EE902F3CFE9FFF450F6
:10026000EA26000EE926020EEA22090EE926000E11
:10027000EA22EF6ADF50E96EEA6A830EEA02F3CF00
:10028000EAFF020EE902F350EA26830EE902F3CFF9
:10029000E9FFF450EA26000EE926020EEA220A0ED1
:1002A000E926000EEA22EF6ADF50E96EEA6A830E61
:1002B000EA02F3CFEAFF020EE902F350EA26830EC8
:1002C000E902F3CFE9FFF450EA26000EE926020E18
:1002D000EA22070EE926000EEA22EF6ADF50E96EF5
:1002E000EA6A830EEA02F3CFEAFF020EE902F35054
:1002F000EA26830EE902F3CFE9FFF450EA26000E66
:10030000E926020EEA220B0EE926000EEA22EF6A27
:10031000DF50E96EEA6A830EEA02F3CFEAFF020ECB
:10032000E902F350EA26830EE902F3CFE9FFF45025
:10033000EA26000EE926020EEA220C0EE926000E3D
:10034000EA22EF6ADF50E96EEA6A830EEA02F3CF2F
:10035000EAFF020EE902F350EA26830EE902F3CF28
:10036000E9FFF450EA26000EE926020EEA22080E02
:10037000E926000EEA22EF6ADF50E96EEA6A830E90
:10038000EA02F3CFEAFF020EE902F350EA26830EF7
:10039000E902F3CFE9FFF450EA26000EE926020E47
:1003A000EA22020EE926000EEA22EF6ADE52D20E9F
:1003B000DD6E010EDBCFE6FFE66AE66ADF50E96E2E
:1003C000EA6A830EEA02F3CFEAFF020EE902F35073
:1003D000EA26830EE902F3CFE9FFF450EA26000E85
:1003E000E926020EEA22B10EE926010EEA22E9CF41
:1003F00014F0EACF15F014C0E6FF15C0E6FF32ECAA
:100400002EF0166E050EE15E1650010EDBCFE6FFF4
:10041000E66AE66ADF50E96EEA6A830EEA02F3CF23
:10042000EAFF020EE902F350EA26830EE902F3CF57
:10043000E9FFF450EA26000EE926020EEA220D0E2C
:10044000E926000EEA22E9CF14F0EACF15F014C035
:10045000E6FF15C0E6FF32EC2EF0166E050EE15EEB
:100460001650010EDBCFE6FFE66AE66ADF50E96E62
:10047000EA6A830EEA02F3CFEAFF020EE902F350C2
:10048000EA26830EE902F3CFE9FFF450EA26000ED4
:10049000E926020EEA220D0EE926000EEA22E9CF35
:1004A00014F0EACF15F0D20E1426000E152214C057
:1004B000E6FF15C0E6FF32EC2EF0166E050EE15E8B
:1004C0001650DF2A39D6030EE15C02E2E16AE552FA
:1004D000E16EE552E7CFD9FF1200D9CFE6FFE1CFB9
:1004E000D9FF070EE126040EF36EFE0EDBCFF4FFFC
:1004F000F350F45C1EE2FC0EDBCFE9FFFD0EDBCF18
:10050000EAFFEF50146E156AD890155004E6800E7D
:10051000145C000E15580DE2FC0EDBCFE9FFFD0E5A
:10052000DBCFEAFF020EE926000EEA22EE50ED10C4
:1005300003E1000EF5EF07F0FE0EDB50E96EEA6A0C
:10054000830EEA02F3CFEAFF020EE902F350EA2635
:10055000830EE902F3CFE9FFF450EA26000EE92604
:10056000020EEA22EE52E9CF14F0EACF15F0050EA2
:1005700014C0DBFF060E15C0DBFFFC0EDBCFE9FF6E
:10058000FD0EDBCFEAFFEECF14F0EECF15F0EECF8D
:1005900016F0EECF17F0EECF18F0EFCF19F0050EF2
:1005A000DBCFE9FF060EDBCFEAFF14C0EEFF15C07C
:1005B000EEFF16C0EEFF17C0EEFF18C0EEFF19C029
:1005C000EEFFFE0EDB50E96EEA6A830EEA02F3CF1D
:1005D000EAFF020EE902F350EA26830EE902F3CFA6
:1005E000E9FFF450EA26000EE926020EEA22060E82
:1005F000E926000EEA22EF50E66EFE0EDB50E96EB1
:10060000EA6A830EEA02F3CFEAFF020EE902F35030
:10061000EA26830EE902F3CFE9FFF450EA26000E42
:10062000E926020EEA22070EE926000EEA22E5522A
:10063000E750EF6ED20EDF6EDFCFE6FFE66AE66AC6
:10064000FE0EDB50E96EEA6A830EEA02F3CFEAFFA0
:10065000020EE902F350EA26830EE902F3CFE9FF26
:10066000F450EA26000EE926020EEA22B10EE9262F
:10067000010EEA22E9CF14F0EACF15F014C0E6FF2C
:1006800015C0E6FF32EC2EF0166E050EE15E165038
:10069000DFCFE6FFE66AE66AFE0EDB50E96EEA6A45
:1006A000830EEA02F3CFEAFF020EE902F350EA26D4
:1006B000830EE902F3CFE9FFF450EA26000EE926A3
:1006C000020EEA220D0EE926000EEA22E9CF14F00E
:1006D000EACF15F014C0E6FF15C0E6FF32EC2EF0AD
:1006E000166E050EE15E1650DFCFE6FFE66AE66A9B
:1006F000FE0EDB50E96EEA6A830EEA02F3CFEAFFF0
:10070000020EE902F350EA26830EE902F3CFE9FF75
:10071000F450EA26000EE926020EEA220D0EE92622
:10072000000EEA22E9CF14F0EACF15F0D20E14261B
:10073000000E152214C0E6FF15C0E6FF32EC2EF0C5
:10074000166E050EE15E1650FE0EDB50E96EEA6A8B
:10075000830EEA02F3CFEAFF020EE902F350EA2623
:10076000830EE902F3CFE9FFF450EA26000EE926F2
:10077000020EEA22060EE926000EEA22EF5001E000
:100780000CD2FE0EDB50E96EEA6A830EEA02F3CF6A
:10079000EAFF020EE902F350EA26830EE902F3CFE4
:1007A000E9FFF450EA26000EE926020EEA22080EBE
:1007B000E926000EEA22EF6ADF6AFE0EDB50E96EE0
:1007C000EA6A830EEA02F3CFEAFF020EE902F3506F
:1007D000EA26830EE902F3CFE9FFF450EA26000E81
:1007E000E926020EEA22020EE926000EEA22EF5066
:1007F000DF5C01E3D1D1FE0EDB50E96EEA6A830EC5
:10080000EA02F3CFEAFF020EE902F350EA26830E72
:10081000E902F3CFE9FFF450EA26000EE926020EC2
:10082000EA22080EE926000EEA22EF50EF2A146EA3
:10083000156AFE0EDB50E96EEA6A830EEA02F3CF18
:10084000EAFF020EE902F350EA26830EE902F3CF33
:10085000E9FFF450EA26000EE926020EEA22030E12
:10086000E926000EEA221450EE24E76E1550EE2021
:10087000EA6EE7CFE9FFEF50E00FE76E040EE7CF37
:10088000DBFF040EDBCF14F014340EE2040EDBCFDA
:1008900015F0630EE76E1518E8AE02D0153403D0DC
:1008A000E750D880155402E2040EDB6AFE0EDB50DE
:1008B000E96EEA6A830EEA02F3CFEAFF020EE9026A
:1008C000F350EA26830EE902F3CFE9FFF450EA265B
:1008D000000EE926020EEA22080EE926000EEA22A0
:1008E000EFCF14F0FE0EDB50E96EEA6A830EEA02E7
:1008F000F3CFEAFF020EE902F350EA26830EE90283
:10090000F3CFE9FFF450EA26000EE926020EEA22B0
:10091000050EE926000EEA22EF50145C1BE3FE0EE2
:10092000DB50E96EEA6A830EEA02F3CFEAFF020EB9
:10093000E902F350EA26830EE902F3CFE9FFF4500F
:10094000EA26000EE926020EEA22080EE926000E2B
:10095000EA22EF6A010EDB6A070EF36E010EDBCFAF
:10096000F4FFF350F45C01E315D1040EDBCF18F073
:10097000196A18BE1968030ED89018361936E80699
:10098000FBE1A20E18263F0E1922010EDB500F01CB
:100990001824F66E000E1920F76E0800F550E66E6A
:1009A000FE0EDB50E96EEA6A830EEA02F3CFEAFF3D
:1009B000020EE902F350EA26830EE902F3CFE9FFC3
:1009C000F450EA26000EE926020EEA22B10EE926CC
:1009D000010EEA22E9CF16F0EACF17F0010EDB5044
:1009E0001E0D1650F324146E1750F420156EDF50B0
:1009F0000F011424E96E000E1520EA6EE552E7504F
:100A0000EF6EFE0EDB50E96EEA6A830EEA02F3CF68
:100A1000EAFF020EE902F350EA26830EE902F3CF61
:100A2000E9FFF450EA26000EE926020EEA22B10E92
:100A3000E926010EEA22E9CF1AF0EACF1BF0010EF7
:100A4000DB501E0D1A50F324186E1B50F420196E43
:100A5000DF500F011824E96E000E1920EA6EEF50E6
:100A6000E66EFE0EDB50E96EEA6A830EEA02F3CF11
:100A7000EAFF020EE902F350EA26830EE902F3CF01
:100A8000E9FFF450EA26000EE926020EEA220D0ED6
:100A9000E926000EEA22E9CF16F0EACF17F0010EA0
:100AA000DB501E0D1650F324146E1750F420156EF3
:100AB000DF500F011424E96E000E1520EA6EE55296
:100AC000E750EF6EFE0EDB50E96EEA6A830EEA0233
:100AD000F3CFEAFF020EE902F350EA26830EE902A1
:100AE000F3CFE9FFF450EA26000EE926020EEA22CF
:100AF000B10EE926010EEA22E9CF1AF0EACF1BF087
:100B0000010EDB501E0D1A50F324186E1B50F420FA
:100B1000196EDF500F011824E96E000E1920EA6EDD
:100B2000EF50E66EFE0EDB50E96EEA6A830EEA02D3
:100B3000F3CFEAFF020EE902F350EA26830EE90240
:100B4000F3CFE9FFF450EA26000EE926020EEA226E
:100B50000D0EE926000EEA22E9CF16F0EACF17F0D3
:100B6000D20E1626000E1722010EDB501E0D165057
:100B7000F324146E1750F420156EDF500F01142467
:100B8000E96E000E1520EA6EE552E750EF6E010E99
:100B9000DB2AE2D6DF2A11D60BD2FE0EDB50E96E3D
:100BA000EA6A830EEA02F3CFEAFF020EE902F3508B
:100BB000EA26830EE902F3CFE9FFF450EA26000E9D
:100BC000E926020EEA22080EE926000EEA22EF6A62
:100BD000DF6AFE0EDB50E96EEA6A830EEA02F3CFAB
:100BE000EAFF020EE902F350EA26830EE902F3CF90
:100BF000E9FFF450EA26000EE926020EEA22020E70
:100C0000E926000EEA22EF50DF5C01E3D1D1FE0EAF
:100C1000DB50E96EEA6A830EEA02F3CFEAFF020EC6
:100C2000E902F350EA26830EE902F3CFE9FFF4501C
:100C3000EA26000EE926020EEA22080EE926000E38
:100C4000EA22EF50EF2A146E156AFE0EDB50E96EB1
:100C5000EA6A830EEA02F3CFEAFF020EE902F350DA
:100C6000EA26830EE902F3CFE9FFF450EA26000EEC
:100C7000E926020EEA22030EE926000EEA221450AB
:100C8000EE24E76E1550EE20EA6EE7CFE9FFEF5055
:100C9000E00FE76E040EE7CFDBFF040EDBCF14F0AE
:100CA00014340EE2040EDBCF15F0630EE76E151858
:100CB000E8AE02D0153403D0E750D880155402E2D4
:100CC000040EDB6AFE0EDB50E96EEA6A830EEA026E
:100CD000F3CFEAFF020EE902F350EA26830EE9029F
:100CE000F3CFE9FFF450EA26000EE926020EEA22CD
:100CF000080EE926000EEA22EFCF14F0FE0EDB50BC
:100D0000E96EEA6A830EEA02F3CFEAFF020EE90215
:100D1000F350EA26830EE902F3CFE9FFF450EA2606
:100D2000000EE926020EEA22050EE926000EEA224E
:100D3000EF50145C1BE3FE0EDB50E96EEA6A830E93
:100D4000EA02F3CFEAFF020EE902F350EA26830E2D
:100D5000E902F3CFE9FFF450EA26000EE926020E7D
:100D6000EA22080EE926000EEA22EF6A010EDB6A8B
:100D7000070EF36E010EDBCFF4FFF350F45C01E3DA
:100D800015D1040EDBCF18F0196A18BE1968030ECE
:100D9000D89018361936E806FBE1A20E18263F0E49
:100DA0001922010EDB500F011824F66E000E1920D7
:100DB000F76E0800F550E66EFE0EDB50E96EEA6A4B
:100DC000830EEA02F3CFEAFF020EE902F350EA26AD
:100DD000830EE902F3CFE9FFF450EA26000EE9267C
:100DE000020EEA22B10EE926010EEA22E9CF16F040
:100DF000EACF17F0010EDB501E0D1650F324146ECF
:100E00001750F420156EDF500F011424E96E000E08
:100E10001520EA6EE552E750EF6EFE0EDB50E96EEC
:100E2000EA6A830EEA02F3CFEAFF020EE902F35008
:100E3000EA26830EE902F3CFE9FFF450EA26000E1A
:100E4000E926020EEA22B10EE926010EEA22E9CFD6
:100E50001AF0EACF1BF0010EDB501E0D1A50F324DE
:100E6000186E1B50F420196EDF500F011824E96E24
:100E7000000E1920EA6EEF50E66EFE0EDB50E96EB2
:100E8000EA6A830EEA02F3CFEAFF020EE902F350A8
:100E9000EA26830EE902F3CFE9FFF450EA26000EBA
:100EA000E926020EEA220D0EE926000EEA22E9CF1B
:100EB00016F0EACF17F0010EDB501E0D1650F3248A
:100EC000146E1750F420156EDF500F011424E96ED4
:100ED000000E1520EA6EE552E750EF6EFE0EDB5075
:100EE000E96EEA6A830EEA02F3CFEAFF020EE90234
:100EF000F350EA26830EE902F3CFE9FFF450EA2625
:100F0000000EE926020EEA22B10EE926010EEA22BF
:100F1000E9CF1AF0EACF1BF0010EDB501E0D1A507C
:100F2000F324186E1B50F420196EDF500F011824A3
:100F3000E96E000E1920EA6EEF50E66EFE0EDB50F1
:100F4000E96EEA6A830EEA02F3CFEAFF020EE902D3
:100F5000F350EA26830EE902F3CFE9FFF450EA26C4
:100F6000000EE926020EEA220D0EE926000EEA2204
:100F7000E9CF16F0EACF17F0D20E1626000E172290
:100F8000010EDB501E0D1650F324146E1750F42082
:100F9000156EDF500F011424E96E000E1520EA6E65
:100FA000E552E750EF6E010EDB2AE2D6DF2A11D6BA
:100FB000FE0EDB50E96EEA6A830EEA02F3CFEAFF27
:100FC000020EE902F350EA26830EE902F3CFE9FFAD
:100FD000F450EA26000EE926020EEA22080EE9265F
:100FE000000EEA22EF6A010E00D0146E070EE15CDB
:100FF00002E2E16AE552E16E1450E552E7CFD9FF13
:101000001200D9CFE6FFE1CFD9FFFE0EDB50E96E2B
:10101000EA6A830EEA02F3CFEAFF020EE902F35016
:10102000EA26830EE902F3CFE9FFF450EA26000E28
:10103000E926020EEA22060EE926000EEA22FD0E3D
:10104000DBCFEFFFFE0EDB50E96EEA6A830EEA02A9
:10105000F3CFEAFF020EE902F350EA26830EE9021B
:10106000F3CFE9FFF450EA26000EE926020EEA2249
:10107000070EE926000EEA22FD0EDBCFEFFFE55258
:10108000E7CFD9FF1200D9CFE6FFE1CFD9FF020E9B
:10109000E126FD0EDB50146E156AFE0EDB50E96E84
:1010A000EA6A830EEA02F3CFEAFF020EE902F35086
:1010B000EA26830EE902F3CFE9FFF450EA26000E98
:1010C000E926020EEA22030EE926000EEA22145057
:1010D000EE24E76E1550EE20EA6EE7CFE9FFEF5001
:1010E000E00FE76E010EE7CFDBFFDF6A070EDF5C84
:1010F00001E3D6D0010EDB50080DF3CF18F0F4CF8A
:1011000019F0A20E18263F0E1922DF500F011824E5
:10111000F66E000E1920F76E0800F550E66EFE0E12
:10112000DB50E96EEA6A830EEA02F3CFEAFF020EB1
:10113000E902F350EA26830EE902F3CFE9FFF45007
:10114000EA26000EE926020EEA22B10EE926010E79
:10115000EA22E9CF16F0EACF17F0DF501E0D165045
:10116000F324146E1750F420156EFD0EDB500F01A2
:101170001424E96E000E1520EA6EE552E750EF6E7A
:10118000DF501E0DF3CF18F0F4CF19F0B10E182672
:10119000030E1922FD0EDB500F011824E96E000E1C
:1011A0001920EA6EEF50E66EFE0EDB50E96EEA6A39
:1011B000830EEA02F3CFEAFF020EE902F350EA26B9
:1011C000830EE902F3CFE9FFF450EA26000EE92688
:1011D000020EEA220D0EE926000EEA22E9CF16F0F1
:1011E000EACF17F0DF501E0D1650F324146E17507F
:1011F000F420156EFD0EDB500F011424E96E000E75
:101200001520EA6EE552E750EF6EDF501E0DF3CF6A
:1012100018F0F4CF19F0B10E1826030E1922FD0EA6
:10122000DB500F011824E96E000E1920EA6EEF5012
:10123000E66EFE0EDB50E96EEA6A830EEA02F3CF39
:10124000EAFF020EE902F350EA26830EE902F3CF29
:10125000E9FFF450EA26000EE926020EEA220D0EFE
:10126000E926000EEA22E9CF16F0EACF17F0D20EF7
:101270001626000E1722DF501E0D1650F324146E92
:101280001750F420156EFD0EDB500F011424E96E8B
:10129000000E1520EA6EE552E750EF6EDF2A26D7E2
:1012A000020EE15C02E2E16AE552E16EE552E7CF4F
:1012B000D9FF1200D9CFE6FFE1CFD9FFE652FE0EEB
:1012C000DB50E96EEA6A830EEA02F3CFEAFF020E10
:1012D000E902F350EA26830EE902F3CFE9FFF45066
:1012E000EA26000EE926020EEA22EE52EF6AFE0E10
:1012F000DB50E96EEA6A830EEA02F3CFEAFF020EE0
:10130000E902F350EA26830EE902F3CFE9FFF45035
:10131000EA26000EE926020EEA22030EE926000E56
:10132000EA22EE6AED6AFE0EDB50E96EEA6A830E8F
:10133000EA02F3CFEAFF020EE902F350EA26830E37
:10134000E902F3CFE9FFF450EA26000EE926020E87
:10135000EA22050EE926000EEA22EF6AFE0EDB50B5
:10136000E96EEA6A830EEA02F3CFEAFF020EE902AF
:10137000F350EA26830EE902F3CFE9FFF450EA26A0
:10138000000EE926020EEA22060EE926000EEA22E7
:10139000EF6AFE0EDB50E96EEA6A830EEA02F3CFD3
:1013A000EAFF020EE902F350EA26830EE902F3CFC8
:1013B000E9FFF450EA26000EE926020EEA22090EA1
:1013C000E926000EEA22EF6AFE0EDB50E96EEA6AB9
:1013D000830EEA02F3CFEAFF020EE902F350EA2697
:1013E000830EE902F3CFE9FFF450EA26000EE92666
:1013F000020EEA220A0EE926000EEA22EF6AFE0E2B
:10140000DB50E96EEA6A830EEA02F3CFEAFF020ECE
:10141000E902F350EA26830EE902F3CFE9FFF45024
:10142000EA26000EE926020EEA22070EE926000E41
:10143000EA22EF6AFE0EDB50E96EEA6A830EEA02E8
:10144000F3CFEAFF020EE902F350EA26830EE90227
:10145000F3CFE9FFF450EA26000EE926020EEA2255
:101460000B0EE926000EEA22EF6AFE0EDB50E96E53
:10147000EA6A830EEA02F3CFEAFF020EE902F350B2
:10148000EA26830EE902F3CFE9FFF450EA26000EC4
:10149000E926020EEA220C0EE926000EEA22EF6A85
:1014A000FE0EDB50E96EEA6A830EEA02F3CFEAFF32
:1014B000020EE902F350EA26830EE902F3CFE9FFB8
:1014C000F450EA26000EE926020EEA22080EE9266A
:1014D000000EEA22EF6AFE0EDB50E96EEA6A830E26
:1014E000EA02F3CFEAFF020EE902F350EA26830E86
:1014F000E902F3CFE9FFF450EA26000EE926020ED6
:10150000EA22020EE926000EEA22EF6AD20EDF6E10
:10151000DFCFE6FFE66AE66AFE0EDB50E96EEA6AB6
:10152000830EEA02F3CFEAFF020EE902F350EA2645
:10153000830EE902F3CFE9FFF450EA26000EE92614
:10154000020EEA22B10EE926010EEA22E9CF14F0DA
:10155000EACF15F014C0E6FF15C0E6FF32EC2EF01E
:10156000166E050EE15E1650DFCFE6FFE66AE66A0C
:10157000FE0EDB50E96EEA6A830EEA02F3CFEAFF61
:10158000020EE902F350EA26830EE902F3CFE9FFE7
:10159000F450EA26000EE926020EEA220D0EE92694
:1015A000000EEA22E9CF14F0EACF15F014C0E6FFEE
:1015B00015C0E6FF32EC2EF0166E050EE15E1650F9
:1015C000DFCFE6FFE66AE66AFE0EDB50E96EEA6A06
:1015D000830EEA02F3CFEAFF020EE902F350EA2695
:1015E000830EE902F3CFE9FFF450EA26000EE92664
:1015F000020EEA220D0EE926000EEA22E9CF14F0CF
:10160000EACF15F0D20E1426000E152214C0E6FF04
:1016100015C0E6FF32EC2EF0166E050EE15E165098
:10162000E552E552E7CFD9FF1200D9CFE6FFE1CF6F
:10163000D9FF050EE126DF6A040EDF5C02E365EFE9
:1016400010F0DF50E96EEA6A830EEA02F3CFEAFF98
:10165000020EE902F350EA26830EE902F3CFE9FF16
:10166000F450EA26000EE926020EEA22060EE926CA
:10167000000EEA22EF5038E0DF50E96EEA6A830E8E
:10168000EA02F3CFEAFF020EE902F350EA26830EE4
:10169000E902F3CFE9FFF450EA26000EE926020E34
:1016A000EA22070EE926000EEA22EF06DF50E96E75
:1016B000EA6A830EEA02F3CFEAFF020EE902F35070
:1016C000EA26830EE902F3CFE9FFF450EA26000E82
:1016D000E926020EEA22070EE926000EEA22EF5062
:1016E000000802E262EF10F0DF50E96EEA6A830E52
:1016F000EA02F3CFEAFF020EE902F350EA26830E74
:10170000E902F3CFE9FFF450EA26000EE926020EC3
:10171000EA22060EE926000EEA22EF50E66EDF50BE
:10172000E96EEA6A830EEA02F3CFEAFF020EE902EB
:10173000F350EA26830EE902F3CFE9FFF450EA26DC
:10174000000EE926020EEA22070EE926000EEA2222
:10175000E552E750EF6E9D90DF50E96EEA6A830E26
:10176000EA02F3CFEAFF020EE902F350EA26830E03
:10177000E902F3CFE9FFF450EA26000EE926020E53
:10178000EA22090EE926000EEA22EF503BE1DF5083
:10179000E96EEA6A830EEA02F3CFEAFF020EE9027B
:1017A000F350EA26830EE902F3CFE9FFF450EA266C
:1017B000000EE926020EEA220C0EE926000EEA22AD
:1017C000EF5002E1010E01D0000EE66EDF50E96E2F
:1017D000EA6A830EEA02F3CFEAFF020EE902F3504F
:1017E000EA26830EE902F3CFE9FFF450EA26000E61
:1017F000E926020EEA220B0EE926000EEA22E55245
:10180000E750EF6EDF50E96EEA6A830EEA02F3CF2B
:10181000EAFF020EE902F350EA26830EE902F3CF53
:10182000E9FFF450EA26000EE926020EEA22090E2C
:10183000E926000EEA22EF0403E19D8062EF10F03A
:101840009D80DF50E96EEA6A830EEA02F3CFEAFF79
:10185000020EE902F350EA26830EE902F3CFE9FF14
:10186000F450EA26000EE926020EEA22060EE926C8
:10187000000EEA22EF5002E145EF10F0010EDB6AA4
:10188000070EF36E010EDBCFF4FFF350F45C01E3BF
:101890003ED3010EF36E020EF3CFDBFFDF50E96E95
:1018A000EA6A830EEA02F3CFEAFF020EE902F3507E
:1018B000EA26830EE902F3CFE9FFF450EA26000E90
:1018C000E926020EEA22020EE926000EEA22EF5075
:1018D000F36E020EDBCFF4FFF350F45C01E360D152
:1018E000DF50E96EEA6A830EEA02F3CFEAFF020EE6
:1018F000E902F350EA26830EE902F3CFE9FFF45040
:10190000EA26000EE926020EEA22B10EE926010EB1
:10191000EA22E9CF16F0EACF17F0010EDB501E0DD8
:101920001650F324146E1750F420156E020EDB04CB
:101930000F011424E96E000E1520EA6EEF9EEF46AB
:10194000070EE66EDF50E96EEA6A830EEA02F3CF15
:10195000EAFF020EE902F350EA26830EE902F3CF12
:10196000E9FFF450EA26000EE926020EEA22B10E43
:10197000E926010EEA22E9CF16F0EACF17F0010EB0
:10198000DB501E0D1650F324146E1750F420156E04
:10199000020EDB500F011424E96E000E1520EA6ED2
:1019A000EF50E66E3EEC00F0E552E55201083AE1F8
:1019B000020EE66EDF50E96EEA6A830EEA02F3CFAA
:1019C000EAFF020EE902F350EA26830EE902F3CFA2
:1019D000E9FFF450EA26000EE926020EEA22B10ED3
:1019E000E926010EEA22E9CF18F0EACF19F0010E3C
:1019F000DB501E0D1850F324166E1950F420176E8C
:101A0000020EDB0400011624146E000E1720156E62
:101A100014C0E6FF15C0E6FF5EEC00F0E552E552AB
:101A2000E55239D0020EE66EDF50E96EEA6A830EA7
:101A3000EA02F3CFEAFF020EE902F350EA26830E30
:101A4000E902F3CFE9FFF450EA26000EE926020E80
:101A5000EA22B10EE926010EEA22E9CF18F0EACF18
:101A600019F0010EDB501E0D1850F324166E19509C
:101A7000F420176E020EDB0400011624146E000E13
:101A80001720156E14C0E6FF15C0E6FF79EC00F0D4
:101A9000E552E552E552DF50E96EEA6A830EEA024A
:101AA000F3CFEAFF020EE902F350EA26830EE902C1
:101AB000F3CFE9FFF450EA26000EE926020EEA22EF
:101AC000B10EE926010EEA22E9CF1CF0EACF1DF0A3
:101AD000010EDB501E0D1C50F3241A6E1D50F42015
:101AE0001B6E020EDB040F011A24E96E000E1B2090
:101AF000EA6EEF50E66EDF50E96EEA6A830EEA02A4
:101B0000F3CFEAFF020EE902F350EA26830EE90260
:101B1000F3CFE9FFF450EA26000EE926020EEA228E
:101B20000D0EE926000EEA22E9CF18F0EACF19F0EF
:101B3000DF50E96EEA6A830EEA02F3CFEAFF020E93
:101B4000E902F350EA26830EE902F3CFE9FFF450ED
:101B5000EA26000EE926020EEA220B0EE926000E06
:101B6000EA22EF50D20D1850F324166E1950F420CB
:101B7000176E010EDB501E0D1650F324146E175015
:101B8000F420156E020EDB040F011424E96E000E22
:101B90001520EA6EE552E750EF6E020EDB2A7ED684
:101BA000DF50E96EEA6A830EEA02F3CFEAFF020E23
:101BB000E902F350EA26830EE902F3CFE9FFF4507D
:101BC000EA26000EE926020EEA22B10EE926010EEF
:101BD000EA22E9CF16F0EACF17F0010EDB501E0D16
:101BE0001650F324146E1750F420156E020EDB0409
:101BF0000F011424E96E000E1520EA6EEF9EEF46E9
:101C0000DF50E96EEA6A830EEA02F3CFEAFF020EC2
:101C1000E902F350EA26830EE902F3CFE9FFF4501C
:101C2000EA26000EE926020EEA22080EE926000E38
:101C3000EA22EF50146E156ADF50E96EEA6A830EED
:101C4000EA02F3CFEAFF020EE902F350EA26830E1E
:101C5000E902F3CFE9FFF450EA26000EE926020E6E
:101C6000EA22030EE926000EEA221450EE24E76E63
:101C70001550EE20EA6EE7CFE9FFEF50E00FE76E78
:101C8000030EE7CFDBFF000EF36E030EDBCFF4FF96
:101C9000F350F45C04E3030EDB50630802E2030E2E
:101CA000DB6A030EDB50080DF3CF14F0F4CF15F010
:101CB000A20E14263F0E1522010EDB500F01142434
:101CC000F66E000E1520F76E0800040EF5CFDBFF50
:101CD000070E146EDF50E96EEA6A830EEA02F3CF54
:101CE000EAFF020EE902F350EA26830EE902F3CF7F
:101CF000E9FFF450EA26000EE926020EEA220A0E57
:101D0000E926000EEA22EF50145CE66E040EDBCFEB
:101D1000E6FF3EEC00F0E552E55201083AE1020E22
:101D2000E66EDF50E96EEA6A830EEA02F3CFEAFF5D
:101D3000020EE902F350EA26830EE902F3CFE9FF2F
:101D4000F450EA26000EE926020EEA22B10EE92638
:101D5000010EEA22E9CF18F0EACF19F0010EDB50AC
:101D60001E0D1850F324166E1950F420176E020E33
:101D7000DB0400011624146E000E1720156E14C02B
:101D8000E6FF15C0E6FF5EEC00F0E552E552E552D5
:101D900039D0020EE66EDF50E96EEA6A830EEA027F
:101DA000F3CFEAFF020EE902F350EA26830EE902BE
:101DB000F3CFE9FFF450EA26000EE926020EEA22EC
:101DC000B10EE926010EEA22E9CF18F0EACF19F0A8
:101DD000010EDB501E0D1850F324166E1950F4201E
:101DE000176E020EDB0400011624146E000E17207D
:101DF000156E14C0E6FF15C0E6FF79EC00F0E55261
:101E0000E552E552DF50E96EEA6A830EEA02F3CF4B
:101E1000EAFF020EE902F350EA26830EE902F3CF4D
:101E2000E9FFF450EA26000EE926020EEA22B10E7E
:101E3000E926010EEA22E9CF1CF0EACF1DF0010EDF
:101E4000DB501E0D1C50F3241A6E1D50F4201B6E27
:101E5000020EDB040F011A24E96E000E1B20EA6E4D
:101E6000EF50E66EDF50E96EEA6A830EEA02F3CFC6
:101E7000EAFF020EE902F350EA26830EE902F3CFED
:101E8000E9FFF450EA26000EE926020EEA220D0EC2
:101E9000E926000EEA22E9CF18F0EACF19F0DF5068
:101EA000E96EEA6A830EEA02F3CFEAFF020EE90264
:101EB000F350EA26830EE902F3CFE9FFF450EA2655
:101EC000000EE926020EEA220B0EE926000EEA2297
:101ED000EF50D20D1850F324166E1950F420176EDF
:101EE000010EDB501E0D1650F324146E1750F42013
:101EF000156E020EDB040F011424E96E000E15208E
:101F0000EA6EE552E750EF6E010EDB2AB9D4DF50DE
:101F1000E96EEA6A830EEA02F3CFEAFF020EE902F3
:101F2000F350EA26830EE902F3CFE9FFF450EA26E4
:101F3000000EE926020EEA220A0EE926000EEA2227
:101F4000EF2ADF50E96EEA6A830EEA02F3CFEAFF76
:101F5000020EE902F350EA26830EE902F3CFE9FF0D
:101F6000F450EA26000EE926020EEA220A0EE926BD
:101F7000000EEA22EFCF14F0060E145C01E285D0C9
:101F8000DF50E96EEA6A830EEA02F3CFEAFF020E3F
:101F9000E902F350EA26830EE902F3CFE9FFF45099
:101FA000EA26000EE926020EEA22080EE926000EB5
:101FB000EA22EF2ADF50E96EEA6A830EEA02F3CFE3
:101FC000EAFF020EE902F350EA26830EE902F3CF9C
:101FD000E9FFF450EA26000EE926020EEA22080E76
:101FE000E926000EEA22EFCF14F0DF50E96EEA6A2C
:101FF000830EEA02F3CFEAFF020EE902F350EA266B
:10200000830EE902F3CFE9FFF450EA26000EE92639
:10201000020EEA22050EE926000EEA22EF50145CB9
:102020001AE3DF50E96EEA6A830EEA02F3CFEAFFB1
:10203000020EE902F350EA26830EE902F3CFE9FF2C
:10204000F450EA26000EE926020EEA22080EE926DE
:10205000000EEA22EF6ADF50E96EEA6A830EEA02B6
:10206000F3CFEAFF020EE902F350EA26830EE902FB
:10207000F3CFE9FFF450EA26000EE926020EEA2229
:102080000A0EE926000EEA22EF6A9D90DF50E96E03
:10209000EA6A830EEA02F3CFEAFF020EE902F35086
:1020A000EA26830EE902F3CFE9FFF450EA26000E98
:1020B000E926020EEA22090EE926000EEA22010EA6
:1020C000EF6E9D80DF2A1CEF0BF0050EE15C02E253
:1020D000E16AE552E16EE552E7CFD9FF1200D9CFB0
:1020E000E6FFE1CFD9FF040EE1268390839283942B
:1020F00083968398839A839C839E020EDB6A040EE8
:10210000F36E020EDBCFF4FFF350F45C01E3BDD0BD
:10211000030EDB6A020EDB50E96EEA6A830EEA0206
:10212000F3CFEAFF020EE902F350EA26830EE9023A
:10213000F3CFE9FFF450EA26000EE926020EEA2268
:10214000020EE926000EEA22EF50F36E030EDBCFFB
:10215000F4FFF350F45C01E395D0020EDB50E96E1E
:10216000EA6A830EEA02F3CFEAFF020EE902F350B5
:10217000EA26830EE902F3CFE9FFF450EA26000EC7
:10218000E926020EEA220D0EE926000EEA22E9CF28
:1021900018F0EACF19F0020EDB50E96EEA6A830EFE
:1021A000EA02F3CFEAFF020EE902F350EA26830EB9
:1021B000E902F3CFE9FFF450EA26000EE926020E09
:1021C000EA220C0EE926000EEA22EF50D20D18503A
:1021D000F324166E1950F420176E0C010C511E0DCD
:1021E0001650F324146E1750F420156E030EDB50B6
:1021F0000F011424E96E000E1520EA6EEFCFDFFF09
:10220000030EDBCFE6FF020EDB50E96EEA6A830EB7
:10221000EA02F3CFEAFF020EE902F350EA26830E48
:10222000E902F3CFE9FFF450EA26000EE926020E98
:10223000EA22EE52EF50E552E724E76E010EE7CFB7
:10224000DBFF400EF36E010EDBCFF4FFF350F45CC6
:102250000AE3800E146E010EDBCFE7FF1450E72671
:10226000010EE7CFDBFF010EDB50846EDF1C806EBA
:102270008590080EE66E09EC31F0E5528580030E7C
:10228000DB2A48D7020EDB2A3AD70C010C51070A89
:102290004EE0010A43E0030A38E0010A2DE0070A94
:1022A00022E0010A17E0030A0CE0010A01E048D02D
:1022B00083808392839483968398839A839C839E5E
:1022C00040D083908382839483968398839A839C5F
:1022D000839E37D083908392838483968398839A56
:1022E000839C839E2ED0839083928394838683984D
:1022F000839A839C839E25D0839083928394839634
:102300008388839A839C839E1CD08390839283943A
:1023100083968398838A839C839E13D08390839231
:10232000839483968398839A838C839E0AD0839028
:102330008392839483968398839A839C838E01D01F
:1023400000D00C010C2B0C010C51070801E384D0C8
:102350000C010C6B020EDB6A040EF36E020EDBCF77
:10236000F4FFF350F45C01E377D0020EDB50E96E2A
:10237000EA6A830EEA02F3CFEAFF020EE902F350A3
:10238000EA26830EE902F3CFE9FFF450EA26000EB5
:10239000E926020EEA22090EE926000EEA22EF04DF
:1023A00058E1020EDB50E96EEA6A830EEA02F3CFCF
:1023B000EAFF020EE902F350EA26830EE902F3CFA8
:1023C000E9FFF450EA26000EE926020EEA220C0E7E
:1023D000E926000EEA22EF5002E1010E01D0000EC4
:1023E000E66E020EDB50E96EEA6A830EEA02F3CF74
:1023F000EAFF020EE902F350EA26830EE902F3CF68
:10240000E9FFF450EA26000EE926020EEA220C0E3D
:10241000E926000EEA22E552E750EF6E020EDB508D
:10242000E96EEA6A830EEA02F3CFEAFF020EE902DE
:10243000F350EA26830EE902F3CFE9FFF450EA26CF
:10244000000EE926020EEA22090EE926000EEA2213
:10245000EF6A020EDB2A80D7040EE15C02E2E16A39
:10246000E552E16EE552E7CFD9FF1200D9CFE6FF82
:10247000E1CFD9FF400EF36EFE0EDBCFF4FFF35039
:10248000F45C0AE3800E146EFE0EDBCFE7FF1450FF
:10249000E726FE0EE7CFDBFF8580FE0EDB50846E65
:1024A000FD0EDB50806E8590500EE66E09EC31F02B
:0C24B000E5528580E552E7CFD9FF12000D
:0424BC00D9CFE6FF8F
:1024C000E1CFD9FF040EE126020EDB6AFB0EDBCF63
:1024D000E9FFFC0EDBCFEAFF050EEE1801E1ED503F
:1024E00054E1010EE76EFD0EDBCFE9FFFE0EDBCF00
:1024F000EAFFE750E926000EEA22EF50000EF35003
:10250000DE6EDD6A020EE76EFD0EDBCFE9FFFE0E2A
:10251000DBCFEAFFE750E926000EEA22EF50DF1298
:10252000DF2A010E01E3DB2A010EE66E010EE66EE4
:10253000E66ADECFE6FFDDCFE6FF030EE76EFD0EB7
:10254000DBCF14F0FE0EDBCF15F0E7501426000EA3
:10255000152214C0E6FF15C0E6FF1AEC26F0166E31
:10256000070EE15E1650E76E030EE7CFDBFF030EAA
:10257000DB500AE0030EDBCFE6FF61EC23F0E5520F
:10258000E76E020EE7CFDBFF05D0030EF36E020EFF
:10259000F3CFDBFF020EDB5000D0146E040EE15CC3
:1025A00002E2E16AE552E16E1450E552E7CFD9FF4D
:1025B0001200D9CFE6FFE1CFD9FF070EE126050EC5
:1025C000DB6AFB0EDBCFE9FFFC0EDBCFEAFFEECFD1
:1025D00014F0EFCF15F0060E145C000E155801E252
:1025E000D9D0010EE76EFD0EDBCFE9FFFE0EDBCF8B
:1025F000EAFFE750E926000EEA22EF50DE6EDD6AC0
:10260000D9CFE9FFDACFEAFFEE50ED6EEF6A020EA6
:10261000E76EFD0EDBCFE9FFFE0EDBCFEAFFE750F2
:10262000E926000EEA22EF50DF12DF2A010E01E355
:10263000DB2A030EE76EFD0EDBCFE9FFFE0EDBCFDC
:10264000EAFFE750E926000EEA22EF50E66ED95085
:10265000020FE96EDACFEAFFE552E750EE6EED6A5F
:10266000D950020FE96EDACFEAFFEE50ED6EEF6A55
:10267000040EE76EFD0EDBCFE9FFFE0EDBCFEAFFB7
:10268000E750E926000EEA22EF50146E156AD95081
:10269000020FE96EDACFEAFF1450EE121550ED1278
:1026A000050EE76EFD0EDBCFE9FFFE0EDBCFEAFF86
:1026B000E750E926000EEA22040EEFCFDBFF020E00
:1026C000DBCF14F0030EDBCF15F0010E145C000E0F
:1026D00015585AE3D950020FE96EDACFEAFF780EA7
:1026E000D880EE54000EED544FE3020E086E096AD6
:1026F000020EDBCF0DF0030EDBCF0EF028EC30F036
:102700000650F36E040EDB50F35C3EE1010EE66E04
:10271000020EDBCFE6FF030EDBCFE6FFDECFE6FFE8
:10272000DDCFE6FF060EE76EFD0EDBCF14F0FE0EEA
:10273000DBCF15F0E7501426000E152214C0E6FF7B
:1027400015C0E6FF1AEC26F0166E070EE15E165075
:10275000E76E060EE7CFDBFF060EDB500BE0060E42
:10276000DBCFE6FF61EC23F0E552E76E050EE7CF25
:10277000DBFF09D0FB0EDBCFE9FFFC0EDBCFEAFF6E
:10278000050EEE6EED6A05D0030EF36E050EF3CF67
:10279000DBFF05D0030EF36E050EF3CFDBFF050E56
:1027A000DB5000D0146E070EE15C02E2E16AE552F4
:1027B000E16E1450E552E7CFD9FF1200D9CFE6FF02
:1027C000E1CFD9FF080EE126060EDB6AFB0EDBCF58
:1027D000E9FFFC0EDBCFEAFF050EEE1801E1ED503C
:1027E00001E006D1010EE76EFD0EDBCFE9FFFE0E24
:1027F000DBCFEAFFE750E926000EEA22EF50DE6E5B
:10280000DD6AD9CFE9FFDACFEAFFEE50ED6EEF6A6D
:10281000020EE76EFD0EDBCFE9FFFE0EDBCFEAFF17
:10282000E750E926000EEA22EF50DF12DF2A010E00
:1028300001E3DB2A030EE76EFD0EDBCFE9FFFE0EA0
:10284000DBCFEAFFE750E926000EEA22EF50E66E02
:10285000D950020FE96EDACFEAFFE552E750EE6E8B
:10286000ED6AD950020FE96EDACFEAFFEE50ED6E55
:10287000EF6A040EE76EFD0EDBCFE9FFFE0EDBCF45
:10288000EAFFE750E926000EEA22EF50E66ED95043
:10289000020FE96EDACFEAFFE552E750EE6EED6A1D
:1028A000020EDBCF14F0030EDBCF15F0010E145C2B
:1028B000000E155801E296D0D950020FE96EDACF1A
:1028C000EAFF7D0ED880EE54000EED5401E28AD06E
:1028D000FD0EDBCF08F0FE0EDBCF09F0040E08C0C2
:1028E000DBFF050E09C0DBFFFB0EDBCFE9FFFC0EB3
:1028F000DBCFEAFFEE6AED6A040EDBCFE9FFDB2AED
:10290000050EDBCFEAFF01E3DB2A030EEF6EFB0EC1
:10291000DBCFE9FFFC0EDBCFEAFFEE2A000EED2253
:10292000020E086E096A020EDBCF0DF0030EDBCF3C
:102930000EF028EC30F00650E66E040EDBCFE9FF17
:10294000DB2A050EDBCFEAFF01E3DB2AE552E75085
:10295000EF6EFB0EDBCFE9FFFC0EDBCFEAFFEE2ACA
:10296000000EED22E66A020EDBCFE6FF030EDBCFA0
:10297000E6FFDECFE6FFDDCFE6FF040EDBCFE6FFAE
:10298000050EDBCFE6FF1AEC26F0146E070EE15EB3
:102990001450E76E070EE7CFDBFF070EDB500BE0AE
:1029A000070EDBCFE6FF61EC23F0E552E76E060E83
:1029B000E7CFDBFF16D0020EDBCF14F0030EDBCF28
:1029C00015F0010ED89014361536E806FBE1FB0E23
:1029D000DBCFE9FFFC0EDBCFEAFF1450EE261550EB
:1029E000ED2205D0030EF36E060EF3CFDBFF05D00C
:1029F000030EF36E060EF3CFDBFF060EDB5000D0A6
:102A0000146E080EE15C02E2E16AE552E16E1450D8
:102A1000E552E7CFD9FF1200D9CFE6FFE1CFD9FFCA
:102A20000D0EE1260B0EDB6AFB0EDBCFE9FFFC0E81
:102A3000DBCFEAFFEECF14F0EFCF15F00A0E145CF7
:102A4000000E155801E2D4D1010EE76EFD0EDBCF6A
:102A5000E9FFFE0EDBCFEAFFE750E926000EEA228F
:102A6000EF50000EF350DE6EDD6A020EE76EFD0ED3
:102A7000DBCFE9FFFE0EDBCFEAFFE750E926000ED1
:102A8000EA22EF50DF12DF2A010E01E3DB2A030EF8
:102A9000E76EFD0EDBCFE9FFFE0EDBCFEAFFE7506E
:102AA000E926000EEA22EF50000EF350E66ED950F0
:102AB000020FE96EDACFEAFFE552E750EE6EED6AFB
:102AC000040EE76EFD0EDBCFE9FFFE0EDBCFEAFF63
:102AD000E750E926000EEA22EF50146E156AD9502D
:102AE000020FE96EDACFEAFF1450EE121550ED1224
:102AF000050EE76EFD0EDBCFE9FFFE0EDBCFEAFF32
:102B0000E750E926000EEA22EF50000EF350E66E81
:102B1000D950040FE96EDACFEAFFE552E750EE6EC6
:102B2000ED6A060EE76EFD0EDBCFE9FFFE0EDBCF92
:102B3000EAFFE750E926000EEA22EF50146E156A0C
:102B4000D950040FE96EDACFEAFF1450EE12155097
:102B5000ED12040EDB2A050E01E3DB2A070EE76EF9
:102B6000FD0EDBCFE9FFFE0EDBCFEAFFE750E926E3
:102B7000000EEA22EF50000EF350E66ED950060F19
:102B8000E96EDACFEAFFE552E750EE6EED6A080E25
:102B9000E76EFD0EDBCFE9FFFE0EDBCFEAFFE7506D
:102BA000E926000EEA22EF50146E156AD950060F7E
:102BB000E96EDACFEAFF1450EE121550ED12090E4D
:102BC000E76EFD0EDBCFE9FFFE0EDBCFEAFFE7503D
:102BD000E926000EEA22080EEFCFDBFF020EDBCF64
:102BE00014F0030EDBCF15F0010E145C000E155827
:102BF00001E2F9D0D950020FE96EDACFEAFF7D0E7B
:102C0000D880EE54000EED5401E2EDD0060EDBCF7D
:102C100016F0070EDBCF17F0010E165C000E1758EA
:102C200001E2E1D0D950060FE96EDACFEAFF790E62
:102C3000D880EE54000EED5401E2D5D0020E086E9D
:102C4000096A060EDBCF0DF0070EDBCF0EF028EC85
:102C500030F006C018F007C019F0080EDB501A6EED
:102C60001B6A1A50181802E11B50191801E0BBD05A
:102C7000010EE66E060EDBCFE6FF070EDBCFE6FFAA
:102C8000040EDBCFE6FF050EDBCFE6FF0A0EE76E94
:102C9000FD0EDBCF14F0FE0EDBCF15F0E75014264F
:102CA000000E152214C0E6FF15C0E6FF1AEC26F050
:102CB000166E070EE15E1650E76E0C0EE7CFDBFFD7
:102CC0000C0EDB5001E081D0FD0EDBCF08F0FE0ED4
:102CD000DBCF09F0090E08C0DBFF0A0E09C0DBFFDD
:102CE000FB0EDBCFE9FFFC0EDBCFEAFFEE6AED6AFD
:102CF000090EDBCFE9FFDB2A0A0EDBCFEAFF01E397
:102D0000DB2A170EEF6EFB0EDBCFE9FFFC0EDBCFED
:102D1000EAFFEE2A000EED22020E086E096A020E8C
:102D2000DBCF0DF0030EDBCF0EF028EC30F00650B9
:102D3000E66E090EDBCFE9FFDB2A0A0EDBCFEAFFE6
:102D400001E3DB2AE552E750EF6EFB0EDBCFE9FF34
:102D5000FC0EDBCFEAFFEE2A000EED22E66A020E41
:102D6000DBCFE6FF030EDBCFE6FFDECFE6FFDDCFF6
:102D7000E6FF090EDBCFE6FF0A0EDBCFE6FF1AEC1B
:102D800026F0146E070EE15E1450E76E0C0EE7CFCE
:102D9000DBFF0C0EDB5019E1020E086E096A020E11
:102DA000DBCF0DF0030EDBCF0EF028EC30F006C0C9
:102DB00014F007C015F0FB0EDBCFE9FFFC0EDBCFF4
:102DC000EAFF1450EE261550ED220C0EDB500AE0FF
:102DD0000C0EDBCFE6FF61EC23F0E552E76E0B0E45
:102DE000E7CFDBFF05D0030EF36E0B0EF3CFDBFF57
:102DF0000B0EDB5000D0146E0D0EE15C02E2E16AB6
:0E2E0000E552E16E1450E552E7CFD9FF120003
:022E0E00D9CF1A
:102E1000E6FFE1CFD9FFE652DF6AFD0EDB5013E09B
:102E2000010EF36EFD0EDBCFF4FFF350F45C0BE309
:102E3000FD0EDB50146E156A153404E21450F708C9
:102E4000000E155403E2020EDF6E6BD0FD0EDBCFD9
:102E50000BF1FE0EDB5001E053D00101BA0E106FF2
:102E60003B0E116F0101126B0101D60E136F3B0E69
:102E7000146F0101156B0101CE0E0D6F3C0E0E6F2C
:102E800001010F6B0101EC0E166F3B0E176F010174
:102E9000186B0101196B1A6B1B6B0101E80E1C6F9B
:102EA0003D0E1D6F01011E6B0101BA0E1F6F3E0E1C
:102EB000206F0101216B01014E0E226F3F0E236F27
:102EC0000101246BF70EDBCFE6FFD950F80FE96E56
:102ED000FF0EDA20EA6EEECFE6FFEECFE6FFEECF92
:102EE000E6FFEFCFE6FFFC0EDBCFE6FF0BC1E6FF10
:102EF0003BEC1DF0146E070EE15E1450DF6E02D045
:102F0000020EDF6EDF500DE172EC2FF0000903E1DD
:102F1000030EDF6E06D0FE0EDBCF0CF10001010EBA
:102F2000CA6FDF5000D0E552E552E7CFD9FF12005B
:102F3000D9CFE6FFE1CFD9FF030EE126146AFE0EDA
:102F4000DB50145C01E3ECD0FE0EDB507F0801E2A5
:102F5000E7D0F29EFB0EDBCF14F0FC0EDBCF15F0BA
:102F6000FD0EDBCF16F014501510161001E18BD0BA
:102F7000DE6ADD6ADECF14F0DDCF15F0D890155093
:102F800004E6100E145C000E15586CE2DECFE9FF6B
:102F9000DDCFEAFFD890E936EA36D890E936EA364E
:102FA000CB0EE926000EEA22EECF14F0EECF15F09C
:102FB000EECF16F0EFCF17F00001155016101710D6
:102FC00022E0FB0EDBCF18F0FC0EDBCF19F0FD0E7C
:102FD000DBCF1AF0DECFE9FFDDCFEAFFD890E9368C
:102FE000EA36D890E936EA36CB0EE926000EEA2218
:102FF000EE52EE50181806E1EE50191803E1EE50AB
:103000001A1800E12AE1DECFE9FFDDCFEAFFD89010
:10301000E936EA36D890E936EA36CB0EE926000ED4
:10302000EA22FE0EDBCFEFFFDECFE9FFDDCFEAFFC6
:10303000D890E936EA36D890E936EA36CB0EE9265A
:10304000000EEA22EE52FB0EDBCFEEFFFC0EDBCFD2
:10305000EEFFFD0EDBCFEEFF05D0DF2A010E01E310
:10306000DB2A88D7D9CFE9FFDACFEAFF100EEE18B6
:1030700001E1ED5002E0000E01D0040EE76E020EF9
:10308000E7CFDBFF4BD0DE6ADD6ADECF14F0DDCFA9
:1030900015F0D890155004E6100E145C000E15586B
:1030A0003BE2DECFE9FFDDCFEAFFD890E936EA3632
:1030B000D890E936EA36CB0EE926000EEA22EFCFA9
:1030C00014F0FE0EDB50145C22E1DECFE9FFDDCF11
:1030D000EAFFD890E936EA36D890E936EA36CB0EE0
:1030E000E926000EEA22EF6ADECFE9FFDDCFEAFF34
:1030F000D890E936EA36D890E936EA36CB0EE9269A
:10310000000EEA22EE52EE6AEE6AEE6A05D0DF2A7F
:10311000010E01E3DB2AB9D7020EDB6AF28E05D07D
:10312000020EF36E020EF3CFDBFF020EDB5000D077
:10313000146E030EE15C02E2E16AE552E16E1450A6
:10314000E552E7CFD9FF1200D9CFE6FFE1CFD9FF93
:10315000E652DF6A0001CA050FE1010119511A1197
:103160001B1109E007D01BC1FBFF1AC1FAFF0101C7
:103170001951F96EF8DF02D0060EDF6EDF5000D075
:10318000E552E552E7CFD9FF1200D9CFE6FFE1CFF4
:10319000D9FFE652DF6A0001CA050CE107D012C16F
:1031A000FBFF11C1FAFF01011051F96EF8DF0001B8
:1031B000CA6B02D0060EDF6EDF5000D0E552E5523A
:1031C000E7CFD9FF1200D9CFE6FFE1CFD9FFE65212
:1031D0000001CA510EE107D015C1FBFF14C1FAFF6F
:1031E00001011351F96EF8DF0001010ECA6FDF6AA9
:1031F00007D00001CA0502E1DF6A02D0060EDF6EC9
:10320000DF5000D0E552E552E7CFD9FF1200D9CF09
:10321000E6FFE1CFD9FF040EE126020EDB6A0001D2
:10322000CA5102E0060E0BD1D950030FE66E000E14
:10323000DA20E66E87EC2FF0E552E552010801E056
:10324000FCD0030EDB50030A01E1F6D0010A34E0A2
:10325000030A04E0010A01E0F0D0EFD02F0EE66E81
:10326000010EE66E2B0EE66E010EE66E2D0EE66E7C
:10327000010EE66E07D018C1FBFF17C1FAFF01016E
:103280001651F96EF8DF146E060EE15E1450E76E0B
:10329000020EE7CFDBFF020EDB500DE101010B5107
:1032A00001012D5D03E001012D5105E1020EE66EE5
:1032B00077EC2FF0E552C1D02BC1E9FF2CC1EAFF1A
:1032C000EFCF2EF10101010E316FDE6ADD6ADECF34
:1032D00014F0DDCF15F0D890155004E6100E145CF4
:1032E000000E155857E2DECFE9FFDDCFEAFFD89098
:1032F000E936EA36D890E936EA36CB0EE926000EF2
:10330000EA22EF5002E146D040D0DECFE9FFDDCF28
:10331000EAFFD890E936EA36D890E936EA36CB0E9D
:10332000E926000EEA22EF5001012E5D2EE1DECFEC
:10333000E9FFDDCFEAFFD890E936EA36D890E936E2
:10334000EA36CB0EE926000EEA22EECF14F0EECFDD
:1033500015F0EECF16F0EFCF17F02F0EE66E010E40
:10336000E66E2BC1E6FF2CC1E6FF07D017C0FBFFBE
:1033700016C0FAFF00011550F96EF8DFE552E5526C
:10338000E552E5520101316F05D0DF2A010E01E35C
:10339000DB2A9DD701012D514EE00101315130E072
:1033A00001012F6B306B800E01012E11E66E0101C1
:1033B0002FC114F030C115F02F2B000E3023010166
:1033C00001012B511424E96E010101012C5115203A
:1033D000EA6EE552E750EF6E01012FC114F030C1E3
:1033E00015F02F2B000E3023010101012B51142465
:1033F000E96E010101012C511520EA6E31C1EFFF88
:103400002FC1E6FF30C1E6FF2BC1E6FF2CC1E6FF6E
:103410000BC1E6FF07D00FC1FBFF0EC1FAFF010190
:103420000D51F96EF8DF146E050EE15E1450E76E73
:10343000020EE7CFDBFF01D000D0000E00D0146EEB
:10344000040EE15C02E2E16AE552E16E1450E552DD
:06345000E7CFD9FF1200D6
:0A345600D9CFE6FFE1CFD9FF090E40
:10346000E126070EDB6AFB0EDBCFE9FFFC0EDBCFAC
:10347000EAFF050EEE1801E1ED5001E013D1010E57
:10348000E76EFD0EDBCFE9FFFE0EDBCFEAFFE75074
:10349000E926000EEA22EF50000EF350DE6EDD6AE0
:1034A000020EE76EFD0EDBCFE9FFFE0EDBCFEAFF7B
:1034B000E750E926000EEA22EF50DF12DF2A010E64
:1034C00001E3DB2A030EE76EFD0EDBCFE9FFFE0E04
:1034D000DBCFEAFFE750E926000EEA22EF50000EAC
:1034E000F350E66ED950020FE96EDACFEAFFE552EB
:1034F000E750EE6EED6A040EE76EFD0EDBCFE9FFDE
:10350000FE0EDBCFEAFFE750E926000EEA22EF507D
:10351000146E156AD950020FE96EDACFEAFF145023
:10352000EE121550ED12020EDBCF14F0030EDBCFBE
:1035300015F0010E145C000E155801E2ADD0020E1C
:10354000DBCF16F0030EDBCF17F0D00E165C070EA4
:10355000175801E3A1D0FD0EDBCF08F0FE0EDBCF44
:1035600009F0050E08C0DBFF060E09C0DBFFFB0EED
:10357000DBCFE9FFFC0EDBCFEAFFEE6AED6A050E5A
:10358000DBCFE9FFDB2A060EDBCFEAFF01E3DB2A14
:10359000010EEF6EFB0EDBCFE9FFFC0EDBCFEAFF87
:1035A000EE2A000EED22020EDB50070B16E0020E93
:1035B000DBCF14F0030EDBCF15F0030E0F0B05E08D
:1035C000D89015321432E806FBE1010E1426000EE5
:1035D0001522040E14C0DBFF12D0080E146E156AFB
:1035E000020EDBCF08F0030EDBCF09F014C00DF0A4
:1035F00015C00EF0B6EC30F0040E08C0DBFF050E6F
:10360000DBCFE9FFDB2A060EDBCFEAFF01E3DB2A93
:10361000040EDBCFEFFFFB0EDBCFE9FFFC0EDBCFB1
:10362000EAFFEE2A000EED22E66A020EDBCFE6FF8D
:10363000030EDBCFE6FFDECFE6FFDDCFE6FF050EB4
:10364000DBCFE6FF060EDBCFE6FFCFEC26F0146EF5
:10365000070EE15E1450E76E080EE7CFDBFF080EA1
:10366000DB500BE0080EDBCFE6FF61EC23F0E55208
:10367000E76E070EE7CFDBFF0ED0040EDB50146EB3
:10368000156AFB0EDBCFE9FFFC0EDBCFEAFF14501F
:10369000EE261550ED2205D0030EF36E070EF3CF84
:1036A000DBFF05D0030EF36E070EF3CFDBFF070E33
:1036B000DB5000D0146E090EE15C02E2E16AE552D3
:1036C000E16E1450E552E7CFD9FF1200D9CFE6FFE3
:1036D000E1CFD9FF060EE126040EDB6AFB0EDBCF3D
:1036E000E9FFFC0EDBCFEAFF050EEE1801E1ED501D
:1036F00001E094D0010EE76EFD0EDBCFE9FFFE0E78
:10370000DBCFEAFFE750E926000EEA22EF50000E79
:10371000F350DE6EDD6A020EE76EFD0EDBCFE9FFD1
:10372000FE0EDBCFEAFFE750E926000EEA22EF505B
:10373000DF12DF2A010E01E3DB2A040EE76EFD0E25
:10374000DBCFE9FFFE0EDBCFEAFFE750E926000EF4
:10375000EA22EF505DE1030EE76EFD0EDBCFE9FFDD
:10376000FE0EDBCFEAFFE750E926000EEA22EF501B
:10377000FF080EE0030EE76EFD0EDBCFE9FFFE0E45
:10378000DBCFEAFFE750E926000EEA22EF5040E1E6
:10379000030EDB6A030EE76EFD0EDBCFE9FFFE0EC4
:1037A000DBCFEAFFE750E926000EEA22EF50FF08E0
:1037B00006E1010EF36E020EF3CFDBFF02D0020E24
:1037C000DB6A010EE66E010EE66EE66ADECFE6FF0C
:1037D000DDCFE6FFD950020FE66E000EDA20E66E6E
:1037E000CFEC26F0146E070EE15E1450E76E050E66
:1037F000E7CFDBFF050EDB500AE0050EDBCFE6FF6F
:1038000061EC23F0E552E76E040EE7CFDBFF05D055
:10381000030EF36E040EF3CFDBFF05D0030EF36E41
:10382000040EF3CFDBFF040EDB5000D0146E060E47
:10383000E15C02E2E16AE552E16E1450E552E7CF45
:10384000D9FF1200D9CFE6FFE1CFD9FF080EE1265C
:10385000060EDB6AFB0EDBCFE9FFFC0EDBCFEAFFD7
:10386000050ED880EE54000EED5401E3F0D0010EA9
:10387000E76EFD0EDBCFE9FFFE0EDBCFEAFFE75080
:10388000E926000EEA22EF50000EF350DE6EDD6AEC
:10389000020EE76EFD0EDBCFE9FFFE0EDBCFEAFF87
:1038A000E750E926000EEA22EF50DF12DF2A010E70
:1038B00001E3DB2A030EE76EFD0EDBCFE9FFFE0E10
:1038C000DBCFEAFFE750E926000EEA22EF50000EB8
:1038D000F350E66ED950020FE96EDACFEAFFE552F7
:1038E000E750EE6EED6A040EE76EFD0EDBCFE9FFEA
:1038F000FE0EDBCFEAFFE750E926000EEA22EF508A
:10390000146E156AD950020FE96EDACFEAFF14502F
:10391000EE121550ED12050EE76EFD0EDBCFE9FF3E
:10392000FE0EDBCFEAFFE750E926000EEA22040E86
:10393000EFCFDBFF020EDB50070B16E0020EDBCFF2
:1039400014F0030EDBCF15F0030E0F0B05E0D8903B
:1039500015321432E806FBE1010E1426000E152282
:10396000050E14C0DBFF12D0080E146E156A020E8D
:10397000DBCF08F0030EDBCF09F014C00DF015C04B
:103980000EF0B6EC30F0050E08C0DBFF020EDBCF08
:1039900014F0030EDBCF15F0010E145C000E155869
:1039A00050E3D950020FE96EDACFEAFFB00ED880AB
:1039B000EE54070EED5445E3040EDB50F36E050E96
:1039C000DB50F35C3EE1010EE66E020EDBCFE6FF5C
:1039D000030EDBCFE6FFDECFE6FFDDCFE6FF060E10
:1039E000E76EFD0EDBCF14F0FE0EDBCF15F0E750D7
:1039F0001426000E152214C0E6FF15C0E6FFCFEC1A
:103A000026F0166E070EE15E1650E76E070EE7CF42
:103A1000DBFF070EDB500BE0070EDBCFE6FF61ECB0
:103A200023F0E552E76E060EE7CFDBFF09D0FB0E71
:103A3000DBCFE9FFFC0EDBCFEAFF050EEE6EED6A91
:103A400005D0030EF36E060EF3CFDBFF05D0030E99
:103A5000F36E060EF3CFDBFF060EDB5000D0146EC4
:103A6000080EE15C02E2E16AE552E16E1450E552B3
:063A7000E7CFD9FF1200B0
:0A3A7600D9CFE6FFE1CFD9FF050E1E
:103A8000E126DF6A9D9AF80EDBCFE6FF080EE66EB0
:103A9000D950F90FE96EFF0EDA20EA6EEECFE6FF9D
:103AA000EECFE6FFEECFE6FFEFCFE6FFFD0EDBCF7A
:103AB000E6FFFEEC26F0146E070EE15E14500108DE
:103AC00003E0030EDF6E6AD0D950F90FE96EFF0EE6
:103AD000DA20EA6ED880800EEE54250EEE54000EE9
:103AE000EE54000EEE540FE2A30EF36E010EF3CF70
:103AF000DBFFBB0EF36E020EF3CFDBFF030EDB6AC0
:103B0000040EDB6A3DD0D950F90FE96EFF0EDA20C2
:103B1000EA6E600EEE1806E1090EEE1803E1EE50B3
:103B200001E1EE500FE1CF0EF36E010EF3CFDBFF9C
:103B3000710EF36E020EF3CFDBFF030EDB6A040E91
:103B4000DB6A1ED0D950F90FE96EFF0EDA20EA6E5B
:103B5000800EEE1806E1250EEE1803E1EE5001E1AD
:103B6000EE500EE1E70EF36E010EF3CFDBFFB80E61
:103B7000F36E020EF3CFDBFF030EDB6A040EDB6A8B
:103B8000010EDBCFE6FF020EDBCFE6FF8CEC2DF063
:103B9000E552E552010802E0030EDF6E9D8ADF5018
:103BA00000D0146E050EE15C02E2E16AE552E16EBE
:103BB0001450E552E7CFD9FF12009D9A0101636BC3
:103BC000E66A010EE66EE3EC26F0E552E552A3EC60
:103BD0002DF09D8A12009D9AE66AE66AE3EC26F0D3
:103BE000E552E552AEEC2DF09D8A1200D9CFE6FFEA
:103BF000E1CFD9FF040EE126DF6A010EDB6A9D9A50
:103C00000001640EC85D000EC95902E3050E53D0D1
:103C10000001040EC85D000EC95946E3C8C0E6FFA6
:103C2000C9C0E6FF600EE66E000EE66E0EEC2DF0EB
:103C3000E552E552E552E552020EF3CFDBFF030EEB
:103C4000F4CFDBFFD950020FE96EDACFEAFFEE5076
:103C5000ED1029E1FD0EDBCFE9FFFE0EDBCFEAFF21
:103C600060C0EFFFC8C014F0C9C015F01406000E04
:103C7000155A020E145E000E155AF90EDBCFE9FF3D
:103C8000FA0EDBCFEAFF14C0EEFF15C0EDFFFB0E0E
:103C9000DBCFE9FFFC0EDBCFEAFF610EEE6E000E1C
:103CA000ED6E010EDF6E03D0DE52050EDD6E9D8AD5
:103CB000010EDB5000D0146E040EE15C02E2E16AFA
:103CC000E552E16E1450E552E7CFD9FF1200D9CF8B
:103CD000E6FFE1CFD9FF030EE126DF6A9D9A0101DD
:103CE000630571E1FC0EDBCFC4F0FD0EDBCFC5F048
:103CF0000001010EC45F000EC55B010E0001C66F1E
:103D0000C76BFE0EDB50C4C0E9FFC5C0EAFFEF6E13
:103D1000FA0EDBCF08F0FB0EDBCF09F008500001F4
:103D2000C62709500001C723C6C0E6FFC7C0E6FF8B
:103D3000C4C0E6FFC5C0E6FF0EEC2DF0E552E5522B
:103D4000E552E552DE52F3CFDEFFF4CFDDFFDD5268
:103D5000FF0EE76E010EDBCF14F0020EDBCF15F085
:103D6000E7501416156A0001C6C0E9FFC7C0EAFF94
:103D7000C62B000EC723600EE926000EEA2214C0EF
:103D8000EFFF010EDBCF14F0020EDBCF15F015C0F4
:103D900014F0156A0001C6C0E9FFC7C0EAFFC62BD0
:103DA000000EC723600EE926000EEA2214C0EFFFC2
:103DB0000101010E626F010EE66EE66AE3EC26F089
:103DC000E552E55202D0050EDF6E9D8ADF5000D02D
:103DD000146E030EE15C02E2E16AE552E16E1450FA
:103DE000E552E7CFD9FF1200D9CFE6FFE1CFD9FFE7
:103DF000020EE126DF6A0101625102E0000E51D09D
:103E0000D950010FE66E000EDA20E66E85EC27F041
:103E1000E552E55201016351020A25E0030A0BE075
:103E2000020A06E0030A01E03AD0A3EC2DF037D0F5
:103E3000A3EC2DF034D00001C86BC96B0001C8C0E1
:103E4000E9FFC9C0EAFFC82B000EC923600EE926AE
:103E5000000EEA22010EDBCFEFFF0101020E636FBD
:103E6000A3EC2DF01CD00001640EC85D000EC959F2
:103E700010E20001C8C0E9FFC9C0EAFFC82B000E6C
:103E8000C923600EE926000EEA22010EDBCFEFFF08
:103E900003D00101030E636FA3EC2DF000D0DF50BF
:103EA00000D0146E020EE15C02E2E16AE552E16EBE
:103EB0001450E552E7CFD9FF1200D9CFE6FFE1CF8A
:103EC000D9FFE652DF6A0101630502E0000E3AD035
:103ED00001016251010A0BE0010A01E031D0E66AFA
:103EE000010EE66EE3EC26F0E552E55229D0000122
:103EF000000ED880C655000EC75512E2C4C0E9FFB7
:103F0000C5C0EAFFEF50E66E6AEC27F0E55200010B
:103F1000C42B000EC5230001C607000EC75BE7D700
:103F2000030EE66E77EC2FF0E552DF6EE66A010EC7
:103F3000E66EE3EC26F0E552E5520101626B00D03B
:103F4000DF5000D0E552E552E7CFD9FF1200D9CFBC
:103F5000E6FFE1CFD9FFE652DF6A01016351030AB0
:103F600012E0010A09E0020A01E00ED0E66A77ECED
:103F70002FF0E552DF6E09D0010EE66E77EC2FF0E0
:103F8000E552DF6E02D001D000D0AEEC2DF0010181
:103F9000010E636FDF5000D0E552E552E7CFD9FF45
:023FA00012000D
:0E3FA200000000000000000020202020000091
:103FB000200050505000000000005050F850F850C1
:103FC00050002078A07028F02000C0C81020409831
:103FD00018006090A040A890680060204000000099
:103FE0000000102040404020100040201010102001
:103FF00040000020A870A8200000002020F8202009
:10400000000000000000301020000000007C0000D4
:1040100000000000000000606000000810204080E8
:104020000000708898A8C88870002060A020202018
:10403000F800708808102040F800F8102010088858
:10404000700010305090F8101000F880F008080848
:10405000F000304080F088887000F8081020404060
:104060004000708888708888700070888878081090
:104070006000006060006060000000606000602020
:10408000400008102040201008000000F800F80050
:104090000000402010081020400070880810200008
:1040A000200070880868A8A87000205088F88888C8
:1040B0008800F08888F08888F00070888080808888
:1040C0007000E09088888890E000F88080F0808020
:1040D000F800F88080F080808000708880B8888840
:1040E0007800888888F888888800F8202020202098
:1040F000F80038101010109060008890A0C0A090B8
:104100008800808080808080F80088D8A8A888886F
:1041100088008888C8A898888800708888888888D7
:104120007000F08888F08080800070888888A8906F
:104130006800F08888F0A090880078808070080877
:10414000F000F82020202020200088888888888897
:1041500070008888888888502000888888A8A8A847
:1041600050008888502050888800888888502020F7
:104170002000F80810204080F80070404040404087
:1041800070008850F820F8202000701010101010D7
:1041900070002050880000000000000000000000B7
:1041A000F80040201000000000000000700878882F
:1041B00078008080B0C88888F00000007080808817
:1041C0007000080868988888780000007088F88077
:1041D0007000304840E0404040000078888878080F
:1041E00070008080B0C8888888002000602020206F
:1041F00070000800080808483000404048506050EF
:10420000480060202020202070000000D0A8A8884E
:1042100088000000B0C888888800000070888888FE
:1042200070000000F088F080800000006898780836
:1042300008000000B0C88080800000007080700816
:10424000F0004040E04040483000000088888898F6
:104250006800000088888850200000008888A8A88E
:10426000500000008850205088000000888878089E
:1042700070000000F8102040F8001020204020209E
:1042800010002020202020202000201010081010D6
:104290002000002010F810200000002040F84020EE
:1042A000000030484830000000003048483000002E
:1042B00000000818387838180800040404040404BE
:1042C0000400FFFFFFFFFFFFFF00000404000404E1
:1042D00000000080800080800000808080808080DE
:1042E0008000C0C0C0C0C0C0C000E0E0E0E0E0E0CE
:1042F000E000F0F0F0F0F0F0F000F8F8F8F8F8F87E
:10430000F800FCFCFCFCFCFCFC00FDFDFDFDFDFDE3
:10431000FD002070F870707070003048848484480C
:10432000300084483030304884000070487040408D
:1043300000000030407010600000004040404078B5
:10434000000000008005C004E003F002F801000056
:0A4350000804180338027801F80091
:06435A00D9CFE6FFE1CF20
:10436000D9FF0A0EE126F90EDB50E66ED950080F90
:10437000E96EDACFEAFFE552E750EE6EED6AFA0E2B
:10438000DB50080801E2F1D0080E146E156AFB0E2E
:10439000DBCF08F0FC0EDBCF09F014C00DF015C028
:1043A0000EF0B6EC30F0040E08C0DBFF050E09C0BD
:1043B000DBFFFB0EDBCF16F0FC0EDBCF17F0080E99
:1043C000086E096A040EDBCF0DF0050EDBCF0EF090
:1043D00028EC30F00650165C146E07501758156E16
:1043E000060E14C0DBFF070E15C0DBFF060EDBCF89
:1043F00014F0D950080FE96EDACFEAFF1450E850F4
:1044000005E0D890EE36ED36E806FBE1FA0EDB501B
:10441000166E010E165204E0E846FE0B1606FCE18D
:10442000FF0F146E156A14BE1568020E14C0DBFF70
:10443000030E15C0DBFFFB0EDBCF16F0FC0EDBCF4F
:1044400017F0080E086E096A040EDBCF0DF0050E9A
:10445000DBCF0EF028EC30F00650165C146E0750DF
:104460001758156ED950020FE96EDACFEAFF1450D3
:10447000E85005E0D890EE36ED36E806FBE1040E94
:10448000DBCF14F0050EDBCF15F0FD0EDB5014244E
:10449000E96EFE0EDB501520EA6EEF50DE6EDD6A2F
:1044A000010EE76E040EDBCF14F0050EDBCF15F026
:1044B000E7501426000E1522FD0EDB501424E96E81
:1044C000FE0EDB501520EA6EEF50000EF350DF12A7
:1044D000020EDB1C186E030EDB1C196EDE50181466
:1044E000166EDD501914176E080EDB501610146E80
:1044F000090EDB501710156E14C0DEFF15C0DDFF6E
:10450000DECF16F0DDCF17F0FF0E1616000E1716D1
:10451000040EDBCF14F0050EDBCF15F0FD0EDB50E3
:104520001424E96EFE0EDB501520EA6E16C0EFFF74
:10453000DECF16F0DDCF17F017C016F0176A010EA8
:10454000E76E040EDBCF14F0050EDBCF15F0E7505D
:104550001426000E1522FD0EDB501424E96EFE0E0B
:10456000DB501520EA6E16C0EFFF0A0EE15C02E296
:10457000E16AE552E16EE552E7CFD9FF1200D9CFEB
:10458000E6FFE1CFD9FF080EE126080E146E156A8A
:10459000FB0EDBCF08F0FC0EDBCF09F014C00DF0F2
:1045A00015C00EF0B6EC30F0040E08C0DBFF050EAF
:1045B00009C0DBFFFB0EDBCF16F0FC0EDBCF17F0E4
:1045C000080E086E096A040EDBCF0DF0050EDBCF76
:1045D0000EF028EC30F00650165C146E0750175899
:1045E000156E060E14C0DBFF070E15C0DBFFFA0EBA
:1045F000DB50166E010E165204E0E846FE0B16065E
:10460000FCE1FF0F146E156A14BE1568020E14C08B
:10461000DBFF030E15C0DBFF040EDBCF14F0050E2D
:10462000DBCF15F0FD0EDB501424E96EFE0EDB50DF
:104630001520EA6EEF50DE6EDD6A010EE76E040EA5
:10464000DBCF14F0050EDBCF15F0E7501426000E7B
:104650001522FD0EDB501424E96EFE0EDB501520F2
:10466000EA6EEF50000EF350DF12060EDBCF14F0AF
:10467000D9CFE9FFDACFEAFF14500F0B06E0EC5276
:10468000D890ED32EF32E806FAE1020EDBCF14F0FB
:10469000030EDBCF15F0D9CFE9FFDACFEAFF1450D4
:1046A000EE161550ED16DF5000D0146E080EE15CCA
:1046B00002E2E16AE552E16E1450E552E7CFD9FF1C
:1046C0001200D9CFE6FFE1CFD9FFE652FE0EDB5054
:1046D000070A0AE0060A05E0010A01E008D0DF6ADD
:1046E00009D0020EDF6E06D0060EDF6E03D0040E78
:1046F000DF6E00D0DF5000D0E552E552E7CFD9FFA2
:024700001200A5
:0E470200DACFE4FFE2CFDAFFE9CFE4FFEACF3F
:10471000E4FFF6CFE4FFF7CFE4FFF5CFE4FFF3CFFC
:10472000E4FFF4CFE4FFFACFE4FF00EE00F0140E54
:10473000E80403E3EECFE4FFFBD700EE14F00A0E2B
:10474000E80403E3EECFE4FFFBD7E652F2940F0157
:10475000512B000E52230F01532B000E54230F0137
:10476000552B000E56230F01572B000E58230F0117
:104770005907000E5A5B0F015A3504E259510008DF
:10478000000E5A550AE30F015B2B000E5C235D23DC
:104790005E23C80E0F01596F5A6B0F014551461128
:1047A00007E005D046CFFAFF0F014551F96EFADF59
:1047B00043CFE6FF44CFE6FF7EEC30F0E552E55212
:1047C000E55200EE1DF00A0EE80403E3E5CFEDFF2D
:1047D000FBD700EE13F0140EE80403E3E5CFEDFF82
:1047E000FBD7E5CFFAFFE5CFF4FFE5CFF3FFE5CF49
:1047F000F5FFE5CFF7FFE5CFF6FFE5CFEAFFE5CF21
:10480000E9FFE5CFDAFF1100DACFE4FFE2CFDAFF0C
:10481000E9CFE4FFEACFE4FFF6CFE4FFF7CFE4FF10
:10482000F5CFE4FFF3CFE4FFF4CFE4FFFACFE4FFEA
:1048300000EE00F0140EE80403E3EECFE4FFFBD734
:1048400000EE14F00A0EE80403E3EECFE4FFFBD71A
:10485000E6529E9047CFE6FF48CFE6FF62EC30F08D
:10486000E552E5520F0149514A1107E005D04ACF00
:10487000FAFF0F014951F96EFADFE55200EE1DF023
:104880000A0EE80403E3E5CFEDFFFBD700EE13F0DB
:10489000140EE80403E3E5CFEDFFFBD7E5CFFAFF05
:1048A000E5CFF4FFE5CFF3FFE5CFF5FFE5CFF7FF69
:1048B000E5CFF6FFE5CFEAFFE5CFE9FFE5CFDAFF89
:1048C0001100DACFE4FFE2CFDAFFE9CFE4FFEACF6D
:1048D000E4FFF6CFE4FFF7CFE4FFF5CFE4FFF3CF3B
:1048E000E4FFF4CFE4FFFACFE4FF00EE00F0140E93
:1048F000E80403E3EECFE4FFFBD700EE14F00A0E6A
:10490000E80403E3EECFE4FFFBD7E652A1924BCFDE
:10491000E6FF4CCFE6FF62EC30F0E552E5520F01C6
:104920004D514E1107E005D04ECFFAFF0F014D510A
:10493000F96EFADFE55200EE1DF00A0EE80403E31B
:10494000E5CFEDFFFBD700EE13F0140EE80403E310
:10495000E5CFEDFFFBD7E5CFFAFFE5CFF4FFE5CFDD
:10496000F3FFE5CFF5FFE5CFF7FFE5CFF6FFE5CFA6
:10497000EAFFE5CFE9FFE5CFDAFF1100D9CFE6FF87
:10498000E1CFD9FF9F0EE66E9AEC30F0E552FD0EB6
:10499000DBCF43FFFE0EDBCF44FFFB0EDBCF45FF3B
:1049A000FC0EDBCF46FFFD0EDBCFE6FFFE0EDBCFBE
:1049B000E6FF7EEC30F0E552E552E552E7CFD9FF55
:1049C0001200D9CFE6FFE1CFD9FFC50EE66EE8ECC5
:1049D0002FF0E552FD0EDBCFE6FFFE0EDBCFE6FF4C
:1049E00062EC30F0E552E5529F80FD0EDBCF47FFD1
:1049F000FE0EDBCF48FFFB0EDBCF49FFFC0EDBCF0B
:104A00004AFFE552E7CFD9FF1200D9CFE6FFE1CF49
:104A1000D9FFCD0EE66EC7EC2FF0E552FD0EDBCFD1
:104A2000E6FFFE0EDBCFE6FF46EC30F0E552E55246
:104A3000FD0EDBCF4BFFFE0EDBCF4CFFFB0EDBCFC3
:104A40004DFFFC0EDBCF4EFFE552E7CFD9FF120042
:104A5000D9CFE6FFE1CFD9FF040EE126F29A5BCF72
:104A6000DFFF010E5CCFDBFF020E5DCFDBFF030E2D
:104A70005ECFDBFFF28ADECF06F0DECF07F0DECFBF
:104A800008F0DDCF09F0DD52DD5200D0040EE15C0C
:104A900002E2E16AE552E16EE552E7CFD9FF12008A
:104AA000D9CFE6FFE1CFD9FF060EE126010EDB6A82
:104AB0004B0EF36E020EF3CFDBFF010EF36E030E0F
:104AC000F3CFDBFF040EDB6AE66A010EDBCF14F0E6
:104AD000020EDBCF15F0166A176A14C0E6FF15C088
:104AE000E6FF16C0E6FF17C0E6FFE66A030EDBCF5F
:104AF000E6FFE66A07EC17F0186E080EE15E185044
:104B0000E76E050EE7CFDBFFC5EC18F0E76E050E8C
:104B1000E7CFDBFF060EE15C02E2E16AE552E16EFF
:104B2000E552E7CFD9FF12001200D9CFE6FFE1CF5F
:104B3000D9FF030EE126FD0EDBCFE9FFFE0EDBCF32
:104B4000EAFF010EEFCFDBFF020EDB6A010EDB5046
:104B5000800A01E04AD00F01010E146F010EE76ECA
:104B6000FD0EDBCF14F0FE0EDBCF15F0E750142660
:104B7000000E152214C0E6FF15C0E6FF000EE66E1B
:104B80000F0EE66E4CEC2EF0E552E552E552E55282
:104B9000E66A5AEC09F0E5520F013D6B0F011E0E5B
:104BA0003E6F000EE66E0F0EE66E6DEC2EF0E552D7
:104BB000E552F3CF41FF0F01000E3F6F0F0E406F24
:104BC0000F01426B3D0EE66E0F0EE66EE66A6DEC6F
:104BD00002F0E552E552E552FB0EDBCFE9FFFC0E99
:104BE000DBCFEAFF800EEF6E01D000D0020EDB506B
:104BF00000D0146E030EE15C02E2E16AE552E16E60
:104C00001450E552E7CFD9FF1200D9CFE6FFE1CF2C
:104C1000D9FF030EE126DF6ADF5000D0146E030EC9
:104C2000E15C02E2E16AE552E16E1450E552E7CF41
:104C3000D9FF1200D9CFE6FFE1CFD9FF040EE1265C
:104C4000FB0EDB50DF6E020E086E096AF90EDBCF39
:104C50000DF0FA0EDBCF0EF028EC30F0010E06C09E
:104C6000DBFF020EDB6A030EDB6AF80EDB502FE07F
:104C7000010A01E061D0010EDB5000081CE2FD0ECC
:104C8000DBCFE9FFDB2AFE0EDBCFEAFF01E3DB2A05
:104C9000EF50E66E030EDBCFF3FFDB2AF350EA6A38
:104CA000150FE96E0F0EEA22E552E750EF6EDF2A8C
:104CB000010EDB06E0D7030EDBCFF3FFDB2AF35058
:104CC000EA6A150FE96E0F0EEA22EF6A35D0010E7F
:104CD000DB50000830E2FD0EDBCFE9FFDB2AFE0EE1
:104CE000DBCFEAFF01E3DB2A410EEF6EFD0EDBCFE7
:104CF000E9FFDB2AFE0EDBCFEAFF01E3DB2A420EEF
:104D0000EF6EFD0EDBCFE9FFDB2AFE0EDBCFEAFF05
:104D100001E3DB2A430EEF6EFD0EDBCFE9FFDB2A5A
:104D2000FE0EDBCFEAFF01E3DB2A440EEF6EDF2A43
:104D3000010EDB06CCD700D0E66A5AEC09F0E5524A
:104D40000F013D6B0F011E0E3E6F150EE66E0F0E2E
:104D5000E66E6DEC2EF0E552E552F3CF41FF0F0108
:104D6000150E3F6F0F0E406F0F01426B3D0EE66E4A
:104D70000F0EE66EE66A6DEC02F0E552E552E55282
:104D8000020EDB5000D0146E040EE15C02E2E16A18
:104D9000E552E16E1450E552E7CFD9FF1200D9CFAA
:104DA000E6FFE1CFD9FF010E00D0E552E7CFD9FFF2
:104DB0001200D9CFE6FFE1CFD9FF010E00D0E552B6
:064DC000E7CFD9FF12004D
:0A4DC600D9CFE6FFE1CFD9FFFE0EC2
:104DD000DB5002E1AB9801D0AB88FD0EDB5001E166
:104DE00009D007D021C1FBFF20C1FAFF01011F51EB
:104DF000F96EF8DFE552E7CFD9FF1200D9CFE6FF11
:104E0000E1CFD9FF050EE1263C0EDF6ED950FA0F37
:104E1000E96EFF0EDA20EA6EEE2A000EEE22000E98
:104E2000EE22000EEE22D950FA0FE96EFF0EDA20C4
:104E3000EA6E040EE76ED890EF36010EEB36020EE6
:104E4000EB36030EEB36E706F6E1146A480E156EF4
:104E5000E80E166E010E176E14C006F015C007F0AE
:104E600016C008F017C009F0FA0EDBCF0BF0FB0EEE
:104E7000DBCF0CF0FC0EDBCF0DF0FD0EDBCF0EF028
:104E8000A3EC2FF0010E06C0DBFF020E07C0DBFF14
:104E9000030E08C0DBFF040E09C0DBFF010EDBCFF1
:104EA000E6FF020EDBCFE6FFDFCFE6FF30EC2FF0B0
:104EB000E552E552E5529F8A010E00D0146E050EB0
:104EC000E15C02E2E16AE552E16E1450E552E7CF9F
:104ED000D9FF1200D9CFE6FFE1CFD9FF8686500E69
:104EE000E66E09EC31F0E552FE0EDB50AD6EACA281
:104EF000FED78696500EE66E09EC31F0E552010EB3
:104F000000D0E552E7CFD9FF1200D9CFE6FFE1CFBD
:104F1000D9FFE65209EC30F0DF6EFD0EDBCFE9FF82
:104F2000FE0EDBCFEAFFDFCFEFFF9E9A010E00D02F
:104F3000E552E552E7CFD9FF1200DACFE4FFE2CF26
:104F4000DAFFE9CFE4FFEACFE4FFF6CFE4FFF7CFE3
:104F5000E4FFF5CFE4FFF3CFE4FFF4CFE4FFFACFB3
:104F6000E4FFFBCFE4FF00EE00F0140EE80403E3DF
:104F7000EECFE4FFFBD700EE14F00A0EE80403E3E3
:104F8000EECFE4FFFBD7E65207D021C1FBFF20C1E3
:104F9000FAFF01011F51F96EF8DFE55200EE1DF036
:104FA0000A0EE80403E3E5CFEDFFFBD700EE13F0B4
:104FB000140EE80403E3E5CFEDFFFBD7E5CFFBFFDD
:104FC000E5CFFAFFE5CFF4FFE5CFF3FFE5CFF5FF3F
:104FD000E5CFF7FFE5CFF6FFE5CFEAFFE5CFE9FF45
:104FE000E5CFDAFF1100DACFE4FFE2CFDAFFE9CF55
:104FF000E4FFEACFE4FFF6CFE4FFF7CFE4FFF5CF1D
:10500000E4FFF3CFE4FFF4CFE4FFFACFE4FFFBCFFC
:10501000E4FF00EE00F0140EE80403E3EECFE4FF3B
:10502000FBD700EE14F00A0EE80403E3EECFE4FF32
:10503000FBD7E65207D01EC1FBFF1DC1FAFF0101DD
:105040001C51F96EF8DFE55200EE1DF00A0EE8047F
:1050500003E3E5CFEDFFFBD700EE13F0140EE804F9
:1050600003E3E5CFEDFFFBD7E5CFFBFFE5CFFAFF8D
:10507000E5CFF4FFE5CFF3FFE5CFF5FFE5CFF7FF91
:10508000E5CFF6FFE5CFEAFFE5CFE9FFE5CFDAFFB1
:0250900011000D
:0E509200D9CFE6FFE1CFD9FF090EE126070EC8
:1050A000DB6AFB0EDBCFE9FFFC0EDBCFEAFF050E70
:1050B000EE1801E1ED5001E012D1010EE76EFD0E98
:1050C000DBCFE9FFFE0EDBCFEAFFE750E926000E5B
:1050D000EA22EF50000EF350DE6EDD6A020EE76E3C
:1050E000FD0EDBCFE9FFFE0EDBCFEAFFE750E9263E
:1050F000000EEA22EF50DF12DF2A010E01E3DB2A65
:10510000030EE76EFD0EDBCFE9FFFE0EDBCFEAFFFD
:10511000E750E926000EEA22EF50000EF350E66E4B
:10512000D950020FE96EDACFEAFFE552E750EE6E92
:10513000ED6A040EE76EFD0EDBCFE9FFFE0EDBCF5E
:10514000EAFFE750E926000EEA22EF50146E156AD6
:10515000D950020FE96EDACFEAFF1450EE12155063
:10516000ED12020EDBCF14F0030EDBCF15F0010EB3
:10517000145C000E155801E2ACD0020EDBCF16F025
:10518000030EDBCF17F0D00E165C070E175801E3A5
:10519000A0D0FD0EDBCF08F0FE0EDBCF09F0050E30
:1051A00008C0DBFF060E09C0DBFFFB0EDBCFE9FF0B
:1051B000FC0EDBCFEAFFEE6AED6A050EDBCFE9FFFE
:1051C000DB2A060EDBCFEAFF01E3DB2A020EEF6EDD
:1051D000FB0EDBCFE9FFFC0EDBCFEAFFEE2A000E71
:1051E000ED22020EDB50070B16E0020EDBCF14F0AF
:1051F000030EDBCF15F0030E0F0B05E0D890153230
:105200001432E806FBE1010E1426000E1522040EEE
:1052100014C0DBFF12D0080E146E156A020EDBCF2D
:1052200008F0030EDBCF09F014C00DF015C00EF02E
:10523000B6EC30F0040E08C0DBFF050EDBCFE9FF53
:10524000DB2A060EDBCFEAFF01E3DB2A040EDBCF0D
:10525000EFFFFB0EDBCFE9FFFC0EDBCFEAFFEE2A10
:10526000000EED22020EDBCFE6FF030EDBCFE6FFE2
:10527000DECFE6FFDDCFE6FF050EDBCFE6FF060E55
:10528000DBCFE6FFD9EC26F0146E060EE15E14507B
:10529000E76E080EE7CFDBFF080EDB500BE0080ED1
:1052A000DBCFE6FF61EC23F0E552E76E070EE7CFB8
:1052B000DBFF0ED0040EDB50146E156AFB0EDBCF45
:1052C000E9FFFC0EDBCFEAFF1450EE261550ED226D
:1052D00005D0030EF36E070EF3CFDBFF05D0030EF0
:1052E000F36E070EF3CFDBFF070EDB5000D0146E1A
:1052F000090EE15C02E2E16AE552E16E1450E5520A
:06530000E7CFD9FF120007
:0A530600D9CFE6FFE1CFD9FF0A0E70
:10531000E126060EDB6AFB0EDBCFE9FFFC0EDBCFDE
:10532000EAFF050EEE1801E1ED5001E006D1010E95
:10533000E76EFD0EDBCFE9FFFE0EDBCFEAFFE750A5
:10534000E926000EEA22EF50DE6EDD6AD9CFE9FFD2
:10535000DACFEAFFEE50ED6EEF6A020EE76EFD0E59
:10536000DBCFE9FFFE0EDBCFEAFFE750E926000EB8
:10537000EA22EF50DF12DF2A010E01E3DB2A030EDF
:10538000E76EFD0EDBCFE9FFFE0EDBCFEAFFE75055
:10539000E926000EEA22EF50E66ED950020FE96EC0
:1053A000DACFEAFFE552E750EE6EED6AD950020F10
:1053B000E96EDACFEAFFEE50ED6EEF6A040EE76EAB
:1053C000FD0EDBCFE9FFFE0EDBCFEAFFE750E9265B
:1053D000000EEA22EF50146E156AD950020FE96EE2
:1053E000DACFEAFF1450EE121550ED12020EDBCFA9
:1053F00014F0030EDBCF15F0010E145C000E1558EF
:1054000001E295D0020EDBCF16F0030EDBCF17F0D2
:105410007D0E165C000E175801E389D0FD0EDBCF20
:1054200008F0FE0EDBCF09F0040E08C0DBFF050E0E
:1054300009C0DBFFFB0EDBCFE9FFFC0EDBCFEAFF91
:10544000EE6AED6A040EDBCFE9FFDB2A050EDBCF47
:10545000EAFF01E3DB2A040EEF6EFB0EDBCFE9FF70
:10546000FC0EDBCFEAFFEE2A000EED22020E086EE4
:10547000096A020EDBCF0DF0030EDBCF0EF028EC35
:1054800030F00650E66E040EDBCFE9FFDB2A050E96
:10549000DBCFEAFF01E3DB2AE552E750EF6EFB0EBC
:1054A000DBCFE9FFFC0EDBCFEAFFEE2A000EED2298
:1054B000020EDBCFE6FF030EDBCFE6FFDECFE6FF1B
:1054C000DDCFE6FF040EDBCFE6FF050EDBCFE6FF08
:1054D00005EC26F0146E060EE15E1450E76E070E22
:1054E000E7CFDBFF070EDB500BE0070EDBCFE6FF5D
:1054F00061EC23F0E552E76E060EE7CFDBFF16D036
:10550000020EDBCF14F0030EDBCF15F0010ED890A6
:1055100014361536E806FBE1FB0EDBCFE9FFFC0E87
:10552000DBCFEAFF1450EE261550ED2205D0030E16
:10553000F36E060EF3CFDBFF05D0030EF36E060EFF
:10554000F3CFDBFF060EDB5000D0146E0A0EE15CD9
:1055500002E2E16AE552E16E1450E552E7CFD9FF6D
:02556000120037
:0E55620000C1814001C0804101C0804100C1F4
:10557000814001C0804100C1814000C1814001C023
:10558000804101C0804100C1814000C1814001C013
:10559000804100C1814001C0804101C0804100C103
:1055A000814001C0804100C1814000C1814001C0F3
:1055B000804100C1814001C0804101C0804100C1E3
:1055C000814000C1814001C0804101C0804100C1D3
:1055D000814001C0804100C1814000C1814001C0C3
:1055E000804101C0804100C1814000C1814001C0B3
:1055F000804100C1814001C0804101C0804100C1A3
:10560000814000C1814001C0804101C0804100C192
:10561000814001C0804100C1814000C1814001C082
:10562000804100C1814001C0804101C0804100C172
:10563000814001C0804100C1814000C1814001C062
:10564000804101C0804100C1814000C1814001C052
:10565000804100C1814001C0804101C0804100C142
:10566000814000C0C101C30302C2C60607C705C509
:10567000C404CC0C0DCD0FCFCE0E0ACACB0BC9097A
:1056800008C8D81819D91BDBDA1A1EDEDF1FDD1D8A
:105690001CDC14D4D515D71716D6D21213D311D1BA
:1056A000D010F03031F133F3F23236F6F737F5350A
:1056B00034F43CFCFD3DFF3F3EFEFA3A3BFB39F93A
:1056C000F83828E8E929EB2B2AEAEE2E2FEF2DED0A
:1056D000EC2CE42425E527E7E62622E2E323E1217A
:1056E00020E0A06061A163A3A26266A6A767A5658A
:1056F00064A46CACAD6DAF6F6EAEAA6A6BAB69A9FA
:10570000A86878B8B979BB7B7ABABE7E7FBF7DBD09
:10571000BC7CB47475B577B7B67672B2B373B17139
:1057200070B0509091519353529296565797559509
:1057300094549C5C5D9D5F9F9E5E5A9A9B5B9959B9
:105740005898884849894B8B8A4A4E8E8F4F8D4D89
:105750004C8C4484854587474686824243834181F9
:02576000804087
:0E576200D9CFE6FFE1CFD9FFE652DF6A020E93
:10577000E76EF90EDBCF14F0FA0EDBCF15F0E75031
:105780001426000E1522200E145C000E15585FE240
:105790000101526B536B010152C1E9FF53C1EAFF92
:1057A000522B000E5323320EE926010EEA22FE0E82
:1057B000DBCFEFFFFD0EDB5002E0FF0E01D0000E4D
:1057C000E66E010152C1E9FF53C1EAFF522B000E00
:1057D0005323320EE926010EEA22E552E750EF6E1E
:1057E000D950F90FE96EFF0EDA20EA6E000ED8806C
:1057F000EE54000EED542AE2F90EDBCFE6FFFA0E6E
:10580000DBCFE6FFFB0EDBCFE6FFFC0EDBCFE6FFD8
:10581000320E01015225146E010E01015321156E45
:1058200014C0E6FF15C0E6FF07EC2EF0166E060E5C
:10583000E15E1650F90EDBCF08F0FA0EDBCF09F06F
:1058400008500101522709500101532302D0040ED0
:10585000DF6EDF5000D0E552E552E7CFD9FF1200EE
:10586000D9CFE6FFE1CFD9FF52C1E6FF53C1E6FF32
:10587000320EE66E010EE66E010EE76EFD0EDBCF18
:1058800014F0FE0EDBCF15F0E7501426000E1522A3
:1058900014C0E6FF15C0E6FF07EC2EF0166E060EEC
:1058A000E15E1650010E0101156A5225146E535126
:1058B0001522FB0EDBCFE9FFFC0EDBCFEAFF14C0A5
:1058C000EEFF15C0EDFF000E00D0E552E7CFD9FF87
:0258D0001200C4
:0E58D200D9CFE6FFE1CFD9FF140EE126030E79
:1058E000DB6A040EDB6AD950050FE96EDACFEAFFF6
:1058F000EE6AEE6AEE6AEE6AEE6AD9500A0FE96E57
:10590000DACFEAFF490EEE6E440EEE6E450EEE6EF5
:105910004F0EEE6E4E0EEE6E490EEE6E430EEE6EB6
:10592000530EEE6E200EEE6EEE6A7BEC2EF0ECEC7B
:1059300030F095EC00F050EC25F0000EE66EE66AD3
:105940007F0EE66EC10EE66EBEEC24F0E552E55227
:10595000E552E552DE0EE66E200EE66EEF0EE66EC6
:10596000D80EE66EE1EC24F0E552E552E552E55240
:1059700015EC00F0E66A5AEC09F0E552040EDB6A19
:105980001E0EF36E050EF3CFDBFFD9500A0FE66E45
:10599000000EDA20E66E6DEC2EF0E552E552080EB0
:1059A000F3CFDBFFD9500A0F146EDACF15F0060ED5
:1059B00014C0DBFF070E15C0DBFF090EDB6AD950F0
:1059C000040FE66E000EDA20E66EE66A6DEC02F079
:1059D000E552E552E5520F01FA0E515D000E5259A3
:1059E00005E3EFEC30F00F01516B526B0F01140E19
:1059F000575D000E585905E315EC0BF00F01576B7E
:105A0000586B07EC19F0E7D7140EE15C02E2E16A8B
:0C5A1000E552E16EE552E7CFD9FF12002D
:045A1C00D9CFE6FFF9
:105A2000E1CFD9FF060EE126DF68010EDB68020E2A
:105A3000DB6A030EDB6AFB0EDBCF14F0DB06FC0E29
:105A4000DBCF15F001E2DB061450151038E0010E33
:105A5000DBCFE6FFFD0EDBCFE9FFDB2AFE0EDBCF5F
:105A6000EAFF01E3DB2AEF50E552E718E66ED95072
:105A7000040FE96EDACFEAFFE552E750EE6EED6A09
:105A8000040EDBCFF6FF050EDBCFF7FF620EF62626
